{
  "_format": "hh-sol-artifact-1",
  "contractName": "EnglishAuction",
  "sourceName": "contracts/EnglishAuction.sol",
  "abi": [
    {
      "inputs": [
        {
          "internalType": "uint16",
          "name": "_fee",
          "type": "uint16"
        },
        {
          "internalType": "address",
          "name": "_feeRecipient",
          "type": "address"
        },
        {
          "internalType": "address",
          "name": "_admin",
          "type": "address"
        }
      ],
      "stateMutability": "nonpayable",
      "type": "constructor"
    },
    {
      "anonymous": false,
      "inputs": [
        {
          "indexed": true,
          "internalType": "address",
          "name": "nft",
          "type": "address"
        },
        {
          "indexed": true,
          "internalType": "uint256",
          "name": "tokenId",
          "type": "uint256"
        },
        {
          "indexed": false,
          "internalType": "uint256",
          "name": "newPrice",
          "type": "uint256"
        },
        {
          "indexed": true,
          "internalType": "address",
          "name": "lastBidder",
          "type": "address"
        },
        {
          "indexed": false,
          "internalType": "uint256",
          "name": "endTime",
          "type": "uint256"
        }
      ],
      "name": "Bidded",
      "type": "event"
    },
    {
      "anonymous": false,
      "inputs": [
        {
          "indexed": true,
          "internalType": "address",
          "name": "nftAddress",
          "type": "address"
        },
        {
          "indexed": true,
          "internalType": "uint256",
          "name": "tokenId",
          "type": "uint256"
        },
        {
          "indexed": true,
          "internalType": "address",
          "name": "seller",
          "type": "address"
        },
        {
          "indexed": false,
          "internalType": "uint256",
          "name": "price",
          "type": "uint256"
        },
        {
          "indexed": false,
          "internalType": "uint256",
          "name": "startTime",
          "type": "uint256"
        },
        {
          "indexed": false,
          "internalType": "uint256",
          "name": "endTime",
          "type": "uint256"
        },
        {
          "indexed": false,
          "internalType": "address",
          "name": "paymentReceiver",
          "type": "address"
        }
      ],
      "name": "Listed",
      "type": "event"
    },
    {
      "anonymous": false,
      "inputs": [
        {
          "indexed": true,
          "internalType": "bytes32",
          "name": "role",
          "type": "bytes32"
        },
        {
          "indexed": true,
          "internalType": "bytes32",
          "name": "previousAdminRole",
          "type": "bytes32"
        },
        {
          "indexed": true,
          "internalType": "bytes32",
          "name": "newAdminRole",
          "type": "bytes32"
        }
      ],
      "name": "RoleAdminChanged",
      "type": "event"
    },
    {
      "anonymous": false,
      "inputs": [
        {
          "indexed": true,
          "internalType": "bytes32",
          "name": "role",
          "type": "bytes32"
        },
        {
          "indexed": true,
          "internalType": "address",
          "name": "account",
          "type": "address"
        },
        {
          "indexed": true,
          "internalType": "address",
          "name": "sender",
          "type": "address"
        }
      ],
      "name": "RoleGranted",
      "type": "event"
    },
    {
      "anonymous": false,
      "inputs": [
        {
          "indexed": true,
          "internalType": "bytes32",
          "name": "role",
          "type": "bytes32"
        },
        {
          "indexed": true,
          "internalType": "address",
          "name": "account",
          "type": "address"
        },
        {
          "indexed": true,
          "internalType": "address",
          "name": "sender",
          "type": "address"
        }
      ],
      "name": "RoleRevoked",
      "type": "event"
    },
    {
      "anonymous": false,
      "inputs": [
        {
          "indexed": false,
          "internalType": "address",
          "name": "nft",
          "type": "address"
        },
        {
          "indexed": false,
          "internalType": "uint256",
          "name": "tokenId",
          "type": "uint256"
        },
        {
          "indexed": false,
          "internalType": "uint256",
          "name": "price",
          "type": "uint256"
        },
        {
          "indexed": false,
          "internalType": "address",
          "name": "seller",
          "type": "address"
        },
        {
          "indexed": false,
          "internalType": "address",
          "name": "lastBidder",
          "type": "address"
        }
      ],
      "name": "Sold",
      "type": "event"
    },
    {
      "inputs": [],
      "name": "DEFAULT_ADMIN_ROLE",
      "outputs": [
        {
          "internalType": "bytes32",
          "name": "",
          "type": "bytes32"
        }
      ],
      "stateMutability": "view",
      "type": "function"
    },
    {
      "inputs": [
        {
          "internalType": "address",
          "name": "",
          "type": "address"
        }
      ],
      "name": "balances",
      "outputs": [
        {
          "internalType": "uint256",
          "name": "",
          "type": "uint256"
        }
      ],
      "stateMutability": "view",
      "type": "function"
    },
    {
      "inputs": [
        {
          "internalType": "address",
          "name": "_nft",
          "type": "address"
        },
        {
          "internalType": "uint256",
          "name": "_tokenId",
          "type": "uint256"
        }
      ],
      "name": "bid",
      "outputs": [],
      "stateMutability": "payable",
      "type": "function"
    },
    {
      "inputs": [
        {
          "internalType": "address",
          "name": "_nft",
          "type": "address"
        },
        {
          "internalType": "uint256",
          "name": "_tokenId",
          "type": "uint256"
        }
      ],
      "name": "claim",
      "outputs": [],
      "stateMutability": "nonpayable",
      "type": "function"
    },
    {
      "inputs": [
        {
          "internalType": "address",
          "name": "",
          "type": "address"
        },
        {
          "internalType": "uint256",
          "name": "",
          "type": "uint256"
        }
      ],
      "name": "details",
      "outputs": [
        {
          "internalType": "address",
          "name": "seller",
          "type": "address"
        },
        {
          "internalType": "uint256",
          "name": "price",
          "type": "uint256"
        },
        {
          "internalType": "uint256",
          "name": "startTime",
          "type": "uint256"
        },
        {
          "internalType": "uint256",
          "name": "endTime",
          "type": "uint256"
        },
        {
          "internalType": "address",
          "name": "lastBidder",
          "type": "address"
        },
        {
          "internalType": "address",
          "name": "paymentReceiver",
          "type": "address"
        }
      ],
      "stateMutability": "view",
      "type": "function"
    },
    {
      "inputs": [],
      "name": "emergencyWithdraw",
      "outputs": [],
      "stateMutability": "nonpayable",
      "type": "function"
    },
    {
      "inputs": [
        {
          "internalType": "bytes32",
          "name": "role",
          "type": "bytes32"
        }
      ],
      "name": "getRoleAdmin",
      "outputs": [
        {
          "internalType": "bytes32",
          "name": "",
          "type": "bytes32"
        }
      ],
      "stateMutability": "view",
      "type": "function"
    },
    {
      "inputs": [
        {
          "internalType": "bytes32",
          "name": "role",
          "type": "bytes32"
        },
        {
          "internalType": "address",
          "name": "account",
          "type": "address"
        }
      ],
      "name": "grantRole",
      "outputs": [],
      "stateMutability": "nonpayable",
      "type": "function"
    },
    {
      "inputs": [
        {
          "internalType": "bytes32",
          "name": "role",
          "type": "bytes32"
        },
        {
          "internalType": "address",
          "name": "account",
          "type": "address"
        }
      ],
      "name": "hasRole",
      "outputs": [
        {
          "internalType": "bool",
          "name": "",
          "type": "bool"
        }
      ],
      "stateMutability": "view",
      "type": "function"
    },
    {
      "inputs": [
        {
          "internalType": "address",
          "name": "_nft",
          "type": "address"
        },
        {
          "internalType": "uint256",
          "name": "_tokenId",
          "type": "uint256"
        },
        {
          "internalType": "uint256",
          "name": "_initPrice",
          "type": "uint256"
        },
        {
          "internalType": "uint256",
          "name": "_startTime",
          "type": "uint256"
        },
        {
          "internalType": "uint256",
          "name": "_endTime",
          "type": "uint256"
        },
        {
          "internalType": "address",
          "name": "_paymentReceiver",
          "type": "address"
        }
      ],
      "name": "listOnAuction",
      "outputs": [],
      "stateMutability": "nonpayable",
      "type": "function"
    },
    {
      "inputs": [
        {
          "internalType": "address",
          "name": "operator",
          "type": "address"
        },
        {
          "internalType": "address",
          "name": "from",
          "type": "address"
        },
        {
          "internalType": "uint256",
          "name": "tokenId",
          "type": "uint256"
        },
        {
          "internalType": "bytes",
          "name": "data",
          "type": "bytes"
        }
      ],
      "name": "onERC721Received",
      "outputs": [
        {
          "internalType": "bytes4",
          "name": "",
          "type": "bytes4"
        }
      ],
      "stateMutability": "pure",
      "type": "function"
    },
    {
      "inputs": [
        {
          "internalType": "bytes32",
          "name": "role",
          "type": "bytes32"
        },
        {
          "internalType": "address",
          "name": "account",
          "type": "address"
        }
      ],
      "name": "renounceRole",
      "outputs": [],
      "stateMutability": "nonpayable",
      "type": "function"
    },
    {
      "inputs": [
        {
          "internalType": "bytes32",
          "name": "role",
          "type": "bytes32"
        },
        {
          "internalType": "address",
          "name": "account",
          "type": "address"
        }
      ],
      "name": "revokeRole",
      "outputs": [],
      "stateMutability": "nonpayable",
      "type": "function"
    },
    {
      "inputs": [
        {
          "internalType": "address[]",
          "name": "_validNftAddresses",
          "type": "address[]"
        }
      ],
      "name": "setNftAddresses",
      "outputs": [],
      "stateMutability": "nonpayable",
      "type": "function"
    },
    {
      "inputs": [
        {
          "internalType": "bytes4",
          "name": "interfaceId",
          "type": "bytes4"
        }
      ],
      "name": "supportsInterface",
      "outputs": [
        {
          "internalType": "bool",
          "name": "",
          "type": "bool"
        }
      ],
      "stateMutability": "view",
      "type": "function"
    },
    {
      "inputs": [
        {
          "internalType": "uint16",
          "name": "_fee",
          "type": "uint16"
        }
      ],
      "name": "updateFee",
      "outputs": [],
      "stateMutability": "nonpayable",
      "type": "function"
    },
    {
      "inputs": [
        {
          "internalType": "address",
          "name": "_recipient",
          "type": "address"
        }
      ],
      "name": "updateFeeRecipient",
      "outputs": [],
      "stateMutability": "nonpayable",
      "type": "function"
    },
    {
      "inputs": [
        {
          "internalType": "address",
          "name": "",
          "type": "address"
        }
      ],
      "name": "validNfts",
      "outputs": [
        {
          "internalType": "bool",
          "name": "",
          "type": "bool"
        }
      ],
      "stateMutability": "view",
      "type": "function"
    },
    {
      "inputs": [
        {
          "internalType": "address",
          "name": "_address",
          "type": "address"
        }
      ],
      "name": "withdraw",
      "outputs": [],
      "stateMutability": "nonpayable",
      "type": "function"
    }
  ],
  "bytecode": "0x60806040523480156200001157600080fd5b5060405162001a7238038062001a72833981016040819052620000349162000130565b600380546001600160a01b03841662010000026001600160b01b031990911661ffff8616171790556200006960008262000072565b50505062000182565b6000828152602081815260408083206001600160a01b038516845290915290205460ff166200010f576000828152602081815260408083206001600160a01b03851684529091529020805460ff19166001179055620000ce3390565b6001600160a01b0316816001600160a01b0316837f2f8788117e7eff1d82e926ec794901d17c78024a50270940304540a733656f0d60405160405180910390a45b5050565b80516001600160a01b03811681146200012b57600080fd5b919050565b6000806000606084860312156200014657600080fd5b835161ffff811681146200015957600080fd5b9250620001696020850162000113565b9150620001796040850162000113565b90509250925092565b6118e080620001926000396000f3fe6080604052600436106101145760003560e01c806359d667a5116100a0578063c6f7dff311610064578063c6f7dff314610338578063cc05701a14610358578063d547741f146103fd578063db2e21bc1461041d578063f160d3691461043257600080fd5b806359d667a5146102a057806391d14854146102b3578063969a8ff3146102d3578063a217fddf14610303578063aad3ec961461031857600080fd5b80632c6cda93116100e75780632c6cda93146101fe5780632f2ff15d1461022057806336568abe146102405780634b12e8831461026057806351cff8d91461028057600080fd5b806301ffc9a714610119578063150b7a021461014e578063248a9ca31461019357806327e235e3146101d1575b600080fd5b34801561012557600080fd5b50610139610134366004611491565b610452565b60405190151581526020015b60405180910390f35b34801561015a57600080fd5b5061017a6101693660046114d7565b630a85bd0160e11b95945050505050565b6040516001600160e01b03199091168152602001610145565b34801561019f57600080fd5b506101c36101ae366004611572565b60009081526020819052604090206001015490565b604051908152602001610145565b3480156101dd57600080fd5b506101c36101ec36600461158b565b60046020526000908152604090205481565b34801561020a57600080fd5b5061021e6102193660046115a6565b610489565b005b34801561022c57600080fd5b5061021e61023b3660046115ca565b6104ad565b34801561024c57600080fd5b5061021e61025b3660046115ca565b6104d7565b34801561026c57600080fd5b5061021e61027b3660046115f6565b61055a565b34801561028c57600080fd5b5061021e61029b36600461158b565b6105e2565b61021e6102ae36600461166b565b6106fb565b3480156102bf57600080fd5b506101396102ce3660046115ca565b610909565b3480156102df57600080fd5b506101396102ee36600461158b565b60016020526000908152604090205460ff1681565b34801561030f57600080fd5b506101c3600081565b34801561032457600080fd5b5061021e61033336600461166b565b610932565b34801561034457600080fd5b5061021e610353366004611695565b610c9f565b34801561036457600080fd5b506103bf61037336600461166b565b600260208181526000938452604080852090915291835291208054600182015492820154600383015460048401546005909401546001600160a01b039384169594929391928216911686565b604080516001600160a01b039788168152602081019690965285019390935260608401919091528316608083015290911660a082015260c001610145565b34801561040957600080fd5b5061021e6104183660046115ca565b610fe0565b34801561042957600080fd5b5061021e611005565b34801561043e57600080fd5b5061021e61044d36600461158b565b611050565b60006001600160e01b03198216637965db0b60e01b148061048357506301ffc9a760e01b6001600160e01b03198316145b92915050565b600061049481611086565b506003805461ffff191661ffff92909216919091179055565b6000828152602081905260409020600101546104c881611086565b6104d28383611093565b505050565b6001600160a01b038116331461054c5760405162461bcd60e51b815260206004820152602f60248201527f416363657373436f6e74726f6c3a2063616e206f6e6c792072656e6f756e636560448201526e103937b632b9903337b91039b2b63360891b60648201526084015b60405180910390fd5b6105568282611117565b5050565b600061056581611086565b60005b60ff81168311156105dc57600180600086868560ff1681811061058d5761058d6116ed565b90506020020160208101906105a2919061158b565b6001600160a01b031681526020810191909152604001600020805460ff1916911515919091179055806105d481611719565b915050610568565b50505050565b6001600160a01b0381166000908152600460205260409020546106475760405162461bcd60e51b815260206004820152601d60248201527f41756374696f6e3a20496e73756666696369656e742062616c616e63650000006044820152606401610543565b6001600160a01b038116600081815260046020526040808220805490839055905190929083908381818185875af1925050503d80600081146106a5576040519150601f19603f3d011682016040523d82523d6000602084013e6106aa565b606091505b50509050806104d25760405162461bcd60e51b815260206004820152601860248201527f41756374696f6e3a205472616e73666572206661696c656400000000000000006044820152606401610543565b6001600160a01b038216600090815260016020526040902054829060ff166107655760405162461bcd60e51b815260206004820152601c60248201527f41756374696f6e3a20496e76616c6964206e66742061646472657373000000006044820152606401610543565b6001600160a01b0383166000908152600260209081526040808320858452909152902060030154839083906107dc5760405162461bcd60e51b815260206004820152601e60248201527f41756374696f6e3a204e465420697320616c7265616479206c697374656400006044820152606401610543565b6001600160a01b038581166000908152600260209081526040808320888452909152902080549091163314156108635760405162461bcd60e51b815260206004820152602660248201527f41756374696f6e3a2043616e206e6f742062696420746f20796f7572206f776e6044820152651037b93232b960d11b6064820152608401610543565b3360009081526004602052604081205461087e903490611739565b905061088a828261117c565b336000818152600460208181526040928390208590556001860185905590850180546001600160a01b03191684179055600385015482518581529182015288916001600160a01b038b16917fdf97660324e7098af73429c6919bf81a62decfc9cbd9bca9224f9b8f51452587910160405180910390a450505050505050565b6000918252602082815260408084206001600160a01b0393909316845291905290205460ff1690565b6001600160a01b038083166000908152600260208181526040808420868552825292839020835160c081018552815486168152600182015492810192909252918201549281019290925260038101546060830181905260048201548416608084015260059091015490921660a08201529042116109ae57600080fd5b80516001600160a01b0316336001600160a01b031614806109e4575060808101516001600160a01b0316336001600160a01b0316145b610a3e5760405162461bcd60e51b815260206004820152602560248201527f41756374696f6e3a20596f7520617265206e6f742077696e6e6572206f72207360448201526432b63632b960d91b6064820152608401610543565b60808101516001600160a01b0316610ac05780516040516323b872dd60e01b81523060048201526001600160a01b03918216602482015260448101849052908416906323b872dd90606401600060405180830381600087803b158015610aa357600080fd5b505af1158015610ab7573d6000803e3d6000fd5b50505050610c30565b60808101516040516323b872dd60e01b81523060048201526001600160a01b03918216602482015260448101849052908416906323b872dd90606401600060405180830381600087803b158015610b1657600080fd5b505af1158015610b2a573d6000803e3d6000fd5b50506003546020840151600093506103e89250610b4b9161ffff1690611751565b610b559190611770565b6003546201000090046001600160a01b0316600090815260046020526040812080549293508392909190610b8a908490611739565b90915550506020820151610b9f908290611792565b60a08301516001600160a01b031660009081526004602052604081208054909190610bcb908490611739565b9091555050506001600160a01b0383166000908152600260208181526040808420868552909152822080546001600160a01b03199081168255600182018490559181018390556003810192909255600482018054821690556005909101805490911690555b6020818101518251608080850151604080516001600160a01b03808b1682529681018990529081019490945291841660608401529216918101919091527f599999e3b1327df96cf7ac756ceaa3efbb71b2f020d3ec9b3fc0a30104a9af8f9060a00160405180910390a1505050565b6001600160a01b03861660009081526002602090815260408083208884529091529020600301548690869015610d175760405162461bcd60e51b815260206004820152601a60248201527f41756374696f6e3a204e4654206973206e6f74206c69737465640000000000006044820152606401610543565b6001600160a01b038816600090815260016020526040902054889060ff16610d815760405162461bcd60e51b815260206004820152601c60248201527f41756374696f6e3a20496e76616c6964206e66742061646472657373000000006044820152606401610543565b428511610dd05760405162461bcd60e51b815260206004820152601f60248201527f4475726174696f6e206d757374206265206d6f7265207468616e207a65726f006044820152606401610543565b6001600160a01b0389166323b872dd336040516001600160e01b031960e084901b1681526001600160a01b039091166004820152306024820152604481018b9052606401600060405180830381600087803b158015610e2e57600080fd5b505af1158015610e42573d6000803e3d6000fd5b505050506040518060c00160405280610e583390565b6001600160a01b0316815260200188815260200187815260200186815260200160006001600160a01b03168152602001856001600160a01b0316815250600260008b6001600160a01b03166001600160a01b0316815260200190815260200160002060008a815260200190815260200160002060008201518160000160006101000a8154816001600160a01b0302191690836001600160a01b0316021790555060208201518160010155604082015181600201556060820151816003015560808201518160040160006101000a8154816001600160a01b0302191690836001600160a01b0316021790555060a08201518160050160006101000a8154816001600160a01b0302191690836001600160a01b03160217905550905050610f7a3390565b60408051898152602081018990529081018790526001600160a01b038681166060830152918216918a91908c16907f5d923f15c3b24722eac3a508dcd6b5c9ee4f86e59a78956701609ee6ac130a809060800160405180910390a4505050505050505050565b600082815260208190526040902060010154610ffb81611086565b6104d28383611117565b600061101081611086565b60035460405147916201000090046001600160a01b0316906108fc8315029083906000818181858888f193505050501580156104d2573d6000803e3d6000fd5b600061105b81611086565b50600380546001600160a01b03909216620100000262010000600160b01b0319909216919091179055565b611090813361128a565b50565b61109d8282610909565b610556576000828152602081815260408083206001600160a01b03851684529091529020805460ff191660011790556110d33390565b6001600160a01b0316816001600160a01b0316837f2f8788117e7eff1d82e926ec794901d17c78024a50270940304540a733656f0d60405160405180910390a45050565b6111218282610909565b15610556576000828152602081815260408083206001600160a01b0385168085529252808320805460ff1916905551339285917ff6391f5c32d9c69d2a47ea670b442974b53935d1edc7fd64eb21e047a839171b9190a45050565b81600201544210156111d05760405162461bcd60e51b815260206004820181905260248201527f41756374696f6e3a2041756374696f6e20686173206e6f7420737461727465646044820152606401610543565b816003015442106112235760405162461bcd60e51b815260206004820152601960248201527f41756374696f6e3a2041756374696f6e20697320656e646564000000000000006044820152606401610543565b816001015481116105565760405162461bcd60e51b815260206004820152602b60248201527f41756374696f6e3a205072696365206d7573742062652068696768657220746860448201526a616e2070726576696f757360a81b6064820152608401610543565b6112948282610909565b610556576112ac816001600160a01b031660146112ee565b6112b78360206112ee565b6040516020016112c89291906117d5565b60408051601f198184030181529082905262461bcd60e51b82526105439160040161184a565b606060006112fd836002611751565b611308906002611739565b67ffffffffffffffff8111156113205761132061187d565b6040519080825280601f01601f19166020018201604052801561134a576020820181803683370190505b509050600360fc1b81600081518110611365576113656116ed565b60200101906001600160f81b031916908160001a905350600f60fb1b81600181518110611394576113946116ed565b60200101906001600160f81b031916908160001a90535060006113b8846002611751565b6113c3906001611739565b90505b600181111561143b576f181899199a1a9b1b9c1cb0b131b232b360811b85600f16601081106113f7576113f76116ed565b1a60f81b82828151811061140d5761140d6116ed565b60200101906001600160f81b031916908160001a90535060049490941c9361143481611893565b90506113c6565b50831561148a5760405162461bcd60e51b815260206004820181905260248201527f537472696e67733a20686578206c656e67746820696e73756666696369656e746044820152606401610543565b9392505050565b6000602082840312156114a357600080fd5b81356001600160e01b03198116811461148a57600080fd5b80356001600160a01b03811681146114d257600080fd5b919050565b6000806000806000608086880312156114ef57600080fd5b6114f8866114bb565b9450611506602087016114bb565b935060408601359250606086013567ffffffffffffffff8082111561152a57600080fd5b818801915088601f83011261153e57600080fd5b81358181111561154d57600080fd5b89602082850101111561155f57600080fd5b9699959850939650602001949392505050565b60006020828403121561158457600080fd5b5035919050565b60006020828403121561159d57600080fd5b61148a826114bb565b6000602082840312156115b857600080fd5b813561ffff8116811461148a57600080fd5b600080604083850312156115dd57600080fd5b823591506115ed602084016114bb565b90509250929050565b6000806020838503121561160957600080fd5b823567ffffffffffffffff8082111561162157600080fd5b818501915085601f83011261163557600080fd5b81358181111561164457600080fd5b8660208260051b850101111561165957600080fd5b60209290920196919550909350505050565b6000806040838503121561167e57600080fd5b611687836114bb565b946020939093013593505050565b60008060008060008060c087890312156116ae57600080fd5b6116b7876114bb565b9550602087013594506040870135935060608701359250608087013591506116e160a088016114bb565b90509295509295509295565b634e487b7160e01b600052603260045260246000fd5b634e487b7160e01b600052601160045260246000fd5b600060ff821660ff81141561173057611730611703565b60010192915050565b6000821982111561174c5761174c611703565b500190565b600081600019048311821515161561176b5761176b611703565b500290565b60008261178d57634e487b7160e01b600052601260045260246000fd5b500490565b6000828210156117a4576117a4611703565b500390565b60005b838110156117c45781810151838201526020016117ac565b838111156105dc5750506000910152565b7f416363657373436f6e74726f6c3a206163636f756e742000000000000000000081526000835161180d8160178501602088016117a9565b7001034b99036b4b9b9b4b733903937b6329607d1b601791840191820152835161183e8160288401602088016117a9565b01602801949350505050565b60208152600082518060208401526118698160408501602087016117a9565b601f01601f19169190910160400192915050565b634e487b7160e01b600052604160045260246000fd5b6000816118a2576118a2611703565b50600019019056fea264697066735822122079c6ca7c648682b1ddaf318bff7c1b555562a80a2150d9c4f1e4c3aed0d2f52964736f6c634300080a0033",
  "linkReferences": {},
  "deployedLinkReferences": {}
}