{
  "_format": "hh-sol-artifact-1",
  "contractName": "EnglishAuction",
  "sourceName": "contracts/EnglishAuction.sol",
  "abi": [
    {
      "inputs": [
        {
          "internalType": "uint16",
          "name": "_fee",
          "type": "uint16"
        },
        {
          "internalType": "address",
          "name": "_feeRecipient",
          "type": "address"
        },
        {
          "internalType": "address",
          "name": "_admin",
          "type": "address"
        }
      ],
      "stateMutability": "nonpayable",
      "type": "constructor"
    },
    {
      "anonymous": false,
      "inputs": [
        {
          "indexed": true,
          "internalType": "bytes32",
          "name": "auctionId",
          "type": "bytes32"
        },
        {
          "indexed": true,
          "internalType": "address",
          "name": "lastBidder",
          "type": "address"
        },
        {
          "indexed": false,
          "internalType": "uint256",
          "name": "newPrice",
          "type": "uint256"
        },
        {
          "indexed": false,
          "internalType": "uint256",
          "name": "endTime",
          "type": "uint256"
        }
      ],
      "name": "Bidded",
      "type": "event"
    },
    {
      "anonymous": false,
      "inputs": [
        {
          "indexed": false,
          "internalType": "bytes32",
          "name": "auctionId",
          "type": "bytes32"
        },
        {
          "indexed": false,
          "internalType": "address",
          "name": "nft",
          "type": "address"
        },
        {
          "indexed": false,
          "internalType": "uint256",
          "name": "tokenId",
          "type": "uint256"
        },
        {
          "indexed": false,
          "internalType": "address",
          "name": "claimer",
          "type": "address"
        }
      ],
      "name": "ItemClaimed",
      "type": "event"
    },
    {
      "anonymous": false,
      "inputs": [
        {
          "indexed": true,
          "internalType": "address",
          "name": "nftAddress",
          "type": "address"
        },
        {
          "indexed": true,
          "internalType": "uint256",
          "name": "tokenId",
          "type": "uint256"
        },
        {
          "indexed": true,
          "internalType": "bytes32",
          "name": "auctionId",
          "type": "bytes32"
        },
        {
          "indexed": false,
          "internalType": "address",
          "name": "seller",
          "type": "address"
        },
        {
          "indexed": false,
          "internalType": "uint256",
          "name": "price",
          "type": "uint256"
        },
        {
          "indexed": false,
          "internalType": "uint256",
          "name": "startTime",
          "type": "uint256"
        },
        {
          "indexed": false,
          "internalType": "uint256",
          "name": "endTime",
          "type": "uint256"
        },
        {
          "indexed": false,
          "internalType": "address",
          "name": "paymentReceiver",
          "type": "address"
        }
      ],
      "name": "Listed",
      "type": "event"
    },
    {
      "anonymous": false,
      "inputs": [
        {
          "indexed": false,
          "internalType": "bytes32",
          "name": "auctionId",
          "type": "bytes32"
        },
        {
          "indexed": false,
          "internalType": "uint256",
          "name": "paymentAmount",
          "type": "uint256"
        },
        {
          "indexed": false,
          "internalType": "address",
          "name": "claimer",
          "type": "address"
        }
      ],
      "name": "PaymentClaimed",
      "type": "event"
    },
    {
      "anonymous": false,
      "inputs": [
        {
          "indexed": true,
          "internalType": "bytes32",
          "name": "role",
          "type": "bytes32"
        },
        {
          "indexed": true,
          "internalType": "bytes32",
          "name": "previousAdminRole",
          "type": "bytes32"
        },
        {
          "indexed": true,
          "internalType": "bytes32",
          "name": "newAdminRole",
          "type": "bytes32"
        }
      ],
      "name": "RoleAdminChanged",
      "type": "event"
    },
    {
      "anonymous": false,
      "inputs": [
        {
          "indexed": true,
          "internalType": "bytes32",
          "name": "role",
          "type": "bytes32"
        },
        {
          "indexed": true,
          "internalType": "address",
          "name": "account",
          "type": "address"
        },
        {
          "indexed": true,
          "internalType": "address",
          "name": "sender",
          "type": "address"
        }
      ],
      "name": "RoleGranted",
      "type": "event"
    },
    {
      "anonymous": false,
      "inputs": [
        {
          "indexed": true,
          "internalType": "bytes32",
          "name": "role",
          "type": "bytes32"
        },
        {
          "indexed": true,
          "internalType": "address",
          "name": "account",
          "type": "address"
        },
        {
          "indexed": true,
          "internalType": "address",
          "name": "sender",
          "type": "address"
        }
      ],
      "name": "RoleRevoked",
      "type": "event"
    },
    {
      "inputs": [],
      "name": "DEFAULT_ADMIN_ROLE",
      "outputs": [
        {
          "internalType": "bytes32",
          "name": "",
          "type": "bytes32"
        }
      ],
      "stateMutability": "view",
      "type": "function"
    },
    {
      "inputs": [
        {
          "internalType": "bytes32",
          "name": "_auctionID",
          "type": "bytes32"
        }
      ],
      "name": "bid",
      "outputs": [],
      "stateMutability": "payable",
      "type": "function"
    },
    {
      "inputs": [
        {
          "internalType": "bytes32",
          "name": "_auctionId",
          "type": "bytes32"
        }
      ],
      "name": "claimItem",
      "outputs": [],
      "stateMutability": "nonpayable",
      "type": "function"
    },
    {
      "inputs": [
        {
          "internalType": "bytes32",
          "name": "_auctionId",
          "type": "bytes32"
        }
      ],
      "name": "claimPayment",
      "outputs": [],
      "stateMutability": "nonpayable",
      "type": "function"
    },
    {
      "inputs": [
        {
          "internalType": "bytes32",
          "name": "",
          "type": "bytes32"
        }
      ],
      "name": "details",
      "outputs": [
        {
          "internalType": "address",
          "name": "seller",
          "type": "address"
        },
        {
          "internalType": "uint256",
          "name": "price",
          "type": "uint256"
        },
        {
          "internalType": "uint256",
          "name": "startTime",
          "type": "uint256"
        },
        {
          "internalType": "uint256",
          "name": "endTime",
          "type": "uint256"
        },
        {
          "internalType": "address",
          "name": "lastBidder",
          "type": "address"
        },
        {
          "internalType": "address",
          "name": "paymentReceiver",
          "type": "address"
        },
        {
          "internalType": "uint256",
          "name": "tokenId",
          "type": "uint256"
        },
        {
          "internalType": "address",
          "name": "nft",
          "type": "address"
        },
        {
          "internalType": "bool",
          "name": "isSentPayment",
          "type": "bool"
        },
        {
          "internalType": "bool",
          "name": "isSentItem",
          "type": "bool"
        }
      ],
      "stateMutability": "view",
      "type": "function"
    },
    {
      "inputs": [],
      "name": "feeRecipientWithdraw",
      "outputs": [],
      "stateMutability": "nonpayable",
      "type": "function"
    },
    {
      "inputs": [
        {
          "internalType": "bytes32",
          "name": "role",
          "type": "bytes32"
        }
      ],
      "name": "getRoleAdmin",
      "outputs": [
        {
          "internalType": "bytes32",
          "name": "",
          "type": "bytes32"
        }
      ],
      "stateMutability": "view",
      "type": "function"
    },
    {
      "inputs": [
        {
          "internalType": "bytes32",
          "name": "role",
          "type": "bytes32"
        },
        {
          "internalType": "address",
          "name": "account",
          "type": "address"
        }
      ],
      "name": "grantRole",
      "outputs": [],
      "stateMutability": "nonpayable",
      "type": "function"
    },
    {
      "inputs": [
        {
          "internalType": "bytes32",
          "name": "role",
          "type": "bytes32"
        },
        {
          "internalType": "address",
          "name": "account",
          "type": "address"
        }
      ],
      "name": "hasRole",
      "outputs": [
        {
          "internalType": "bool",
          "name": "",
          "type": "bool"
        }
      ],
      "stateMutability": "view",
      "type": "function"
    },
    {
      "inputs": [
        {
          "internalType": "address",
          "name": "_nft",
          "type": "address"
        },
        {
          "internalType": "uint256",
          "name": "_tokenId",
          "type": "uint256"
        },
        {
          "internalType": "uint256",
          "name": "_initPrice",
          "type": "uint256"
        },
        {
          "internalType": "uint256",
          "name": "_startTime",
          "type": "uint256"
        },
        {
          "internalType": "uint256",
          "name": "_endTime",
          "type": "uint256"
        },
        {
          "internalType": "address",
          "name": "_paymentReceiver",
          "type": "address"
        },
        {
          "internalType": "uint256",
          "name": "_seed",
          "type": "uint256"
        }
      ],
      "name": "listOnAuction",
      "outputs": [],
      "stateMutability": "nonpayable",
      "type": "function"
    },
    {
      "inputs": [
        {
          "internalType": "address",
          "name": "operator",
          "type": "address"
        },
        {
          "internalType": "address",
          "name": "from",
          "type": "address"
        },
        {
          "internalType": "uint256",
          "name": "tokenId",
          "type": "uint256"
        },
        {
          "internalType": "bytes",
          "name": "data",
          "type": "bytes"
        }
      ],
      "name": "onERC721Received",
      "outputs": [
        {
          "internalType": "bytes4",
          "name": "",
          "type": "bytes4"
        }
      ],
      "stateMutability": "pure",
      "type": "function"
    },
    {
      "inputs": [
        {
          "internalType": "bytes32",
          "name": "role",
          "type": "bytes32"
        },
        {
          "internalType": "address",
          "name": "account",
          "type": "address"
        }
      ],
      "name": "renounceRole",
      "outputs": [],
      "stateMutability": "nonpayable",
      "type": "function"
    },
    {
      "inputs": [
        {
          "internalType": "bytes32",
          "name": "role",
          "type": "bytes32"
        },
        {
          "internalType": "address",
          "name": "account",
          "type": "address"
        }
      ],
      "name": "revokeRole",
      "outputs": [],
      "stateMutability": "nonpayable",
      "type": "function"
    },
    {
      "inputs": [
        {
          "internalType": "address[]",
          "name": "_validNftAddresses",
          "type": "address[]"
        }
      ],
      "name": "setNftAddresses",
      "outputs": [],
      "stateMutability": "nonpayable",
      "type": "function"
    },
    {
      "inputs": [
        {
          "internalType": "bytes4",
          "name": "interfaceId",
          "type": "bytes4"
        }
      ],
      "name": "supportsInterface",
      "outputs": [
        {
          "internalType": "bool",
          "name": "",
          "type": "bool"
        }
      ],
      "stateMutability": "view",
      "type": "function"
    },
    {
      "inputs": [
        {
          "internalType": "uint16",
          "name": "_fee",
          "type": "uint16"
        }
      ],
      "name": "updateFee",
      "outputs": [],
      "stateMutability": "nonpayable",
      "type": "function"
    },
    {
      "inputs": [
        {
          "internalType": "address",
          "name": "_recipient",
          "type": "address"
        }
      ],
      "name": "updateFeeRecipient",
      "outputs": [],
      "stateMutability": "nonpayable",
      "type": "function"
    },
    {
      "inputs": [
        {
          "internalType": "address",
          "name": "",
          "type": "address"
        }
      ],
      "name": "validNfts",
      "outputs": [
        {
          "internalType": "bool",
          "name": "",
          "type": "bool"
        }
      ],
      "stateMutability": "view",
      "type": "function"
    },
    {
      "inputs": [
        {
          "internalType": "bytes32",
          "name": "_auctionId",
          "type": "bytes32"
        },
        {
          "internalType": "address",
          "name": "_address",
          "type": "address"
        }
      ],
      "name": "withdraw",
      "outputs": [],
      "stateMutability": "nonpayable",
      "type": "function"
    }
  ],
  "bytecode": "0x60806040523480156200001157600080fd5b5060405162001ed838038062001ed8833981016040819052620000349162000130565b600480546001600160a01b03841662010000026001600160b01b031990911661ffff8616171790556200006960008262000072565b50505062000182565b6000828152602081815260408083206001600160a01b038516845290915290205460ff166200010f576000828152602081815260408083206001600160a01b03851684529091529020805460ff19166001179055620000ce3390565b6001600160a01b0316816001600160a01b0316837f2f8788117e7eff1d82e926ec794901d17c78024a50270940304540a733656f0d60405160405180910390a45b5050565b80516001600160a01b03811681146200012b57600080fd5b919050565b6000806000606084860312156200014657600080fd5b835161ffff811681146200015957600080fd5b9250620001696020850162000113565b9150620001796040850162000113565b90509250925092565b611d4680620001926000396000f3fe6080604052600436106101145760003560e01c80637f9c4439116100a0578063a217fddf11610064578063a217fddf146103fb578063b201c13314610410578063c5dede4d14610430578063d547741f14610445578063f160d3691461046557600080fd5b80637f9c44391461029357806391d14854146102b3578063957bb1e0146102d3578063969a8ff3146102e6578063982b48d11461031657600080fd5b80632c6cda93116100e75780632c6cda93146101f35780632db050d1146102135780632f2ff15d1461023357806336568abe146102535780634b12e8831461027357600080fd5b806301ffc9a714610119578063150b7a021461014e5780631b258d5014610193578063248a9ca3146101b5575b600080fd5b34801561012557600080fd5b50610139610134366004611916565b610485565b60405190151581526020015b60405180910390f35b34801561015a57600080fd5b5061017a61016936600461195c565b630a85bd0160e11b95945050505050565b6040516001600160e01b03199091168152602001610145565b34801561019f57600080fd5b506101b36101ae3660046119f7565b6104bc565b005b3480156101c157600080fd5b506101e56101d0366004611a23565b60009081526020819052604090206001015490565b604051908152602001610145565b3480156101ff57600080fd5b506101b361020e366004611a3c565b610671565b34801561021f57600080fd5b506101b361022e366004611a23565b6106ea565b34801561023f57600080fd5b506101b361024e3660046119f7565b6109a6565b34801561025f57600080fd5b506101b361026e3660046119f7565b6109d0565b34801561027f57600080fd5b506101b361028e366004611a60565b610a4e565b34801561029f57600080fd5b506101b36102ae366004611ad5565b610ad0565b3480156102bf57600080fd5b506101396102ce3660046119f7565b610ed8565b6101b36102e1366004611a23565b610f01565b3480156102f257600080fd5b50610139610301366004611b38565b60016020526000908152604090205460ff1681565b34801561032257600080fd5b5061039c610331366004611a23565b6003602081905260009182526040909120805460018201546002830154938301546004840154600585015460068601546007909601546001600160a01b039586169794969495939492841693918216929181169060ff600160a01b8204811691600160a81b9004168a565b604080516001600160a01b039b8c168152602081019a909a528901979097526060880195909552928716608087015290861660a086015260c085015290931660e083015291151561010082015290151561012082015261014001610145565b34801561040757600080fd5b506101e5600081565b34801561041c57600080fd5b506101b361042b366004611a23565b61108b565b34801561043c57600080fd5b506101b36113f1565b34801561045157600080fd5b506101b36104603660046119f7565b6114b0565b34801561047157600080fd5b506101b3610480366004611b38565b6114d5565b60006001600160e01b03198216637965db0b60e01b14806104b657506301ffc9a760e01b6001600160e01b03198316145b92915050565b60008281526002602090815260408083206001600160a01b03851684529091529020546105305760405162461bcd60e51b815260206004820152601d60248201527f41756374696f6e3a20496e73756666696369656e742062616c616e636500000060448201526064015b60405180910390fd5b6000828152600360205260409020600401546001600160a01b03828116911614156105b15760405162461bcd60e51b815260206004820152602b60248201527f41756374696f6e3a206c617374426964646572206d757374207573652027636c60448201526a185a5b49c81b595d1a1bd960aa1b6064820152608401610527565b60008281526002602090815260408083206001600160a01b038516808552925280832080549084905590519092919083908381818185875af1925050503d806000811461061a576040519150601f19603f3d011682016040523d82523d6000602084013e61061f565b606091505b505090508061066b5760405162461bcd60e51b8152602060048201526018602482015277105d58dd1a5bdb8e88151c985b9cd9995c8819985a5b195960421b6044820152606401610527565b50505050565b600061067c8161150b565b6103e88261ffff16106106d15760405162461bcd60e51b815260206004820152601e60248201527f41756374696f6e3a204665652067726561746572207468616e203130302500006044820152606401610527565b506004805461ffff191661ffff92909216919091179055565b60008181526003602081815260409283902083516101408101855281546001600160a01b03908116825260018301549382019390935260028201549481019490945291820154606084018190526004830154821660808501526005830154821660a0850152600683015460c085015260079092015490811660e084015260ff600160a01b820481161515610100850152600160a81b909104161515610120830152421161079657600080fd5b600082815260036020526040902060070154600160a01b900460ff16156107fa5760405162461bcd60e51b8152602060048201526018602482015277105d58dd1a5bdb8e88105b1c9958591e4818db185a5b595960421b6044820152606401610527565b80516001600160a01b0316336001600160a01b03161480610830575060a08101516001600160a01b0316336001600160a01b0316145b6108925760405162461bcd60e51b815260206004820152602d60248201527f41756374696f6e3a20596f75277265206e6f742073656c6c6572206f7220706160448201526c3cb6b2b73a2932b1b2b4bb32b960991b6064820152608401610527565b60045460208201516000916103e8916108af9161ffff1690611b69565b6108b99190611b88565b905080600560008282546108cd9190611baa565b909155505060208201516108e2908290611bc2565b600084815260026020908152604080832060a08701516001600160a01b0316845290915281208054909190610918908490611baa565b90915550506000838152600360209081526040909120600701805460ff60a01b1916600160a01b1790558201517f3d24c0b2c90170f508cb6da1c570d325c8ab9250c434f255f87f6b5e3af23010908490610974908490611bc2565b60a08501516040805193845260208401929092526001600160a01b0316908201526060015b60405180910390a1505050565b6000828152602081905260409020600101546109c18161150b565b6109cb8383611518565b505050565b6001600160a01b0381163314610a405760405162461bcd60e51b815260206004820152602f60248201527f416363657373436f6e74726f6c3a2063616e206f6e6c792072656e6f756e636560448201526e103937b632b9903337b91039b2b63360891b6064820152608401610527565b610a4a828261159c565b5050565b6000610a598161150b565b60005b60ff811683111561066b57600180600086868560ff16818110610a8157610a81611bd9565b9050602002016020810190610a969190611b38565b6001600160a01b031681526020810191909152604001600020805460ff191691151591909117905580610ac881611bef565b915050610a5c565b6001600160a01b038716600090815260016020526040902054879060ff16610b3a5760405162461bcd60e51b815260206004820152601c60248201527f41756374696f6e3a20496e76616c6964206e66742061646472657373000000006044820152606401610527565b428411610b9a5760405162461bcd60e51b815260206004820152602860248201527f41756374696f6e3a204475726174696f6e206d757374206265206d6f7265207460448201526768616e207a65726f60c01b6064820152608401610527565b6040805160208101849052908101889052606089811b6bffffffffffffffffffffffff1916908201526000906074016040516020818303038152906040528051906020012090506003600082815260200190815260200160002060030154600014610c405760405162461bcd60e51b8152602060048201526016602482015275105d58dd1a5bdb8e88139195081a5cc81b1a5cdd195960521b6044820152606401610527565b6001600160a01b0389166323b872dd336040516001600160e01b031960e084901b1681526001600160a01b039091166004820152306024820152604481018b9052606401600060405180830381600087803b158015610c9e57600080fd5b505af1158015610cb2573d6000803e3d6000fd5b50505050604051806101400160405280610cc93390565b6001600160a01b0316815260200188815260200187815260200186815260200160006001600160a01b03168152602001856001600160a01b031681526020018981526020018a6001600160a01b03168152602001600015158152602001600015158152506003600083815260200190815260200160002060008201518160000160006101000a8154816001600160a01b0302191690836001600160a01b0316021790555060208201518160010155604082015181600201556060820151816003015560808201518160040160006101000a8154816001600160a01b0302191690836001600160a01b0316021790555060a08201518160050160006101000a8154816001600160a01b0302191690836001600160a01b0316021790555060c0820151816006015560e08201518160070160006101000a8154816001600160a01b0302191690836001600160a01b031602179055506101008201518160070160146101000a81548160ff0219169083151502179055506101208201518160070160156101000a81548160ff02191690831515021790555090505080888a6001600160a01b03167f51f8bb5c6e7ab1f279aadd6cddc488b00d8880f7b499a4ea5d48f2121037852e610e953390565b604080516001600160a01b039283168152602081018e90529081018c9052606081018b9052908916608082015260a00160405180910390a4505050505050505050565b6000918252602082815260408084206001600160a01b0393909316845291905290205460ff1690565b600081815260036020819052604090912001548190610f625760405162461bcd60e51b815260206004820152601760248201527f41756374696f6e3a204e4654206e6f74206c69737465640000000000000000006044820152606401610527565b600082815260036020526040902080546001600160a01b0316336001600160a01b03161415610fdf5760405162461bcd60e51b8152602060048201526024808201527f41756374696f6e3a2043616e60742062696420746f20796f7572206f776e206f604482015263393232b960e11b6064820152608401610527565b6000838152600260209081526040808320338452909152812054611004903490611baa565b90506110108282611601565b60008481526002602090815260408083203380855290835292819020849055600185018490556004850180546001600160a01b03191684179055600385015481518581529283015286917f6b69a8e4371fb82e6f2ffb0d192d676a775e5e2c6961d8ac8bc8b0d1221c2ac2910160405180910390a350505050565b60008181526003602081815260409283902083516101408101855281546001600160a01b03908116825260018301549382019390935260028201549481019490945291820154606084018190526004830154821660808501526005830154821660a0850152600683015460c085015260079092015490811660e084015260ff600160a01b820481161515610100850152600160a81b909104161515610120830152421161113757600080fd5b600082815260036020526040902060070154600160a81b900460ff161561119b5760405162461bcd60e51b8152602060048201526018602482015277105d58dd1a5bdb8e88105b1c9958591e4818db185a5b595960421b6044820152606401610527565b80516000906001600160a01b0316336001600160a01b031614156112885760808201516001600160a01b0316156112095760405162461bcd60e51b8152602060048201526012602482015271105d58dd1a5bdb8e88125d195b481cdbdb1960721b6044820152606401610527565b60e0820151825160c0840151604051632142170760e11b81523060048201526001600160a01b03928316602482015260448101919091529116906342842e0e90606401600060405180830381600087803b15801561126657600080fd5b505af115801561127a573d6000803e3d6000fd5b50508351925061136d915050565b60808201516001600160a01b0316336001600160a01b0316146112ed5760405162461bcd60e51b815260206004820152601960248201527f41756374696f6e3a20596f75277265206e6f74206275796572000000000000006044820152606401610527565b60e0820151608083015160c0840151604051632142170760e11b81523060048201526001600160a01b03928316602482015260448101919091529116906342842e0e90606401600060405180830381600087803b15801561134d57600080fd5b505af1158015611361573d6000803e3d6000fd5b50505050816080015190505b60008381526003602052604090819020600701805460ff60a81b1916600160a81b17905560e083015160c084015191517fb74ea52d0f94d284598a9f7c487d5d16c134e36a24f79880e17c3c779adc7eb39261099992879290919086909384526001600160a01b039283166020850152604084019190915216606082015260800190565b60006113fc8161150b565b60058054600091829055600454604051919291620100009091046001600160a01b031690839060006040518083038185875af1925050503d806000811461145f576040519150601f19603f3d011682016040523d82523d6000602084013e611464565b606091505b50509050806109cb5760405162461bcd60e51b8152602060048201526018602482015277105d58dd1a5bdb8e88151c985b9cd9995c8819985a5b195960421b6044820152606401610527565b6000828152602081905260409020600101546114cb8161150b565b6109cb838361159c565b60006114e08161150b565b50600480546001600160a01b03909216620100000262010000600160b01b0319909216919091179055565b611515813361170f565b50565b6115228282610ed8565b610a4a576000828152602081815260408083206001600160a01b03851684529091529020805460ff191660011790556115583390565b6001600160a01b0316816001600160a01b0316837f2f8788117e7eff1d82e926ec794901d17c78024a50270940304540a733656f0d60405160405180910390a45050565b6115a68282610ed8565b15610a4a576000828152602081815260408083206001600160a01b0385168085529252808320805460ff1916905551339285917ff6391f5c32d9c69d2a47ea670b442974b53935d1edc7fd64eb21e047a839171b9190a45050565b81600201544210156116555760405162461bcd60e51b815260206004820181905260248201527f41756374696f6e3a2041756374696f6e20686173206e6f7420737461727465646044820152606401610527565b816003015442106116a85760405162461bcd60e51b815260206004820152601960248201527f41756374696f6e3a2041756374696f6e20697320656e646564000000000000006044820152606401610527565b81600101548111610a4a5760405162461bcd60e51b815260206004820152602b60248201527f41756374696f6e3a205072696365206d7573742062652068696768657220746860448201526a616e2070726576696f757360a81b6064820152608401610527565b6117198282610ed8565b610a4a57611731816001600160a01b03166014611773565b61173c836020611773565b60405160200161174d929190611c3b565b60408051601f198184030181529082905262461bcd60e51b825261052791600401611cb0565b60606000611782836002611b69565b61178d906002611baa565b67ffffffffffffffff8111156117a5576117a5611ce3565b6040519080825280601f01601f1916602001820160405280156117cf576020820181803683370190505b509050600360fc1b816000815181106117ea576117ea611bd9565b60200101906001600160f81b031916908160001a905350600f60fb1b8160018151811061181957611819611bd9565b60200101906001600160f81b031916908160001a905350600061183d846002611b69565b611848906001611baa565b90505b60018111156118c0576f181899199a1a9b1b9c1cb0b131b232b360811b85600f166010811061187c5761187c611bd9565b1a60f81b82828151811061189257611892611bd9565b60200101906001600160f81b031916908160001a90535060049490941c936118b981611cf9565b905061184b565b50831561190f5760405162461bcd60e51b815260206004820181905260248201527f537472696e67733a20686578206c656e67746820696e73756666696369656e746044820152606401610527565b9392505050565b60006020828403121561192857600080fd5b81356001600160e01b03198116811461190f57600080fd5b80356001600160a01b038116811461195757600080fd5b919050565b60008060008060006080868803121561197457600080fd5b61197d86611940565b945061198b60208701611940565b935060408601359250606086013567ffffffffffffffff808211156119af57600080fd5b818801915088601f8301126119c357600080fd5b8135818111156119d257600080fd5b8960208285010111156119e457600080fd5b9699959850939650602001949392505050565b60008060408385031215611a0a57600080fd5b82359150611a1a60208401611940565b90509250929050565b600060208284031215611a3557600080fd5b5035919050565b600060208284031215611a4e57600080fd5b813561ffff8116811461190f57600080fd5b60008060208385031215611a7357600080fd5b823567ffffffffffffffff80821115611a8b57600080fd5b818501915085601f830112611a9f57600080fd5b813581811115611aae57600080fd5b8660208260051b8501011115611ac357600080fd5b60209290920196919550909350505050565b600080600080600080600060e0888a031215611af057600080fd5b611af988611940565b965060208801359550604088013594506060880135935060808801359250611b2360a08901611940565b915060c0880135905092959891949750929550565b600060208284031215611b4a57600080fd5b61190f82611940565b634e487b7160e01b600052601160045260246000fd5b6000816000190483118215151615611b8357611b83611b53565b500290565b600082611ba557634e487b7160e01b600052601260045260246000fd5b500490565b60008219821115611bbd57611bbd611b53565b500190565b600082821015611bd457611bd4611b53565b500390565b634e487b7160e01b600052603260045260246000fd5b600060ff821660ff811415611c0657611c06611b53565b60010192915050565b60005b83811015611c2a578181015183820152602001611c12565b8381111561066b5750506000910152565b7f416363657373436f6e74726f6c3a206163636f756e7420000000000000000000815260008351611c73816017850160208801611c0f565b7001034b99036b4b9b9b4b733903937b6329607d1b6017918401918201528351611ca4816028840160208801611c0f565b01602801949350505050565b6020815260008251806020840152611ccf816040850160208701611c0f565b601f01601f19169190910160400192915050565b634e487b7160e01b600052604160045260246000fd5b600081611d0857611d08611b53565b50600019019056fea26469706673582212200622cf6dd26b85adc2f1e39be1653073fca7ba751dfde178c3da1b9726d78a1564736f6c634300080a0033",
  "linkReferences": {},
  "deployedLinkReferences": {}
}