{
  "_format": "hh-sol-artifact-1",
  "contractName": "Collection",
  "sourceName": "contracts/Collection.sol",
  "abi": [
    {
      "inputs": [
        {
          "internalType": "string",
          "name": "name_",
          "type": "string"
        },
        {
          "internalType": "string",
          "name": "symbol_",
          "type": "string"
        },
        {
          "internalType": "string",
          "name": "baseURI_",
          "type": "string"
        },
        {
          "internalType": "address",
          "name": "admin_",
          "type": "address"
        }
      ],
      "stateMutability": "nonpayable",
      "type": "constructor"
    },
    {
      "anonymous": false,
      "inputs": [
        {
          "indexed": true,
          "internalType": "address",
          "name": "owner",
          "type": "address"
        },
        {
          "indexed": true,
          "internalType": "address",
          "name": "approved",
          "type": "address"
        },
        {
          "indexed": true,
          "internalType": "uint256",
          "name": "tokenId",
          "type": "uint256"
        }
      ],
      "name": "Approval",
      "type": "event"
    },
    {
      "anonymous": false,
      "inputs": [
        {
          "indexed": true,
          "internalType": "address",
          "name": "owner",
          "type": "address"
        },
        {
          "indexed": true,
          "internalType": "address",
          "name": "operator",
          "type": "address"
        },
        {
          "indexed": false,
          "internalType": "bool",
          "name": "approved",
          "type": "bool"
        }
      ],
      "name": "ApprovalForAll",
      "type": "event"
    },
    {
      "anonymous": false,
      "inputs": [
        {
          "indexed": true,
          "internalType": "string",
          "name": "uri",
          "type": "string"
        }
      ],
      "name": "BaseURI",
      "type": "event"
    },
    {
      "anonymous": false,
      "inputs": [
        {
          "indexed": true,
          "internalType": "uint256",
          "name": "tokenId",
          "type": "uint256"
        }
      ],
      "name": "Burn",
      "type": "event"
    },
    {
      "anonymous": false,
      "inputs": [
        {
          "indexed": true,
          "internalType": "address",
          "name": "to",
          "type": "address"
        },
        {
          "indexed": true,
          "internalType": "uint256",
          "name": "tokenId",
          "type": "uint256"
        },
        {
          "indexed": true,
          "internalType": "uint16",
          "name": "rarity",
          "type": "uint16"
        }
      ],
      "name": "Mint",
      "type": "event"
    },
    {
      "anonymous": false,
      "inputs": [
        {
          "indexed": true,
          "internalType": "bytes32",
          "name": "role",
          "type": "bytes32"
        },
        {
          "indexed": true,
          "internalType": "bytes32",
          "name": "previousAdminRole",
          "type": "bytes32"
        },
        {
          "indexed": true,
          "internalType": "bytes32",
          "name": "newAdminRole",
          "type": "bytes32"
        }
      ],
      "name": "RoleAdminChanged",
      "type": "event"
    },
    {
      "anonymous": false,
      "inputs": [
        {
          "indexed": true,
          "internalType": "bytes32",
          "name": "role",
          "type": "bytes32"
        },
        {
          "indexed": true,
          "internalType": "address",
          "name": "account",
          "type": "address"
        },
        {
          "indexed": true,
          "internalType": "address",
          "name": "sender",
          "type": "address"
        }
      ],
      "name": "RoleGranted",
      "type": "event"
    },
    {
      "anonymous": false,
      "inputs": [
        {
          "indexed": true,
          "internalType": "bytes32",
          "name": "role",
          "type": "bytes32"
        },
        {
          "indexed": true,
          "internalType": "address",
          "name": "account",
          "type": "address"
        },
        {
          "indexed": true,
          "internalType": "address",
          "name": "sender",
          "type": "address"
        }
      ],
      "name": "RoleRevoked",
      "type": "event"
    },
    {
      "anonymous": false,
      "inputs": [
        {
          "indexed": true,
          "internalType": "address",
          "name": "from",
          "type": "address"
        },
        {
          "indexed": true,
          "internalType": "address",
          "name": "to",
          "type": "address"
        },
        {
          "indexed": true,
          "internalType": "uint256",
          "name": "tokenId",
          "type": "uint256"
        }
      ],
      "name": "Transfer",
      "type": "event"
    },
    {
      "inputs": [],
      "name": "DEFAULT_ADMIN_ROLE",
      "outputs": [
        {
          "internalType": "bytes32",
          "name": "",
          "type": "bytes32"
        }
      ],
      "stateMutability": "view",
      "type": "function"
    },
    {
      "inputs": [
        {
          "internalType": "address",
          "name": "to",
          "type": "address"
        },
        {
          "internalType": "uint256",
          "name": "tokenId",
          "type": "uint256"
        }
      ],
      "name": "approve",
      "outputs": [],
      "stateMutability": "nonpayable",
      "type": "function"
    },
    {
      "inputs": [
        {
          "internalType": "address",
          "name": "owner",
          "type": "address"
        }
      ],
      "name": "balanceOf",
      "outputs": [
        {
          "internalType": "uint256",
          "name": "",
          "type": "uint256"
        }
      ],
      "stateMutability": "view",
      "type": "function"
    },
    {
      "inputs": [
        {
          "internalType": "uint256",
          "name": "tokenId",
          "type": "uint256"
        }
      ],
      "name": "exists",
      "outputs": [
        {
          "internalType": "bool",
          "name": "",
          "type": "bool"
        }
      ],
      "stateMutability": "view",
      "type": "function"
    },
    {
      "inputs": [
        {
          "internalType": "uint256",
          "name": "tokenId",
          "type": "uint256"
        }
      ],
      "name": "getApproved",
      "outputs": [
        {
          "internalType": "address",
          "name": "",
          "type": "address"
        }
      ],
      "stateMutability": "view",
      "type": "function"
    },
    {
      "inputs": [
        {
          "internalType": "bytes32",
          "name": "role",
          "type": "bytes32"
        }
      ],
      "name": "getRoleAdmin",
      "outputs": [
        {
          "internalType": "bytes32",
          "name": "",
          "type": "bytes32"
        }
      ],
      "stateMutability": "view",
      "type": "function"
    },
    {
      "inputs": [
        {
          "internalType": "bytes32",
          "name": "role",
          "type": "bytes32"
        },
        {
          "internalType": "address",
          "name": "account",
          "type": "address"
        }
      ],
      "name": "grantRole",
      "outputs": [],
      "stateMutability": "nonpayable",
      "type": "function"
    },
    {
      "inputs": [
        {
          "internalType": "bytes32",
          "name": "role",
          "type": "bytes32"
        },
        {
          "internalType": "address",
          "name": "account",
          "type": "address"
        }
      ],
      "name": "hasRole",
      "outputs": [
        {
          "internalType": "bool",
          "name": "",
          "type": "bool"
        }
      ],
      "stateMutability": "view",
      "type": "function"
    },
    {
      "inputs": [
        {
          "internalType": "address",
          "name": "owner",
          "type": "address"
        },
        {
          "internalType": "address",
          "name": "operator",
          "type": "address"
        }
      ],
      "name": "isApprovedForAll",
      "outputs": [
        {
          "internalType": "bool",
          "name": "",
          "type": "bool"
        }
      ],
      "stateMutability": "view",
      "type": "function"
    },
    {
      "inputs": [
        {
          "internalType": "address",
          "name": "to",
          "type": "address"
        },
        {
          "internalType": "uint16",
          "name": "rarity",
          "type": "uint16"
        }
      ],
      "name": "mint",
      "outputs": [],
      "stateMutability": "nonpayable",
      "type": "function"
    },
    {
      "inputs": [
        {
          "internalType": "address",
          "name": "to",
          "type": "address"
        },
        {
          "internalType": "uint256",
          "name": "quantity",
          "type": "uint256"
        },
        {
          "internalType": "uint16",
          "name": "rarity",
          "type": "uint16"
        }
      ],
      "name": "mintBatch",
      "outputs": [],
      "stateMutability": "nonpayable",
      "type": "function"
    },
    {
      "inputs": [],
      "name": "name",
      "outputs": [
        {
          "internalType": "string",
          "name": "",
          "type": "string"
        }
      ],
      "stateMutability": "view",
      "type": "function"
    },
    {
      "inputs": [
        {
          "internalType": "uint256",
          "name": "tokenId",
          "type": "uint256"
        }
      ],
      "name": "ownerOf",
      "outputs": [
        {
          "internalType": "address",
          "name": "",
          "type": "address"
        }
      ],
      "stateMutability": "view",
      "type": "function"
    },
    {
      "inputs": [
        {
          "internalType": "bytes32",
          "name": "role",
          "type": "bytes32"
        },
        {
          "internalType": "address",
          "name": "account",
          "type": "address"
        }
      ],
      "name": "renounceRole",
      "outputs": [],
      "stateMutability": "nonpayable",
      "type": "function"
    },
    {
      "inputs": [
        {
          "internalType": "bytes32",
          "name": "role",
          "type": "bytes32"
        },
        {
          "internalType": "address",
          "name": "account",
          "type": "address"
        }
      ],
      "name": "revokeRole",
      "outputs": [],
      "stateMutability": "nonpayable",
      "type": "function"
    },
    {
      "inputs": [
        {
          "internalType": "address",
          "name": "from",
          "type": "address"
        },
        {
          "internalType": "address",
          "name": "to",
          "type": "address"
        },
        {
          "internalType": "uint256",
          "name": "tokenId",
          "type": "uint256"
        }
      ],
      "name": "safeTransferFrom",
      "outputs": [],
      "stateMutability": "nonpayable",
      "type": "function"
    },
    {
      "inputs": [
        {
          "internalType": "address",
          "name": "from",
          "type": "address"
        },
        {
          "internalType": "address",
          "name": "to",
          "type": "address"
        },
        {
          "internalType": "uint256",
          "name": "tokenId",
          "type": "uint256"
        },
        {
          "internalType": "bytes",
          "name": "data",
          "type": "bytes"
        }
      ],
      "name": "safeTransferFrom",
      "outputs": [],
      "stateMutability": "nonpayable",
      "type": "function"
    },
    {
      "inputs": [
        {
          "internalType": "address",
          "name": "operator",
          "type": "address"
        },
        {
          "internalType": "bool",
          "name": "approved",
          "type": "bool"
        }
      ],
      "name": "setApprovalForAll",
      "outputs": [],
      "stateMutability": "nonpayable",
      "type": "function"
    },
    {
      "inputs": [
        {
          "internalType": "string",
          "name": "uri_",
          "type": "string"
        }
      ],
      "name": "setBaseURI",
      "outputs": [],
      "stateMutability": "nonpayable",
      "type": "function"
    },
    {
      "inputs": [
        {
          "internalType": "bytes4",
          "name": "interfaceId",
          "type": "bytes4"
        }
      ],
      "name": "supportsInterface",
      "outputs": [
        {
          "internalType": "bool",
          "name": "",
          "type": "bool"
        }
      ],
      "stateMutability": "view",
      "type": "function"
    },
    {
      "inputs": [],
      "name": "symbol",
      "outputs": [
        {
          "internalType": "string",
          "name": "",
          "type": "string"
        }
      ],
      "stateMutability": "view",
      "type": "function"
    },
    {
      "inputs": [
        {
          "internalType": "uint256",
          "name": "index",
          "type": "uint256"
        }
      ],
      "name": "tokenByIndex",
      "outputs": [
        {
          "internalType": "uint256",
          "name": "",
          "type": "uint256"
        }
      ],
      "stateMutability": "view",
      "type": "function"
    },
    {
      "inputs": [
        {
          "internalType": "address",
          "name": "_address",
          "type": "address"
        }
      ],
      "name": "tokenIdByAddress",
      "outputs": [
        {
          "internalType": "uint256[]",
          "name": "",
          "type": "uint256[]"
        }
      ],
      "stateMutability": "view",
      "type": "function"
    },
    {
      "inputs": [
        {
          "internalType": "address",
          "name": "owner",
          "type": "address"
        },
        {
          "internalType": "uint256",
          "name": "index",
          "type": "uint256"
        }
      ],
      "name": "tokenOfOwnerByIndex",
      "outputs": [
        {
          "internalType": "uint256",
          "name": "",
          "type": "uint256"
        }
      ],
      "stateMutability": "view",
      "type": "function"
    },
    {
      "inputs": [
        {
          "internalType": "uint256",
          "name": "",
          "type": "uint256"
        }
      ],
      "name": "tokenRarity",
      "outputs": [
        {
          "internalType": "uint16",
          "name": "",
          "type": "uint16"
        }
      ],
      "stateMutability": "view",
      "type": "function"
    },
    {
      "inputs": [
        {
          "internalType": "uint256",
          "name": "_tokenId",
          "type": "uint256"
        }
      ],
      "name": "tokenURI",
      "outputs": [
        {
          "internalType": "string",
          "name": "",
          "type": "string"
        }
      ],
      "stateMutability": "view",
      "type": "function"
    },
    {
      "inputs": [],
      "name": "totalSupply",
      "outputs": [
        {
          "internalType": "uint256",
          "name": "",
          "type": "uint256"
        }
      ],
      "stateMutability": "view",
      "type": "function"
    },
    {
      "inputs": [
        {
          "internalType": "address",
          "name": "from",
          "type": "address"
        },
        {
          "internalType": "address",
          "name": "to",
          "type": "address"
        },
        {
          "internalType": "uint256",
          "name": "tokenId",
          "type": "uint256"
        }
      ],
      "name": "transferFrom",
      "outputs": [],
      "stateMutability": "nonpayable",
      "type": "function"
    }
  ],
  "bytecode": "0x60806040523480156200001157600080fd5b5060405162002746380380620027468339810160408190526200003491620002b4565b83838383838381600090805190602001906200005292919062000141565b5080516200006890600190602084019062000141565b50508251620000809150600b90602085019062000141565b506200008e6000826200009c565b5050505050505050620003a4565b6000828152600a602090815260408083206001600160a01b038516845290915290205460ff166200013d576000828152600a602090815260408083206001600160a01b03851684529091529020805460ff19166001179055620000fc3390565b6001600160a01b0316816001600160a01b0316837f2f8788117e7eff1d82e926ec794901d17c78024a50270940304540a733656f0d60405160405180910390a45b5050565b8280546200014f9062000367565b90600052602060002090601f016020900481019282620001735760008555620001be565b82601f106200018e57805160ff1916838001178555620001be565b82800160010185558215620001be579182015b82811115620001be578251825591602001919060010190620001a1565b50620001cc929150620001d0565b5090565b5b80821115620001cc5760008155600101620001d1565b634e487b7160e01b600052604160045260246000fd5b600082601f8301126200020f57600080fd5b81516001600160401b03808211156200022c576200022c620001e7565b604051601f8301601f19908116603f01168101908282118183101715620002575762000257620001e7565b816040528381526020925086838588010111156200027457600080fd5b600091505b8382101562000298578582018301518183018401529082019062000279565b83821115620002aa5760008385830101525b9695505050505050565b60008060008060808587031215620002cb57600080fd5b84516001600160401b0380821115620002e357600080fd5b620002f188838901620001fd565b955060208701519150808211156200030857600080fd5b6200031688838901620001fd565b945060408701519150808211156200032d57600080fd5b506200033c87828801620001fd565b606087015190935090506001600160a01b03811681146200035c57600080fd5b939692955090935050565b600181811c908216806200037c57607f821691505b602082108114156200039e57634e487b7160e01b600052602260045260246000fd5b50919050565b61239280620003b46000396000f3fe608060405234801561001057600080fd5b50600436106101c45760003560e01c80636352211e116100f9578063ad0be4bd11610097578063c87b56dd11610071578063c87b56dd146103df578063d547741f146103f2578063e8378fbf14610405578063e985e9c51461042557600080fd5b8063ad0be4bd14610382578063afb0a36914610395578063b88d4fde146103cc57600080fd5b806391d14854116100d357806391d148541461034c57806395d89b411461035f578063a217fddf14610367578063a22cb4651461036f57600080fd5b80636352211e146103135780636d9bd03e1461032657806370a082311461033957600080fd5b80632f2ff15d1161016657806342842e0e1161014057806342842e0e146102c75780634f558e79146102da5780634f6ccce7146102ed57806355f804b31461030057600080fd5b80632f2ff15d1461028e5780632f745c59146102a157806336568abe146102b457600080fd5b8063095ea7b3116101a2578063095ea7b31461023157806318160ddd1461024657806323b872dd14610258578063248a9ca31461026b57600080fd5b806301ffc9a7146101c957806306fdde03146101f1578063081812fc14610206575b600080fd5b6101dc6101d7366004611c0a565b610461565b60405190151581526020015b60405180910390f35b6101f9610472565b6040516101e89190611c7f565b610219610214366004611c92565b610504565b6040516001600160a01b0390911681526020016101e8565b61024461023f366004611cc7565b61052b565b005b6008545b6040519081526020016101e8565b610244610266366004611cf1565b610646565b61024a610279366004611c92565b6000908152600a602052604090206001015490565b61024461029c366004611d2d565b610677565b61024a6102af366004611cc7565b61069c565b6102446102c2366004611d2d565b610732565b6102446102d5366004611cf1565b6107b0565b6101dc6102e8366004611c92565b6107cb565b61024a6102fb366004611c92565b6107ea565b61024461030e366004611de5565b61087d565b610219610321366004611c92565b6108df565b610244610334366004611e40565b61093f565b61024a610347366004611e7c565b610af1565b6101dc61035a366004611d2d565b610b77565b6101f9610ba2565b61024a600081565b61024461037d366004611e97565b610bb1565b610244610390366004611ed3565b610bbc565b6103b96103a3366004611c92565b600c6020526000908152604090205461ffff1681565b60405161ffff90911681526020016101e8565b6102446103da366004611efd565b610c62565b6101f96103ed366004611c92565b610c9a565b610244610400366004611d2d565b610d30565b610418610413366004611e7c565b610d55565b6040516101e89190611f79565b6101dc610433366004611fbd565b6001600160a01b03918216600090815260056020908152604080832093909416825291909152205460ff1690565b600061046c82610df7565b92915050565b60606000805461048190611fe7565b80601f01602080910402602001604051908101604052809291908181526020018280546104ad90611fe7565b80156104fa5780601f106104cf576101008083540402835291602001916104fa565b820191906000526020600020905b8154815290600101906020018083116104dd57829003601f168201915b5050505050905090565b600061050f82610e1c565b506000908152600460205260409020546001600160a01b031690565b6000610536826108df565b9050806001600160a01b0316836001600160a01b031614156105a95760405162461bcd60e51b815260206004820152602160248201527f4552433732313a20617070726f76616c20746f2063757272656e74206f776e656044820152603960f91b60648201526084015b60405180910390fd5b336001600160a01b03821614806105c557506105c58133610433565b6106375760405162461bcd60e51b815260206004820152603e60248201527f4552433732313a20617070726f76652063616c6c6572206973206e6f7420746f60448201527f6b656e206f776e6572206e6f7220617070726f76656420666f7220616c6c000060648201526084016105a0565b6106418383610e7e565b505050565b6106503382610eec565b61066c5760405162461bcd60e51b81526004016105a090612022565b610641838383610f6b565b6000828152600a602052604090206001015461069281611112565b610641838361111c565b60006106a783610af1565b82106107095760405162461bcd60e51b815260206004820152602b60248201527f455243373231456e756d657261626c653a206f776e657220696e646578206f7560448201526a74206f6620626f756e647360a81b60648201526084016105a0565b506001600160a01b03919091166000908152600660209081526040808320938352929052205490565b6001600160a01b03811633146107a25760405162461bcd60e51b815260206004820152602f60248201527f416363657373436f6e74726f6c3a2063616e206f6e6c792072656e6f756e636560448201526e103937b632b9903337b91039b2b63360891b60648201526084016105a0565b6107ac82826111a2565b5050565b61064183838360405180602001604052806000815250610c62565b6000818152600260205260408120546001600160a01b0316151561046c565b60006107f560085490565b82106108585760405162461bcd60e51b815260206004820152602c60248201527f455243373231456e756d657261626c653a20676c6f62616c20696e646578206f60448201526b7574206f6620626f756e647360a01b60648201526084016105a0565b6008828154811061086b5761086b612070565b90600052602060002001549050919050565b600061088881611112565b815161089b90600b906020850190611b5b565b50600b6040516108ab9190612086565b604051908190038120907f01e56a02aca7f26a28165a040851ba78f30282b55ca81c63a804cdc1e2dcea7290600090a25050565b6000818152600260205260408120546001600160a01b03168061046c5760405162461bcd60e51b8152602060048201526018602482015277115490cdcc8c4e881a5b9d985b1a59081d1bdad95b88125160421b60448201526064016105a0565b600061094a81611112565b600083116109a85760405162461bcd60e51b815260206004820152602560248201527f4170653a20546f6f206d756368206c6f7720666f72206f6e65207472616e736160448201526431ba34b7b760d91b60648201526084016105a0565b6064831115610a085760405162461bcd60e51b815260206004820152602660248201527f4170653a20546f6f206d756368206461746120666f72206f6e65207472616e7360448201526530b1ba34b7b760d11b60648201526084016105a0565b6000610a1360085490565b610a1e906001612138565b905060005b84811015610ae957610a6886610a398385612138565b6040516001600160f01b031960f089901b1660208201526022015b604051602081830303815290604052611209565b83600c6000610a778486612138565b81526020810191909152604001600020805461ffff191661ffff9283161790558416610aa38284612138565b6040516001600160a01b038916907f9a2a6f18254a6b445277c4ccc7e79b71001a0a585ceb7b2ee101df78e5be36db90600090a480610ae181612150565b915050610a23565b505050505050565b60006001600160a01b038216610b5b5760405162461bcd60e51b815260206004820152602960248201527f4552433732313a2061646472657373207a65726f206973206e6f7420612076616044820152683634b21037bbb732b960b91b60648201526084016105a0565b506001600160a01b031660009081526003602052604090205490565b6000918252600a602090815260408084206001600160a01b0393909316845291905290205460ff1690565b60606001805461048190611fe7565b6107ac33838361123c565b6000610bc781611112565b6000610bd260085490565b610bdd906001612138565b6040516001600160f01b031960f086901b166020820152909150610c079085908390602201610a54565b6000818152600c6020526040808220805461ffff191661ffff87169081179091559051909183916001600160a01b038816917f9a2a6f18254a6b445277c4ccc7e79b71001a0a585ceb7b2ee101df78e5be36db91a450505050565b610c6c3383610eec565b610c885760405162461bcd60e51b81526004016105a090612022565b610c948484848461130b565b50505050565b6000818152600260205260409020546060906001600160a01b0316610cf85760405162461bcd60e51b8152602060048201526014602482015273139bdb8b595e1a5cdd185b9d081d1bdad95b925960621b60448201526064016105a0565b610d0061133e565b610d098361134d565b604051602001610d1a92919061216b565b6040516020818303038152906040529050919050565b6000828152600a6020526040902060010154610d4b81611112565b61064183836111a2565b60606000610d6283610af1565b905060008167ffffffffffffffff811115610d7f57610d7f611d59565b604051908082528060200260200182016040528015610da8578160200160208202803683370190505b50905060005b82811015610def57610dc0858261069c565b828281518110610dd257610dd2612070565b602090810291909101015280610de781612150565b915050610dae565b509392505050565b60006001600160e01b03198216637965db0b60e01b148061046c575061046c8261144b565b6000818152600260205260409020546001600160a01b0316610e7b5760405162461bcd60e51b8152602060048201526018602482015277115490cdcc8c4e881a5b9d985b1a59081d1bdad95b88125160421b60448201526064016105a0565b50565b600081815260046020526040902080546001600160a01b0319166001600160a01b0384169081179091558190610eb3826108df565b6001600160a01b03167f8c5be1e5ebec7d5bd14f71427d1e84f3dd0314c0f7b2291e5b200ac8c7c3b92560405160405180910390a45050565b600080610ef8836108df565b9050806001600160a01b0316846001600160a01b03161480610f3f57506001600160a01b0380821660009081526005602090815260408083209388168352929052205460ff165b80610f635750836001600160a01b0316610f5884610504565b6001600160a01b0316145b949350505050565b826001600160a01b0316610f7e826108df565b6001600160a01b031614610fe25760405162461bcd60e51b815260206004820152602560248201527f4552433732313a207472616e736665722066726f6d20696e636f72726563742060448201526437bbb732b960d91b60648201526084016105a0565b6001600160a01b0382166110445760405162461bcd60e51b8152602060048201526024808201527f4552433732313a207472616e7366657220746f20746865207a65726f206164646044820152637265737360e01b60648201526084016105a0565b61104f838383611470565b61105a600082610e7e565b6001600160a01b038316600090815260036020526040812080546001929061108390849061219a565b90915550506001600160a01b03821660009081526003602052604081208054600192906110b1908490612138565b909155505060008181526002602052604080822080546001600160a01b0319166001600160a01b0386811691821790925591518493918716917fddf252ad1be2c89b69c2b068fc378daa952ba7f163c4a11628f55a4df523b3ef91a4505050565b610e7b8133611528565b6111268282610b77565b6107ac576000828152600a602090815260408083206001600160a01b03851684529091529020805460ff1916600117905561115e3390565b6001600160a01b0316816001600160a01b0316837f2f8788117e7eff1d82e926ec794901d17c78024a50270940304540a733656f0d60405160405180910390a45050565b6111ac8282610b77565b156107ac576000828152600a602090815260408083206001600160a01b0385168085529252808320805460ff1916905551339285917ff6391f5c32d9c69d2a47ea670b442974b53935d1edc7fd64eb21e047a839171b9190a45050565b611213838361158c565b61122060008484846116da565b6106415760405162461bcd60e51b81526004016105a0906121b1565b816001600160a01b0316836001600160a01b0316141561129e5760405162461bcd60e51b815260206004820152601960248201527f4552433732313a20617070726f766520746f2063616c6c65720000000000000060448201526064016105a0565b6001600160a01b03838116600081815260056020908152604080832094871680845294825291829020805460ff191686151590811790915591519182527f17307eab39ab6107e8899845ad3d59bd9653f200f220920489ca2b5937696c31910160405180910390a3505050565b611316848484610f6b565b611322848484846116da565b610c945760405162461bcd60e51b81526004016105a0906121b1565b6060600b805461048190611fe7565b6060816113715750506040805180820190915260018152600360fc1b602082015290565b8160005b811561139b578061138581612150565b91506113949050600a83612219565b9150611375565b60008167ffffffffffffffff8111156113b6576113b6611d59565b6040519080825280601f01601f1916602001820160405280156113e0576020820181803683370190505b5090505b8415610f63576113f560018361219a565b9150611402600a8661222d565b61140d906030612138565b60f81b81838151811061142257611422612070565b60200101906001600160f81b031916908160001a905350611444600a86612219565b94506113e4565b60006001600160e01b0319821663780e9d6360e01b148061046c575061046c826117d8565b6001600160a01b0383166114cb576114c681600880546000838152600960205260408120829055600182018355919091527ff3f7a9fe364faab93b216da50a3214154f22a0a2b415b23a84c8169e8b636ee30155565b6114ee565b816001600160a01b0316836001600160a01b0316146114ee576114ee8382611828565b6001600160a01b03821661150557610641816118c5565b826001600160a01b0316826001600160a01b031614610641576106418282611974565b6115328282610b77565b6107ac5761154a816001600160a01b031660146119b8565b6115558360206119b8565b604051602001611566929190612241565b60408051601f198184030181529082905262461bcd60e51b82526105a091600401611c7f565b6001600160a01b0382166115e25760405162461bcd60e51b815260206004820181905260248201527f4552433732313a206d696e7420746f20746865207a65726f206164647265737360448201526064016105a0565b6000818152600260205260409020546001600160a01b0316156116475760405162461bcd60e51b815260206004820152601c60248201527f4552433732313a20746f6b656e20616c7265616479206d696e7465640000000060448201526064016105a0565b61165360008383611470565b6001600160a01b038216600090815260036020526040812080546001929061167c908490612138565b909155505060008181526002602052604080822080546001600160a01b0319166001600160a01b03861690811790915590518392907fddf252ad1be2c89b69c2b068fc378daa952ba7f163c4a11628f55a4df523b3ef908290a45050565b60006001600160a01b0384163b156117cd57604051630a85bd0160e11b81526001600160a01b0385169063150b7a029061171e9033908990889088906004016122b6565b6020604051808303816000875af1925050508015611759575060408051601f3d908101601f19168201909252611756918101906122f3565b60015b6117b3573d808015611787576040519150601f19603f3d011682016040523d82523d6000602084013e61178c565b606091505b5080516117ab5760405162461bcd60e51b81526004016105a0906121b1565b805181602001fd5b6001600160e01b031916630a85bd0160e11b149050610f63565b506001949350505050565b60006001600160e01b031982166380ac58cd60e01b148061180957506001600160e01b03198216635b5e139f60e01b145b8061046c57506301ffc9a760e01b6001600160e01b031983161461046c565b6000600161183584610af1565b61183f919061219a565b600083815260076020526040902054909150808214611892576001600160a01b03841660009081526006602090815260408083208584528252808320548484528184208190558352600790915290208190555b5060009182526007602090815260408084208490556001600160a01b039094168352600681528383209183525290812055565b6008546000906118d79060019061219a565b600083815260096020526040812054600880549394509092849081106118ff576118ff612070565b90600052602060002001549050806008838154811061192057611920612070565b600091825260208083209091019290925582815260099091526040808220849055858252812055600880548061195857611958612310565b6001900381819060005260206000200160009055905550505050565b600061197f83610af1565b6001600160a01b039093166000908152600660209081526040808320868452825280832085905593825260079052919091209190915550565b606060006119c7836002612326565b6119d2906002612138565b67ffffffffffffffff8111156119ea576119ea611d59565b6040519080825280601f01601f191660200182016040528015611a14576020820181803683370190505b509050600360fc1b81600081518110611a2f57611a2f612070565b60200101906001600160f81b031916908160001a905350600f60fb1b81600181518110611a5e57611a5e612070565b60200101906001600160f81b031916908160001a9053506000611a82846002612326565b611a8d906001612138565b90505b6001811115611b05576f181899199a1a9b1b9c1cb0b131b232b360811b85600f1660108110611ac157611ac1612070565b1a60f81b828281518110611ad757611ad7612070565b60200101906001600160f81b031916908160001a90535060049490941c93611afe81612345565b9050611a90565b508315611b545760405162461bcd60e51b815260206004820181905260248201527f537472696e67733a20686578206c656e67746820696e73756666696369656e7460448201526064016105a0565b9392505050565b828054611b6790611fe7565b90600052602060002090601f016020900481019282611b895760008555611bcf565b82601f10611ba257805160ff1916838001178555611bcf565b82800160010185558215611bcf579182015b82811115611bcf578251825591602001919060010190611bb4565b50611bdb929150611bdf565b5090565b5b80821115611bdb5760008155600101611be0565b6001600160e01b031981168114610e7b57600080fd5b600060208284031215611c1c57600080fd5b8135611b5481611bf4565b60005b83811015611c42578181015183820152602001611c2a565b83811115610c945750506000910152565b60008151808452611c6b816020860160208601611c27565b601f01601f19169290920160200192915050565b602081526000611b546020830184611c53565b600060208284031215611ca457600080fd5b5035919050565b80356001600160a01b0381168114611cc257600080fd5b919050565b60008060408385031215611cda57600080fd5b611ce383611cab565b946020939093013593505050565b600080600060608486031215611d0657600080fd5b611d0f84611cab565b9250611d1d60208501611cab565b9150604084013590509250925092565b60008060408385031215611d4057600080fd5b82359150611d5060208401611cab565b90509250929050565b634e487b7160e01b600052604160045260246000fd5b600067ffffffffffffffff80841115611d8a57611d8a611d59565b604051601f8501601f19908116603f01168101908282118183101715611db257611db2611d59565b81604052809350858152868686011115611dcb57600080fd5b858560208301376000602087830101525050509392505050565b600060208284031215611df757600080fd5b813567ffffffffffffffff811115611e0e57600080fd5b8201601f81018413611e1f57600080fd5b610f6384823560208401611d6f565b803561ffff81168114611cc257600080fd5b600080600060608486031215611e5557600080fd5b611e5e84611cab565b925060208401359150611e7360408501611e2e565b90509250925092565b600060208284031215611e8e57600080fd5b611b5482611cab565b60008060408385031215611eaa57600080fd5b611eb383611cab565b915060208301358015158114611ec857600080fd5b809150509250929050565b60008060408385031215611ee657600080fd5b611eef83611cab565b9150611d5060208401611e2e565b60008060008060808587031215611f1357600080fd5b611f1c85611cab565b9350611f2a60208601611cab565b925060408501359150606085013567ffffffffffffffff811115611f4d57600080fd5b8501601f81018713611f5e57600080fd5b611f6d87823560208401611d6f565b91505092959194509250565b6020808252825182820181905260009190848201906040850190845b81811015611fb157835183529284019291840191600101611f95565b50909695505050505050565b60008060408385031215611fd057600080fd5b611fd983611cab565b9150611d5060208401611cab565b600181811c90821680611ffb57607f821691505b6020821081141561201c57634e487b7160e01b600052602260045260246000fd5b50919050565b6020808252602e908201527f4552433732313a2063616c6c6572206973206e6f7420746f6b656e206f776e6560408201526d1c881b9bdc88185c1c1c9bdd995960921b606082015260800190565b634e487b7160e01b600052603260045260246000fd5b600080835481600182811c9150808316806120a257607f831692505b60208084108214156120c257634e487b7160e01b86526022600452602486fd5b8180156120d657600181146120e757612114565b60ff19861689528489019650612114565b60008a81526020902060005b8681101561210c5781548b8201529085019083016120f3565b505084890196505b509498975050505050505050565b634e487b7160e01b600052601160045260246000fd5b6000821982111561214b5761214b612122565b500190565b600060001982141561216457612164612122565b5060010190565b6000835161217d818460208801611c27565b835190830190612191818360208801611c27565b01949350505050565b6000828210156121ac576121ac612122565b500390565b60208082526032908201527f4552433732313a207472616e7366657220746f206e6f6e20455243373231526560408201527131b2b4bb32b91034b6b83632b6b2b73a32b960711b606082015260800190565b634e487b7160e01b600052601260045260246000fd5b60008261222857612228612203565b500490565b60008261223c5761223c612203565b500690565b7f416363657373436f6e74726f6c3a206163636f756e7420000000000000000000815260008351612279816017850160208801611c27565b7001034b99036b4b9b9b4b733903937b6329607d1b60179184019182015283516122aa816028840160208801611c27565b01602801949350505050565b6001600160a01b03858116825284166020820152604081018390526080606082018190526000906122e990830184611c53565b9695505050505050565b60006020828403121561230557600080fd5b8151611b5481611bf4565b634e487b7160e01b600052603160045260246000fd5b600081600019048311821515161561234057612340612122565b500290565b60008161235457612354612122565b50600019019056fea264697066735822122040d0f78dafa2ae592a5b51b2baff7510dea735cd756797115d3bf718eb7c578764736f6c634300080a0033",
  "linkReferences": {},
  "deployedLinkReferences": {}
}