{
  "_format": "hh-sol-artifact-1",
  "contractName": "Collection",
  "sourceName": "contracts/Collection.sol",
  "abi": [
    {
      "inputs": [
        {
          "internalType": "string",
          "name": "name_",
          "type": "string"
        },
        {
          "internalType": "string",
          "name": "symbol_",
          "type": "string"
        },
        {
          "internalType": "string",
          "name": "baseURI_",
          "type": "string"
        },
        {
          "internalType": "address",
          "name": "admin_",
          "type": "address"
        }
      ],
      "stateMutability": "nonpayable",
      "type": "constructor"
    },
    {
      "anonymous": false,
      "inputs": [
        {
          "indexed": true,
          "internalType": "address",
          "name": "owner",
          "type": "address"
        },
        {
          "indexed": true,
          "internalType": "address",
          "name": "approved",
          "type": "address"
        },
        {
          "indexed": true,
          "internalType": "uint256",
          "name": "tokenId",
          "type": "uint256"
        }
      ],
      "name": "Approval",
      "type": "event"
    },
    {
      "anonymous": false,
      "inputs": [
        {
          "indexed": true,
          "internalType": "address",
          "name": "owner",
          "type": "address"
        },
        {
          "indexed": true,
          "internalType": "address",
          "name": "operator",
          "type": "address"
        },
        {
          "indexed": false,
          "internalType": "bool",
          "name": "approved",
          "type": "bool"
        }
      ],
      "name": "ApprovalForAll",
      "type": "event"
    },
    {
      "anonymous": false,
      "inputs": [
        {
          "indexed": true,
          "internalType": "string",
          "name": "uri",
          "type": "string"
        }
      ],
      "name": "BaseURI",
      "type": "event"
    },
    {
      "anonymous": false,
      "inputs": [
        {
          "indexed": true,
          "internalType": "uint256",
          "name": "tokenId",
          "type": "uint256"
        }
      ],
      "name": "Burn",
      "type": "event"
    },
    {
      "anonymous": false,
      "inputs": [
        {
          "indexed": true,
          "internalType": "address",
          "name": "to",
          "type": "address"
        },
        {
          "indexed": true,
          "internalType": "uint256",
          "name": "tokenId",
          "type": "uint256"
        },
        {
          "indexed": true,
          "internalType": "uint16",
          "name": "rare",
          "type": "uint16"
        }
      ],
      "name": "Mint",
      "type": "event"
    },
    {
      "anonymous": false,
      "inputs": [
        {
          "indexed": true,
          "internalType": "bytes32",
          "name": "role",
          "type": "bytes32"
        },
        {
          "indexed": true,
          "internalType": "bytes32",
          "name": "previousAdminRole",
          "type": "bytes32"
        },
        {
          "indexed": true,
          "internalType": "bytes32",
          "name": "newAdminRole",
          "type": "bytes32"
        }
      ],
      "name": "RoleAdminChanged",
      "type": "event"
    },
    {
      "anonymous": false,
      "inputs": [
        {
          "indexed": true,
          "internalType": "bytes32",
          "name": "role",
          "type": "bytes32"
        },
        {
          "indexed": true,
          "internalType": "address",
          "name": "account",
          "type": "address"
        },
        {
          "indexed": true,
          "internalType": "address",
          "name": "sender",
          "type": "address"
        }
      ],
      "name": "RoleGranted",
      "type": "event"
    },
    {
      "anonymous": false,
      "inputs": [
        {
          "indexed": true,
          "internalType": "bytes32",
          "name": "role",
          "type": "bytes32"
        },
        {
          "indexed": true,
          "internalType": "address",
          "name": "account",
          "type": "address"
        },
        {
          "indexed": true,
          "internalType": "address",
          "name": "sender",
          "type": "address"
        }
      ],
      "name": "RoleRevoked",
      "type": "event"
    },
    {
      "anonymous": false,
      "inputs": [
        {
          "indexed": true,
          "internalType": "address",
          "name": "from",
          "type": "address"
        },
        {
          "indexed": true,
          "internalType": "address",
          "name": "to",
          "type": "address"
        },
        {
          "indexed": true,
          "internalType": "uint256",
          "name": "tokenId",
          "type": "uint256"
        }
      ],
      "name": "Transfer",
      "type": "event"
    },
    {
      "inputs": [],
      "name": "DEFAULT_ADMIN_ROLE",
      "outputs": [
        {
          "internalType": "bytes32",
          "name": "",
          "type": "bytes32"
        }
      ],
      "stateMutability": "view",
      "type": "function"
    },
    {
      "inputs": [],
      "name": "ROUTER_ROLE",
      "outputs": [
        {
          "internalType": "bytes32",
          "name": "",
          "type": "bytes32"
        }
      ],
      "stateMutability": "view",
      "type": "function"
    },
    {
      "inputs": [
        {
          "internalType": "address",
          "name": "to",
          "type": "address"
        },
        {
          "internalType": "uint256",
          "name": "tokenId",
          "type": "uint256"
        }
      ],
      "name": "approve",
      "outputs": [],
      "stateMutability": "nonpayable",
      "type": "function"
    },
    {
      "inputs": [
        {
          "internalType": "address",
          "name": "owner",
          "type": "address"
        }
      ],
      "name": "balanceOf",
      "outputs": [
        {
          "internalType": "uint256",
          "name": "",
          "type": "uint256"
        }
      ],
      "stateMutability": "view",
      "type": "function"
    },
    {
      "inputs": [
        {
          "internalType": "uint256",
          "name": "tokenId",
          "type": "uint256"
        }
      ],
      "name": "exists",
      "outputs": [
        {
          "internalType": "bool",
          "name": "",
          "type": "bool"
        }
      ],
      "stateMutability": "view",
      "type": "function"
    },
    {
      "inputs": [
        {
          "internalType": "uint256",
          "name": "tokenId",
          "type": "uint256"
        }
      ],
      "name": "getApproved",
      "outputs": [
        {
          "internalType": "address",
          "name": "",
          "type": "address"
        }
      ],
      "stateMutability": "view",
      "type": "function"
    },
    {
      "inputs": [
        {
          "internalType": "bytes32",
          "name": "role",
          "type": "bytes32"
        }
      ],
      "name": "getRoleAdmin",
      "outputs": [
        {
          "internalType": "bytes32",
          "name": "",
          "type": "bytes32"
        }
      ],
      "stateMutability": "view",
      "type": "function"
    },
    {
      "inputs": [
        {
          "internalType": "bytes32",
          "name": "role",
          "type": "bytes32"
        },
        {
          "internalType": "address",
          "name": "account",
          "type": "address"
        }
      ],
      "name": "grantRole",
      "outputs": [],
      "stateMutability": "nonpayable",
      "type": "function"
    },
    {
      "inputs": [
        {
          "internalType": "bytes32",
          "name": "role",
          "type": "bytes32"
        },
        {
          "internalType": "address",
          "name": "account",
          "type": "address"
        }
      ],
      "name": "hasRole",
      "outputs": [
        {
          "internalType": "bool",
          "name": "",
          "type": "bool"
        }
      ],
      "stateMutability": "view",
      "type": "function"
    },
    {
      "inputs": [
        {
          "internalType": "address",
          "name": "owner",
          "type": "address"
        },
        {
          "internalType": "address",
          "name": "operator",
          "type": "address"
        }
      ],
      "name": "isApprovedForAll",
      "outputs": [
        {
          "internalType": "bool",
          "name": "",
          "type": "bool"
        }
      ],
      "stateMutability": "view",
      "type": "function"
    },
    {
      "inputs": [
        {
          "internalType": "address",
          "name": "to",
          "type": "address"
        },
        {
          "internalType": "uint16",
          "name": "rarity",
          "type": "uint16"
        }
      ],
      "name": "mint",
      "outputs": [],
      "stateMutability": "nonpayable",
      "type": "function"
    },
    {
      "inputs": [
        {
          "internalType": "address",
          "name": "to",
          "type": "address"
        },
        {
          "internalType": "uint256",
          "name": "quantity",
          "type": "uint256"
        },
        {
          "internalType": "uint16",
          "name": "rarity",
          "type": "uint16"
        }
      ],
      "name": "mintBatch",
      "outputs": [],
      "stateMutability": "nonpayable",
      "type": "function"
    },
    {
      "inputs": [],
      "name": "name",
      "outputs": [
        {
          "internalType": "string",
          "name": "",
          "type": "string"
        }
      ],
      "stateMutability": "view",
      "type": "function"
    },
    {
      "inputs": [
        {
          "internalType": "uint256",
          "name": "tokenId",
          "type": "uint256"
        }
      ],
      "name": "ownerOf",
      "outputs": [
        {
          "internalType": "address",
          "name": "",
          "type": "address"
        }
      ],
      "stateMutability": "view",
      "type": "function"
    },
    {
      "inputs": [
        {
          "internalType": "bytes32",
          "name": "role",
          "type": "bytes32"
        },
        {
          "internalType": "address",
          "name": "account",
          "type": "address"
        }
      ],
      "name": "renounceRole",
      "outputs": [],
      "stateMutability": "nonpayable",
      "type": "function"
    },
    {
      "inputs": [
        {
          "internalType": "bytes32",
          "name": "role",
          "type": "bytes32"
        },
        {
          "internalType": "address",
          "name": "account",
          "type": "address"
        }
      ],
      "name": "revokeRole",
      "outputs": [],
      "stateMutability": "nonpayable",
      "type": "function"
    },
    {
      "inputs": [
        {
          "internalType": "address",
          "name": "from",
          "type": "address"
        },
        {
          "internalType": "address",
          "name": "to",
          "type": "address"
        },
        {
          "internalType": "uint256",
          "name": "tokenId",
          "type": "uint256"
        }
      ],
      "name": "safeTransferFrom",
      "outputs": [],
      "stateMutability": "nonpayable",
      "type": "function"
    },
    {
      "inputs": [
        {
          "internalType": "address",
          "name": "from",
          "type": "address"
        },
        {
          "internalType": "address",
          "name": "to",
          "type": "address"
        },
        {
          "internalType": "uint256",
          "name": "tokenId",
          "type": "uint256"
        },
        {
          "internalType": "bytes",
          "name": "data",
          "type": "bytes"
        }
      ],
      "name": "safeTransferFrom",
      "outputs": [],
      "stateMutability": "nonpayable",
      "type": "function"
    },
    {
      "inputs": [
        {
          "internalType": "address",
          "name": "operator",
          "type": "address"
        },
        {
          "internalType": "bool",
          "name": "approved",
          "type": "bool"
        }
      ],
      "name": "setApprovalForAll",
      "outputs": [],
      "stateMutability": "nonpayable",
      "type": "function"
    },
    {
      "inputs": [
        {
          "internalType": "string",
          "name": "uri_",
          "type": "string"
        }
      ],
      "name": "setBaseURI",
      "outputs": [],
      "stateMutability": "nonpayable",
      "type": "function"
    },
    {
      "inputs": [
        {
          "internalType": "bytes4",
          "name": "interfaceId",
          "type": "bytes4"
        }
      ],
      "name": "supportsInterface",
      "outputs": [
        {
          "internalType": "bool",
          "name": "",
          "type": "bool"
        }
      ],
      "stateMutability": "view",
      "type": "function"
    },
    {
      "inputs": [],
      "name": "symbol",
      "outputs": [
        {
          "internalType": "string",
          "name": "",
          "type": "string"
        }
      ],
      "stateMutability": "view",
      "type": "function"
    },
    {
      "inputs": [
        {
          "internalType": "uint256",
          "name": "index",
          "type": "uint256"
        }
      ],
      "name": "tokenByIndex",
      "outputs": [
        {
          "internalType": "uint256",
          "name": "",
          "type": "uint256"
        }
      ],
      "stateMutability": "view",
      "type": "function"
    },
    {
      "inputs": [
        {
          "internalType": "address",
          "name": "_address",
          "type": "address"
        }
      ],
      "name": "tokenIdByAddress",
      "outputs": [
        {
          "internalType": "uint256[]",
          "name": "",
          "type": "uint256[]"
        }
      ],
      "stateMutability": "view",
      "type": "function"
    },
    {
      "inputs": [
        {
          "internalType": "address",
          "name": "owner",
          "type": "address"
        },
        {
          "internalType": "uint256",
          "name": "index",
          "type": "uint256"
        }
      ],
      "name": "tokenOfOwnerByIndex",
      "outputs": [
        {
          "internalType": "uint256",
          "name": "",
          "type": "uint256"
        }
      ],
      "stateMutability": "view",
      "type": "function"
    },
    {
      "inputs": [
        {
          "internalType": "uint256",
          "name": "",
          "type": "uint256"
        }
      ],
      "name": "tokenRarity",
      "outputs": [
        {
          "internalType": "uint16",
          "name": "",
          "type": "uint16"
        }
      ],
      "stateMutability": "view",
      "type": "function"
    },
    {
      "inputs": [
        {
          "internalType": "uint256",
          "name": "_tokenId",
          "type": "uint256"
        }
      ],
      "name": "tokenURI",
      "outputs": [
        {
          "internalType": "string",
          "name": "",
          "type": "string"
        }
      ],
      "stateMutability": "view",
      "type": "function"
    },
    {
      "inputs": [],
      "name": "totalSupply",
      "outputs": [
        {
          "internalType": "uint256",
          "name": "",
          "type": "uint256"
        }
      ],
      "stateMutability": "view",
      "type": "function"
    },
    {
      "inputs": [
        {
          "internalType": "address",
          "name": "from",
          "type": "address"
        },
        {
          "internalType": "address",
          "name": "to",
          "type": "address"
        },
        {
          "internalType": "uint256",
          "name": "tokenId",
          "type": "uint256"
        }
      ],
      "name": "transferFrom",
      "outputs": [],
      "stateMutability": "nonpayable",
      "type": "function"
    }
  ],
  "bytecode": "0x60806040523480156200001157600080fd5b506040516200274a3803806200274a8339810160408190526200003491620002b4565b83838383838381600090805190602001906200005292919062000141565b5080516200006890600190602084019062000141565b50508251620000809150600b90602085019062000141565b506200008e6000826200009c565b5050505050505050620003a4565b6000828152600a602090815260408083206001600160a01b038516845290915290205460ff166200013d576000828152600a602090815260408083206001600160a01b03851684529091529020805460ff19166001179055620000fc3390565b6001600160a01b0316816001600160a01b0316837f2f8788117e7eff1d82e926ec794901d17c78024a50270940304540a733656f0d60405160405180910390a45b5050565b8280546200014f9062000367565b90600052602060002090601f016020900481019282620001735760008555620001be565b82601f106200018e57805160ff1916838001178555620001be565b82800160010185558215620001be579182015b82811115620001be578251825591602001919060010190620001a1565b50620001cc929150620001d0565b5090565b5b80821115620001cc5760008155600101620001d1565b634e487b7160e01b600052604160045260246000fd5b600082601f8301126200020f57600080fd5b81516001600160401b03808211156200022c576200022c620001e7565b604051601f8301601f19908116603f01168101908282118183101715620002575762000257620001e7565b816040528381526020925086838588010111156200027457600080fd5b600091505b8382101562000298578582018301518183018401529082019062000279565b83821115620002aa5760008385830101525b9695505050505050565b60008060008060808587031215620002cb57600080fd5b84516001600160401b0380821115620002e357600080fd5b620002f188838901620001fd565b955060208701519150808211156200030857600080fd5b6200031688838901620001fd565b945060408701519150808211156200032d57600080fd5b506200033c87828801620001fd565b606087015190935090506001600160a01b03811681146200035c57600080fd5b939692955090935050565b600181811c908216806200037c57607f821691505b602082108114156200039e57634e487b7160e01b600052602260045260246000fd5b50919050565b61239680620003b46000396000f3fe608060405234801561001057600080fd5b50600436106101cf5760003560e01c806355f804b311610104578063a22cb465116100a2578063c87b56dd11610071578063c87b56dd14610411578063d547741f14610424578063e8378fbf14610437578063e985e9c51461045757600080fd5b8063a22cb465146103a1578063ad0be4bd146103b4578063afb0a369146103c7578063b88d4fde146103fe57600080fd5b806370a08231116100de57806370a082311461036b57806391d148541461037e57806395d89b4114610391578063a217fddf1461039957600080fd5b806355f804b3146103325780636352211e146103455780636d9bd03e1461035857600080fd5b80632f2ff15d1161017157806336568abe1161014b57806336568abe146102e657806342842e0e146102f95780634f558e791461030c5780634f6ccce71461031f57600080fd5b80632f2ff15d146102995780632f745c59146102ac57806330d643b5146102bf57600080fd5b8063095ea7b3116101ad578063095ea7b31461023c57806318160ddd1461025157806323b872dd14610263578063248a9ca31461027657600080fd5b806301ffc9a7146101d457806306fdde03146101fc578063081812fc14610211575b600080fd5b6101e76101e2366004611c0e565b610493565b60405190151581526020015b60405180910390f35b6102046104a4565b6040516101f39190611c83565b61022461021f366004611c96565b610536565b6040516001600160a01b0390911681526020016101f3565b61024f61024a366004611ccb565b61055d565b005b6008545b6040519081526020016101f3565b61024f610271366004611cf5565b610678565b610255610284366004611c96565b6000908152600a602052604090206001015490565b61024f6102a7366004611d31565b6106a9565b6102556102ba366004611ccb565b6106ce565b6102557f7a05a596cb0ce7fdea8a1e1ec73be300bdb35097c944ce1897202f7a13122eb281565b61024f6102f4366004611d31565b610764565b61024f610307366004611cf5565b6107e2565b6101e761031a366004611c96565b6107fd565b61025561032d366004611c96565b61081c565b61024f610340366004611de9565b6108af565b610224610353366004611c96565b610911565b61024f610366366004611e44565b610971565b610255610379366004611e80565b610af9565b6101e761038c366004611d31565b610b7f565b610204610baa565b610255600081565b61024f6103af366004611e9b565b610bb9565b61024f6103c2366004611ed7565b610bc4565b6103eb6103d5366004611c96565b600c6020526000908152604090205461ffff1681565b60405161ffff90911681526020016101f3565b61024f61040c366004611f01565b610c4c565b61020461041f366004611c96565b610c84565b61024f610432366004611d31565b610d1a565b61044a610445366004611e80565b610d3f565b6040516101f39190611f7d565b6101e7610465366004611fc1565b6001600160a01b03918216600090815260056020908152604080832093909416825291909152205460ff1690565b600061049e82610de1565b92915050565b6060600080546104b390611feb565b80601f01602080910402602001604051908101604052809291908181526020018280546104df90611feb565b801561052c5780601f106105015761010080835404028352916020019161052c565b820191906000526020600020905b81548152906001019060200180831161050f57829003601f168201915b5050505050905090565b600061054182610e06565b506000908152600460205260409020546001600160a01b031690565b600061056882610911565b9050806001600160a01b0316836001600160a01b031614156105db5760405162461bcd60e51b815260206004820152602160248201527f4552433732313a20617070726f76616c20746f2063757272656e74206f776e656044820152603960f91b60648201526084015b60405180910390fd5b336001600160a01b03821614806105f757506105f78133610465565b6106695760405162461bcd60e51b815260206004820152603e60248201527f4552433732313a20617070726f76652063616c6c6572206973206e6f7420746f60448201527f6b656e206f776e6572206e6f7220617070726f76656420666f7220616c6c000060648201526084016105d2565b6106738383610e68565b505050565b6106823382610ed6565b61069e5760405162461bcd60e51b81526004016105d290612026565b610673838383610f55565b6000828152600a60205260409020600101546106c4816110fc565b6106738383611106565b60006106d983610af9565b821061073b5760405162461bcd60e51b815260206004820152602b60248201527f455243373231456e756d657261626c653a206f776e657220696e646578206f7560448201526a74206f6620626f756e647360a81b60648201526084016105d2565b506001600160a01b03919091166000908152600660209081526040808320938352929052205490565b6001600160a01b03811633146107d45760405162461bcd60e51b815260206004820152602f60248201527f416363657373436f6e74726f6c3a2063616e206f6e6c792072656e6f756e636560448201526e103937b632b9903337b91039b2b63360891b60648201526084016105d2565b6107de828261118c565b5050565b61067383838360405180602001604052806000815250610c4c565b6000818152600260205260408120546001600160a01b0316151561049e565b600061082760085490565b821061088a5760405162461bcd60e51b815260206004820152602c60248201527f455243373231456e756d657261626c653a20676c6f62616c20696e646578206f60448201526b7574206f6620626f756e647360a01b60648201526084016105d2565b6008828154811061089d5761089d612074565b90600052602060002001549050919050565b60006108ba816110fc565b81516108cd90600b906020850190611b5f565b50600b6040516108dd919061208a565b604051908190038120907f01e56a02aca7f26a28165a040851ba78f30282b55ca81c63a804cdc1e2dcea7290600090a25050565b6000818152600260205260408120546001600160a01b03168061049e5760405162461bcd60e51b8152602060048201526018602482015277115490cdcc8c4e881a5b9d985b1a59081d1bdad95b88125160421b60448201526064016105d2565b600061097c816110fc565b600083116109da5760405162461bcd60e51b815260206004820152602560248201527f4170653a20546f6f206d756368206c6f7720666f72206f6e65207472616e736160448201526431ba34b7b760d91b60648201526084016105d2565b6064831115610a3a5760405162461bcd60e51b815260206004820152602660248201527f4170653a20546f6f206d756368206461746120666f72206f6e65207472616e7360448201526530b1ba34b7b760d11b60648201526084016105d2565b6000610a4560085490565b610a5090600161213c565b905060005b84811015610af157610a7086610a6b838561213c565b6111f3565b83600c6000610a7f848661213c565b81526020810191909152604001600020805461ffff191661ffff9283161790558416610aab828461213c565b6040516001600160a01b038916907f9a2a6f18254a6b445277c4ccc7e79b71001a0a585ceb7b2ee101df78e5be36db90600090a480610ae981612154565b915050610a55565b505050505050565b60006001600160a01b038216610b635760405162461bcd60e51b815260206004820152602960248201527f4552433732313a2061646472657373207a65726f206973206e6f7420612076616044820152683634b21037bbb732b960b91b60648201526084016105d2565b506001600160a01b031660009081526003602052604090205490565b6000918252600a602090815260408084206001600160a01b0393909316845291905290205460ff1690565b6060600180546104b390611feb565b6107de33838361120d565b6000610bcf816110fc565b6000610bda60085490565b610be590600161213c565b9050610bf184826111f3565b6000818152600c6020526040808220805461ffff191661ffff87169081179091559051909183916001600160a01b038816917f9a2a6f18254a6b445277c4ccc7e79b71001a0a585ceb7b2ee101df78e5be36db91a450505050565b610c563383610ed6565b610c725760405162461bcd60e51b81526004016105d290612026565b610c7e848484846112dc565b50505050565b6000818152600260205260409020546060906001600160a01b0316610ce25760405162461bcd60e51b8152602060048201526014602482015273139bdb8b595e1a5cdd185b9d081d1bdad95b925960621b60448201526064016105d2565b610cea61130f565b610cf38361131e565b604051602001610d0492919061216f565b6040516020818303038152906040529050919050565b6000828152600a6020526040902060010154610d35816110fc565b610673838361118c565b60606000610d4c83610af9565b905060008167ffffffffffffffff811115610d6957610d69611d5d565b604051908082528060200260200182016040528015610d92578160200160208202803683370190505b50905060005b82811015610dd957610daa85826106ce565b828281518110610dbc57610dbc612074565b602090810291909101015280610dd181612154565b915050610d98565b509392505050565b60006001600160e01b03198216637965db0b60e01b148061049e575061049e8261141c565b6000818152600260205260409020546001600160a01b0316610e655760405162461bcd60e51b8152602060048201526018602482015277115490cdcc8c4e881a5b9d985b1a59081d1bdad95b88125160421b60448201526064016105d2565b50565b600081815260046020526040902080546001600160a01b0319166001600160a01b0384169081179091558190610e9d82610911565b6001600160a01b03167f8c5be1e5ebec7d5bd14f71427d1e84f3dd0314c0f7b2291e5b200ac8c7c3b92560405160405180910390a45050565b600080610ee283610911565b9050806001600160a01b0316846001600160a01b03161480610f2957506001600160a01b0380821660009081526005602090815260408083209388168352929052205460ff165b80610f4d5750836001600160a01b0316610f4284610536565b6001600160a01b0316145b949350505050565b826001600160a01b0316610f6882610911565b6001600160a01b031614610fcc5760405162461bcd60e51b815260206004820152602560248201527f4552433732313a207472616e736665722066726f6d20696e636f72726563742060448201526437bbb732b960d91b60648201526084016105d2565b6001600160a01b03821661102e5760405162461bcd60e51b8152602060048201526024808201527f4552433732313a207472616e7366657220746f20746865207a65726f206164646044820152637265737360e01b60648201526084016105d2565b611039838383611441565b611044600082610e68565b6001600160a01b038316600090815260036020526040812080546001929061106d90849061219e565b90915550506001600160a01b038216600090815260036020526040812080546001929061109b90849061213c565b909155505060008181526002602052604080822080546001600160a01b0319166001600160a01b0386811691821790925591518493918716917fddf252ad1be2c89b69c2b068fc378daa952ba7f163c4a11628f55a4df523b3ef91a4505050565b610e6581336114f9565b6111108282610b7f565b6107de576000828152600a602090815260408083206001600160a01b03851684529091529020805460ff191660011790556111483390565b6001600160a01b0316816001600160a01b0316837f2f8788117e7eff1d82e926ec794901d17c78024a50270940304540a733656f0d60405160405180910390a45050565b6111968282610b7f565b156107de576000828152600a602090815260408083206001600160a01b0385168085529252808320805460ff1916905551339285917ff6391f5c32d9c69d2a47ea670b442974b53935d1edc7fd64eb21e047a839171b9190a45050565b6107de82826040518060200160405280600081525061155d565b816001600160a01b0316836001600160a01b0316141561126f5760405162461bcd60e51b815260206004820152601960248201527f4552433732313a20617070726f766520746f2063616c6c65720000000000000060448201526064016105d2565b6001600160a01b03838116600081815260056020908152604080832094871680845294825291829020805460ff191686151590811790915591519182527f17307eab39ab6107e8899845ad3d59bd9653f200f220920489ca2b5937696c31910160405180910390a3505050565b6112e7848484610f55565b6112f384848484611590565b610c7e5760405162461bcd60e51b81526004016105d2906121b5565b6060600b80546104b390611feb565b6060816113425750506040805180820190915260018152600360fc1b602082015290565b8160005b811561136c578061135681612154565b91506113659050600a8361221d565b9150611346565b60008167ffffffffffffffff81111561138757611387611d5d565b6040519080825280601f01601f1916602001820160405280156113b1576020820181803683370190505b5090505b8415610f4d576113c660018361219e565b91506113d3600a86612231565b6113de90603061213c565b60f81b8183815181106113f3576113f3612074565b60200101906001600160f81b031916908160001a905350611415600a8661221d565b94506113b5565b60006001600160e01b0319821663780e9d6360e01b148061049e575061049e8261168e565b6001600160a01b03831661149c5761149781600880546000838152600960205260408120829055600182018355919091527ff3f7a9fe364faab93b216da50a3214154f22a0a2b415b23a84c8169e8b636ee30155565b6114bf565b816001600160a01b0316836001600160a01b0316146114bf576114bf83826116de565b6001600160a01b0382166114d6576106738161177b565b826001600160a01b0316826001600160a01b03161461067357610673828261182a565b6115038282610b7f565b6107de5761151b816001600160a01b0316601461186e565b61152683602061186e565b604051602001611537929190612245565b60408051601f198184030181529082905262461bcd60e51b82526105d291600401611c83565b6115678383611a11565b6115746000848484611590565b6106735760405162461bcd60e51b81526004016105d2906121b5565b60006001600160a01b0384163b1561168357604051630a85bd0160e11b81526001600160a01b0385169063150b7a02906115d49033908990889088906004016122ba565b6020604051808303816000875af192505050801561160f575060408051601f3d908101601f1916820190925261160c918101906122f7565b60015b611669573d80801561163d576040519150601f19603f3d011682016040523d82523d6000602084013e611642565b606091505b5080516116615760405162461bcd60e51b81526004016105d2906121b5565b805181602001fd5b6001600160e01b031916630a85bd0160e11b149050610f4d565b506001949350505050565b60006001600160e01b031982166380ac58cd60e01b14806116bf57506001600160e01b03198216635b5e139f60e01b145b8061049e57506301ffc9a760e01b6001600160e01b031983161461049e565b600060016116eb84610af9565b6116f5919061219e565b600083815260076020526040902054909150808214611748576001600160a01b03841660009081526006602090815260408083208584528252808320548484528184208190558352600790915290208190555b5060009182526007602090815260408084208490556001600160a01b039094168352600681528383209183525290812055565b60085460009061178d9060019061219e565b600083815260096020526040812054600880549394509092849081106117b5576117b5612074565b9060005260206000200154905080600883815481106117d6576117d6612074565b600091825260208083209091019290925582815260099091526040808220849055858252812055600880548061180e5761180e612314565b6001900381819060005260206000200160009055905550505050565b600061183583610af9565b6001600160a01b039093166000908152600660209081526040808320868452825280832085905593825260079052919091209190915550565b6060600061187d83600261232a565b61188890600261213c565b67ffffffffffffffff8111156118a0576118a0611d5d565b6040519080825280601f01601f1916602001820160405280156118ca576020820181803683370190505b509050600360fc1b816000815181106118e5576118e5612074565b60200101906001600160f81b031916908160001a905350600f60fb1b8160018151811061191457611914612074565b60200101906001600160f81b031916908160001a905350600061193884600261232a565b61194390600161213c565b90505b60018111156119bb576f181899199a1a9b1b9c1cb0b131b232b360811b85600f166010811061197757611977612074565b1a60f81b82828151811061198d5761198d612074565b60200101906001600160f81b031916908160001a90535060049490941c936119b481612349565b9050611946565b508315611a0a5760405162461bcd60e51b815260206004820181905260248201527f537472696e67733a20686578206c656e67746820696e73756666696369656e7460448201526064016105d2565b9392505050565b6001600160a01b038216611a675760405162461bcd60e51b815260206004820181905260248201527f4552433732313a206d696e7420746f20746865207a65726f206164647265737360448201526064016105d2565b6000818152600260205260409020546001600160a01b031615611acc5760405162461bcd60e51b815260206004820152601c60248201527f4552433732313a20746f6b656e20616c7265616479206d696e7465640000000060448201526064016105d2565b611ad860008383611441565b6001600160a01b0382166000908152600360205260408120805460019290611b0190849061213c565b909155505060008181526002602052604080822080546001600160a01b0319166001600160a01b03861690811790915590518392907fddf252ad1be2c89b69c2b068fc378daa952ba7f163c4a11628f55a4df523b3ef908290a45050565b828054611b6b90611feb565b90600052602060002090601f016020900481019282611b8d5760008555611bd3565b82601f10611ba657805160ff1916838001178555611bd3565b82800160010185558215611bd3579182015b82811115611bd3578251825591602001919060010190611bb8565b50611bdf929150611be3565b5090565b5b80821115611bdf5760008155600101611be4565b6001600160e01b031981168114610e6557600080fd5b600060208284031215611c2057600080fd5b8135611a0a81611bf8565b60005b83811015611c46578181015183820152602001611c2e565b83811115610c7e5750506000910152565b60008151808452611c6f816020860160208601611c2b565b601f01601f19169290920160200192915050565b602081526000611a0a6020830184611c57565b600060208284031215611ca857600080fd5b5035919050565b80356001600160a01b0381168114611cc657600080fd5b919050565b60008060408385031215611cde57600080fd5b611ce783611caf565b946020939093013593505050565b600080600060608486031215611d0a57600080fd5b611d1384611caf565b9250611d2160208501611caf565b9150604084013590509250925092565b60008060408385031215611d4457600080fd5b82359150611d5460208401611caf565b90509250929050565b634e487b7160e01b600052604160045260246000fd5b600067ffffffffffffffff80841115611d8e57611d8e611d5d565b604051601f8501601f19908116603f01168101908282118183101715611db657611db6611d5d565b81604052809350858152868686011115611dcf57600080fd5b858560208301376000602087830101525050509392505050565b600060208284031215611dfb57600080fd5b813567ffffffffffffffff811115611e1257600080fd5b8201601f81018413611e2357600080fd5b610f4d84823560208401611d73565b803561ffff81168114611cc657600080fd5b600080600060608486031215611e5957600080fd5b611e6284611caf565b925060208401359150611e7760408501611e32565b90509250925092565b600060208284031215611e9257600080fd5b611a0a82611caf565b60008060408385031215611eae57600080fd5b611eb783611caf565b915060208301358015158114611ecc57600080fd5b809150509250929050565b60008060408385031215611eea57600080fd5b611ef383611caf565b9150611d5460208401611e32565b60008060008060808587031215611f1757600080fd5b611f2085611caf565b9350611f2e60208601611caf565b925060408501359150606085013567ffffffffffffffff811115611f5157600080fd5b8501601f81018713611f6257600080fd5b611f7187823560208401611d73565b91505092959194509250565b6020808252825182820181905260009190848201906040850190845b81811015611fb557835183529284019291840191600101611f99565b50909695505050505050565b60008060408385031215611fd457600080fd5b611fdd83611caf565b9150611d5460208401611caf565b600181811c90821680611fff57607f821691505b6020821081141561202057634e487b7160e01b600052602260045260246000fd5b50919050565b6020808252602e908201527f4552433732313a2063616c6c6572206973206e6f7420746f6b656e206f776e6560408201526d1c881b9bdc88185c1c1c9bdd995960921b606082015260800190565b634e487b7160e01b600052603260045260246000fd5b600080835481600182811c9150808316806120a657607f831692505b60208084108214156120c657634e487b7160e01b86526022600452602486fd5b8180156120da57600181146120eb57612118565b60ff19861689528489019650612118565b60008a81526020902060005b868110156121105781548b8201529085019083016120f7565b505084890196505b509498975050505050505050565b634e487b7160e01b600052601160045260246000fd5b6000821982111561214f5761214f612126565b500190565b600060001982141561216857612168612126565b5060010190565b60008351612181818460208801611c2b565b835190830190612195818360208801611c2b565b01949350505050565b6000828210156121b0576121b0612126565b500390565b60208082526032908201527f4552433732313a207472616e7366657220746f206e6f6e20455243373231526560408201527131b2b4bb32b91034b6b83632b6b2b73a32b960711b606082015260800190565b634e487b7160e01b600052601260045260246000fd5b60008261222c5761222c612207565b500490565b60008261224057612240612207565b500690565b7f416363657373436f6e74726f6c3a206163636f756e742000000000000000000081526000835161227d816017850160208801611c2b565b7001034b99036b4b9b9b4b733903937b6329607d1b60179184019182015283516122ae816028840160208801611c2b565b01602801949350505050565b6001600160a01b03858116825284166020820152604081018390526080606082018190526000906122ed90830184611c57565b9695505050505050565b60006020828403121561230957600080fd5b8151611a0a81611bf8565b634e487b7160e01b600052603160045260246000fd5b600081600019048311821515161561234457612344612126565b500290565b60008161235857612358612126565b50600019019056fea264697066735822122048276fc8a225e70664f4c9c77cd5042b240b768e5eb13aa254d903a5393d648264736f6c634300080a0033",
  "linkReferences": {},
  "deployedLinkReferences": {}
}