{
  "_format": "hh-sol-artifact-1",
  "contractName": "Collection",
  "sourceName": "contracts/Collection.sol",
  "abi": [
    {
      "inputs": [
        {
          "internalType": "string",
          "name": "name_",
          "type": "string"
        },
        {
          "internalType": "string",
          "name": "symbol_",
          "type": "string"
        },
        {
          "internalType": "string",
          "name": "baseURI_",
          "type": "string"
        },
        {
          "internalType": "address",
          "name": "admin_",
          "type": "address"
        },
        {
          "internalType": "uint256[]",
          "name": "tokenIdsAccordingToRarity",
          "type": "uint256[]"
        }
      ],
      "stateMutability": "nonpayable",
      "type": "constructor"
    },
    {
      "anonymous": false,
      "inputs": [
        {
          "indexed": true,
          "internalType": "address",
          "name": "owner",
          "type": "address"
        },
        {
          "indexed": true,
          "internalType": "address",
          "name": "approved",
          "type": "address"
        },
        {
          "indexed": true,
          "internalType": "uint256",
          "name": "tokenId",
          "type": "uint256"
        }
      ],
      "name": "Approval",
      "type": "event"
    },
    {
      "anonymous": false,
      "inputs": [
        {
          "indexed": true,
          "internalType": "address",
          "name": "owner",
          "type": "address"
        },
        {
          "indexed": true,
          "internalType": "address",
          "name": "operator",
          "type": "address"
        },
        {
          "indexed": false,
          "internalType": "bool",
          "name": "approved",
          "type": "bool"
        }
      ],
      "name": "ApprovalForAll",
      "type": "event"
    },
    {
      "anonymous": false,
      "inputs": [
        {
          "indexed": true,
          "internalType": "string",
          "name": "uri",
          "type": "string"
        }
      ],
      "name": "BaseURI",
      "type": "event"
    },
    {
      "anonymous": false,
      "inputs": [
        {
          "indexed": true,
          "internalType": "uint256",
          "name": "tokenId",
          "type": "uint256"
        }
      ],
      "name": "Burn",
      "type": "event"
    },
    {
      "anonymous": false,
      "inputs": [
        {
          "indexed": true,
          "internalType": "uint256",
          "name": "tokenId",
          "type": "uint256"
        },
        {
          "indexed": true,
          "internalType": "uint256",
          "name": "rarity",
          "type": "uint256"
        }
      ],
      "name": "Initialized",
      "type": "event"
    },
    {
      "anonymous": false,
      "inputs": [
        {
          "indexed": true,
          "internalType": "address",
          "name": "to",
          "type": "address"
        },
        {
          "indexed": true,
          "internalType": "uint256",
          "name": "tokenId",
          "type": "uint256"
        },
        {
          "indexed": true,
          "internalType": "uint256",
          "name": "rarity",
          "type": "uint256"
        }
      ],
      "name": "Mint",
      "type": "event"
    },
    {
      "anonymous": false,
      "inputs": [
        {
          "indexed": true,
          "internalType": "bytes32",
          "name": "role",
          "type": "bytes32"
        },
        {
          "indexed": true,
          "internalType": "bytes32",
          "name": "previousAdminRole",
          "type": "bytes32"
        },
        {
          "indexed": true,
          "internalType": "bytes32",
          "name": "newAdminRole",
          "type": "bytes32"
        }
      ],
      "name": "RoleAdminChanged",
      "type": "event"
    },
    {
      "anonymous": false,
      "inputs": [
        {
          "indexed": true,
          "internalType": "bytes32",
          "name": "role",
          "type": "bytes32"
        },
        {
          "indexed": true,
          "internalType": "address",
          "name": "account",
          "type": "address"
        },
        {
          "indexed": true,
          "internalType": "address",
          "name": "sender",
          "type": "address"
        }
      ],
      "name": "RoleGranted",
      "type": "event"
    },
    {
      "anonymous": false,
      "inputs": [
        {
          "indexed": true,
          "internalType": "bytes32",
          "name": "role",
          "type": "bytes32"
        },
        {
          "indexed": true,
          "internalType": "address",
          "name": "account",
          "type": "address"
        },
        {
          "indexed": true,
          "internalType": "address",
          "name": "sender",
          "type": "address"
        }
      ],
      "name": "RoleRevoked",
      "type": "event"
    },
    {
      "anonymous": false,
      "inputs": [
        {
          "indexed": true,
          "internalType": "address",
          "name": "from",
          "type": "address"
        },
        {
          "indexed": true,
          "internalType": "address",
          "name": "to",
          "type": "address"
        },
        {
          "indexed": true,
          "internalType": "uint256",
          "name": "tokenId",
          "type": "uint256"
        }
      ],
      "name": "Transfer",
      "type": "event"
    },
    {
      "inputs": [],
      "name": "DEFAULT_ADMIN_ROLE",
      "outputs": [
        {
          "internalType": "bytes32",
          "name": "",
          "type": "bytes32"
        }
      ],
      "stateMutability": "view",
      "type": "function"
    },
    {
      "inputs": [
        {
          "internalType": "address",
          "name": "to",
          "type": "address"
        },
        {
          "internalType": "uint256",
          "name": "tokenId",
          "type": "uint256"
        }
      ],
      "name": "approve",
      "outputs": [],
      "stateMutability": "nonpayable",
      "type": "function"
    },
    {
      "inputs": [
        {
          "internalType": "address",
          "name": "owner",
          "type": "address"
        }
      ],
      "name": "balanceOf",
      "outputs": [
        {
          "internalType": "uint256",
          "name": "",
          "type": "uint256"
        }
      ],
      "stateMutability": "view",
      "type": "function"
    },
    {
      "inputs": [
        {
          "internalType": "uint256",
          "name": "tokenId",
          "type": "uint256"
        }
      ],
      "name": "exists",
      "outputs": [
        {
          "internalType": "bool",
          "name": "",
          "type": "bool"
        }
      ],
      "stateMutability": "view",
      "type": "function"
    },
    {
      "inputs": [
        {
          "internalType": "uint256",
          "name": "tokenId",
          "type": "uint256"
        }
      ],
      "name": "getApproved",
      "outputs": [
        {
          "internalType": "address",
          "name": "",
          "type": "address"
        }
      ],
      "stateMutability": "view",
      "type": "function"
    },
    {
      "inputs": [
        {
          "internalType": "uint256",
          "name": "tokenId",
          "type": "uint256"
        }
      ],
      "name": "getRarity",
      "outputs": [
        {
          "internalType": "uint256",
          "name": "",
          "type": "uint256"
        }
      ],
      "stateMutability": "view",
      "type": "function"
    },
    {
      "inputs": [
        {
          "internalType": "bytes32",
          "name": "role",
          "type": "bytes32"
        }
      ],
      "name": "getRoleAdmin",
      "outputs": [
        {
          "internalType": "bytes32",
          "name": "",
          "type": "bytes32"
        }
      ],
      "stateMutability": "view",
      "type": "function"
    },
    {
      "inputs": [
        {
          "internalType": "bytes32",
          "name": "role",
          "type": "bytes32"
        },
        {
          "internalType": "address",
          "name": "account",
          "type": "address"
        }
      ],
      "name": "grantRole",
      "outputs": [],
      "stateMutability": "nonpayable",
      "type": "function"
    },
    {
      "inputs": [
        {
          "internalType": "bytes32",
          "name": "role",
          "type": "bytes32"
        },
        {
          "internalType": "address",
          "name": "account",
          "type": "address"
        }
      ],
      "name": "hasRole",
      "outputs": [
        {
          "internalType": "bool",
          "name": "",
          "type": "bool"
        }
      ],
      "stateMutability": "view",
      "type": "function"
    },
    {
      "inputs": [
        {
          "internalType": "uint256",
          "name": "numberOfTokens",
          "type": "uint256"
        },
        {
          "internalType": "uint256",
          "name": "rarity",
          "type": "uint256"
        }
      ],
      "name": "initializeBatch",
      "outputs": [],
      "stateMutability": "nonpayable",
      "type": "function"
    },
    {
      "inputs": [
        {
          "internalType": "address",
          "name": "owner",
          "type": "address"
        },
        {
          "internalType": "address",
          "name": "operator",
          "type": "address"
        }
      ],
      "name": "isApprovedForAll",
      "outputs": [
        {
          "internalType": "bool",
          "name": "",
          "type": "bool"
        }
      ],
      "stateMutability": "view",
      "type": "function"
    },
    {
      "inputs": [
        {
          "internalType": "address",
          "name": "to",
          "type": "address"
        },
        {
          "internalType": "uint256",
          "name": "rarity",
          "type": "uint256"
        }
      ],
      "name": "mint",
      "outputs": [],
      "stateMutability": "nonpayable",
      "type": "function"
    },
    {
      "inputs": [
        {
          "internalType": "address",
          "name": "to",
          "type": "address"
        },
        {
          "internalType": "uint256",
          "name": "quantity",
          "type": "uint256"
        },
        {
          "internalType": "uint256",
          "name": "rarity",
          "type": "uint256"
        }
      ],
      "name": "mintBatch",
      "outputs": [],
      "stateMutability": "nonpayable",
      "type": "function"
    },
    {
      "inputs": [
        {
          "internalType": "address",
          "name": "to",
          "type": "address"
        },
        {
          "internalType": "uint256",
          "name": "tokenId",
          "type": "uint256"
        }
      ],
      "name": "mintRouter",
      "outputs": [],
      "stateMutability": "nonpayable",
      "type": "function"
    },
    {
      "inputs": [],
      "name": "name",
      "outputs": [
        {
          "internalType": "string",
          "name": "",
          "type": "string"
        }
      ],
      "stateMutability": "view",
      "type": "function"
    },
    {
      "inputs": [
        {
          "internalType": "uint256",
          "name": "tokenId",
          "type": "uint256"
        }
      ],
      "name": "ownerOf",
      "outputs": [
        {
          "internalType": "address",
          "name": "",
          "type": "address"
        }
      ],
      "stateMutability": "view",
      "type": "function"
    },
    {
      "inputs": [
        {
          "internalType": "bytes32",
          "name": "role",
          "type": "bytes32"
        },
        {
          "internalType": "address",
          "name": "account",
          "type": "address"
        }
      ],
      "name": "renounceRole",
      "outputs": [],
      "stateMutability": "nonpayable",
      "type": "function"
    },
    {
      "inputs": [
        {
          "internalType": "bytes32",
          "name": "role",
          "type": "bytes32"
        },
        {
          "internalType": "address",
          "name": "account",
          "type": "address"
        }
      ],
      "name": "revokeRole",
      "outputs": [],
      "stateMutability": "nonpayable",
      "type": "function"
    },
    {
      "inputs": [
        {
          "internalType": "address",
          "name": "from",
          "type": "address"
        },
        {
          "internalType": "address",
          "name": "to",
          "type": "address"
        },
        {
          "internalType": "uint256",
          "name": "tokenId",
          "type": "uint256"
        }
      ],
      "name": "safeTransferFrom",
      "outputs": [],
      "stateMutability": "nonpayable",
      "type": "function"
    },
    {
      "inputs": [
        {
          "internalType": "address",
          "name": "from",
          "type": "address"
        },
        {
          "internalType": "address",
          "name": "to",
          "type": "address"
        },
        {
          "internalType": "uint256",
          "name": "tokenId",
          "type": "uint256"
        },
        {
          "internalType": "bytes",
          "name": "data",
          "type": "bytes"
        }
      ],
      "name": "safeTransferFrom",
      "outputs": [],
      "stateMutability": "nonpayable",
      "type": "function"
    },
    {
      "inputs": [
        {
          "internalType": "address",
          "name": "operator",
          "type": "address"
        },
        {
          "internalType": "bool",
          "name": "approved",
          "type": "bool"
        }
      ],
      "name": "setApprovalForAll",
      "outputs": [],
      "stateMutability": "nonpayable",
      "type": "function"
    },
    {
      "inputs": [
        {
          "internalType": "string",
          "name": "uri_",
          "type": "string"
        }
      ],
      "name": "setBaseURI",
      "outputs": [],
      "stateMutability": "nonpayable",
      "type": "function"
    },
    {
      "inputs": [
        {
          "internalType": "address",
          "name": "_router",
          "type": "address"
        }
      ],
      "name": "setRouter",
      "outputs": [],
      "stateMutability": "nonpayable",
      "type": "function"
    },
    {
      "inputs": [
        {
          "internalType": "bytes4",
          "name": "interfaceId",
          "type": "bytes4"
        }
      ],
      "name": "supportsInterface",
      "outputs": [
        {
          "internalType": "bool",
          "name": "",
          "type": "bool"
        }
      ],
      "stateMutability": "view",
      "type": "function"
    },
    {
      "inputs": [],
      "name": "symbol",
      "outputs": [
        {
          "internalType": "string",
          "name": "",
          "type": "string"
        }
      ],
      "stateMutability": "view",
      "type": "function"
    },
    {
      "inputs": [
        {
          "internalType": "uint256",
          "name": "index",
          "type": "uint256"
        }
      ],
      "name": "tokenByIndex",
      "outputs": [
        {
          "internalType": "uint256",
          "name": "",
          "type": "uint256"
        }
      ],
      "stateMutability": "view",
      "type": "function"
    },
    {
      "inputs": [
        {
          "internalType": "address",
          "name": "_address",
          "type": "address"
        }
      ],
      "name": "tokenIdByAddress",
      "outputs": [
        {
          "internalType": "uint256[]",
          "name": "",
          "type": "uint256[]"
        }
      ],
      "stateMutability": "view",
      "type": "function"
    },
    {
      "inputs": [
        {
          "internalType": "address",
          "name": "owner",
          "type": "address"
        },
        {
          "internalType": "uint256",
          "name": "index",
          "type": "uint256"
        }
      ],
      "name": "tokenOfOwnerByIndex",
      "outputs": [
        {
          "internalType": "uint256",
          "name": "",
          "type": "uint256"
        }
      ],
      "stateMutability": "view",
      "type": "function"
    },
    {
      "inputs": [
        {
          "internalType": "uint256",
          "name": "_tokenId",
          "type": "uint256"
        }
      ],
      "name": "tokenURI",
      "outputs": [
        {
          "internalType": "string",
          "name": "",
          "type": "string"
        }
      ],
      "stateMutability": "view",
      "type": "function"
    },
    {
      "inputs": [],
      "name": "totalSupply",
      "outputs": [
        {
          "internalType": "uint256",
          "name": "",
          "type": "uint256"
        }
      ],
      "stateMutability": "view",
      "type": "function"
    },
    {
      "inputs": [
        {
          "internalType": "address",
          "name": "from",
          "type": "address"
        },
        {
          "internalType": "address",
          "name": "to",
          "type": "address"
        },
        {
          "internalType": "uint256",
          "name": "tokenId",
          "type": "uint256"
        }
      ],
      "name": "transferFrom",
      "outputs": [],
      "stateMutability": "nonpayable",
      "type": "function"
    }
  ],
  "bytecode": "0x60806040523480156200001157600080fd5b5060405162002b6638038062002b668339810160408190526200003491620003a1565b84848484838381600090805190602001906200005292919062000158565b5080516200006890600190602084019062000158565b50508251620000809150600b90602085019062000158565b506200008e600082620000b3565b50508251620000a79250600c91506020840190620001e7565b505050505050620004b9565b6000828152600a602090815260408083206001600160a01b038516845290915290205460ff1662000154576000828152600a602090815260408083206001600160a01b03851684529091529020805460ff19166001179055620001133390565b6001600160a01b0316816001600160a01b0316837f2f8788117e7eff1d82e926ec794901d17c78024a50270940304540a733656f0d60405160405180910390a45b5050565b82805462000166906200047c565b90600052602060002090601f0160209004810192826200018a5760008555620001d5565b82601f10620001a557805160ff1916838001178555620001d5565b82800160010185558215620001d5579182015b82811115620001d5578251825591602001919060010190620001b8565b50620001e392915062000224565b5090565b828054828255906000526020600020908101928215620001d55791602002820182811115620001d5578251825591602001919060010190620001b8565b5b80821115620001e3576000815560010162000225565b634e487b7160e01b600052604160045260246000fd5b604051601f8201601f191681016001600160401b03811182821017156200027c576200027c6200023b565b604052919050565b600082601f8301126200029657600080fd5b81516001600160401b03811115620002b257620002b26200023b565b6020620002c8601f8301601f1916820162000251565b8281528582848701011115620002dd57600080fd5b60005b83811015620002fd578581018301518282018401528201620002e0565b838111156200030f5760008385840101525b5095945050505050565b600082601f8301126200032b57600080fd5b815160206001600160401b038211156200034957620003496200023b565b8160051b6200035a82820162000251565b92835284810182019282810190878511156200037557600080fd5b83870192505b8483101562000396578251825291830191908301906200037b565b979650505050505050565b600080600080600060a08688031215620003ba57600080fd5b85516001600160401b0380821115620003d257600080fd5b620003e089838a0162000284565b96506020880151915080821115620003f757600080fd5b6200040589838a0162000284565b955060408801519150808211156200041c57600080fd5b6200042a89838a0162000284565b606089015190955091506001600160a01b03821682146200044a57600080fd5b6080880151919350808211156200046057600080fd5b506200046f8882890162000319565b9150509295509295909350565b600181811c908216806200049157607f821691505b60208210811415620004b357634e487b7160e01b600052602260045260246000fd5b50919050565b61269d80620004c96000396000f3fe608060405234801561001057600080fd5b50600436106101e55760003560e01c80634f6ccce71161010f578063a217fddf116100a2578063c87b56dd11610071578063c87b56dd14610415578063d547741f14610428578063e8378fbf1461043b578063e985e9c51461045b57600080fd5b8063a217fddf146103d4578063a22cb465146103dc578063b88d4fde146103ef578063c0d786551461040257600080fd5b806374445a6f116100de57806374445a6f1461039357806374d6b540146103a657806391d14854146103b957806395d89b41146103cc57600080fd5b80634f6ccce71461034757806355f804b31461035a5780636352211e1461036d57806370a082311461038057600080fd5b80632e81aaea1161018757806340c10f191161015657806340c10f19146102fb57806342842e0e1461030e57806348758697146103215780634f558e791461033457600080fd5b80632e81aaea146102af5780632f2ff15d146102c25780632f745c59146102d557806336568abe146102e857600080fd5b8063095ea7b3116101c3578063095ea7b31461025257806318160ddd1461026757806323b872dd14610279578063248a9ca31461028c57600080fd5b806301ffc9a7146101ea57806306fdde0314610212578063081812fc14610227575b600080fd5b6101fd6101f8366004611f28565b610497565b60405190151581526020015b60405180910390f35b61021a6104a8565b6040516102099190611f9d565b61023a610235366004611fb0565b61053a565b6040516001600160a01b039091168152602001610209565b610265610260366004611fe5565b610561565b005b6008545b604051908152602001610209565b61026561028736600461200f565b61067c565b61026b61029a366004611fb0565b6000908152600a602052604090206001015490565b6102656102bd36600461204b565b6106ad565b6102656102d036600461207e565b61088c565b61026b6102e3366004611fe5565b6108b1565b6102656102f636600461207e565b610947565b610265610309366004611fe5565b6109c5565b61026561031c36600461200f565b610a64565b61026b61032f366004611fb0565b610a7f565b6101fd610342366004611fb0565b610b58565b61026b610355366004611fb0565b610b77565b610265610368366004612136565b610c0a565b61023a61037b366004611fb0565b610c6c565b61026b61038e36600461217f565b610ccc565b6102656103a1366004611fe5565b610d52565b6102656103b436600461219a565b610e29565b6101fd6103c736600461207e565b610ed8565b61021a610f03565b61026b600081565b6102656103ea3660046121bc565b610f12565b6102656103fd3660046121f8565b610f1d565b61026561041036600461217f565b610f55565b61021a610423366004611fb0565b610f83565b61026561043636600461207e565b611034565b61044e61044936600461217f565b611059565b6040516102099190612274565b6101fd6104693660046122b8565b6001600160a01b03918216600090815260056020908152604080832093909416825291909152205460ff1690565b60006104a2826110fb565b92915050565b6060600080546104b7906122e2565b80601f01602080910402602001604051908101604052809291908181526020018280546104e3906122e2565b80156105305780601f1061050557610100808354040283529160200191610530565b820191906000526020600020905b81548152906001019060200180831161051357829003601f168201915b5050505050905090565b600061054582611120565b506000908152600460205260409020546001600160a01b031690565b600061056c82610c6c565b9050806001600160a01b0316836001600160a01b031614156105df5760405162461bcd60e51b815260206004820152602160248201527f4552433732313a20617070726f76616c20746f2063757272656e74206f776e656044820152603960f91b60648201526084015b60405180910390fd5b336001600160a01b03821614806105fb57506105fb8133610469565b61066d5760405162461bcd60e51b815260206004820152603e60248201527f4552433732313a20617070726f76652063616c6c6572206973206e6f7420746f60448201527f6b656e206f776e6572206e6f7220617070726f76656420666f7220616c6c000060648201526084016105d6565b6106778383611182565b505050565b61068633826111f0565b6106a25760405162461bcd60e51b81526004016105d690612317565b61067783838361126f565b60006106b881611416565b600c5482106107095760405162461bcd60e51b815260206004820152601a60248201527f436f6c6c656374696f6e3a20496e76616c69642072617269747900000000000060448201526064016105d6565b6000831161076e5760405162461bcd60e51b815260206004820152602c60248201527f436f6c6c656374696f6e3a20546f6f206d756368206c6f7720666f72206f6e6560448201526b103a3930b739b0b1ba34b7b760a11b60648201526084016105d6565b60648311156107d55760405162461bcd60e51b815260206004820152602d60248201527f436f6c6c656374696f6e3a20546f6f206d756368206461746120666f72206f6e60448201526c32903a3930b739b0b1ba34b7b760991b60648201526084016105d6565b6000600c83815481106107ea576107ea612365565b9060005260206000200154905060005b848110156108645761080c8683611420565b8382876001600160a01b03167f4c209b5fc8ad50758f13e2e1088ba56a560dff690a1c6fef26394f4c03821c4f60405160405180910390a48161084e81612391565b925050808061085c90612391565b9150506107fa565b5080600c848154811061087957610879612365565b6000918252602090912001555050505050565b6000828152600a60205260409020600101546108a781611416565b610677838361143a565b60006108bc83610ccc565b821061091e5760405162461bcd60e51b815260206004820152602b60248201527f455243373231456e756d657261626c653a206f776e657220696e646578206f7560448201526a74206f6620626f756e647360a81b60648201526084016105d6565b506001600160a01b03919091166000908152600660209081526040808320938352929052205490565b6001600160a01b03811633146109b75760405162461bcd60e51b815260206004820152602f60248201527f416363657373436f6e74726f6c3a2063616e206f6e6c792072656e6f756e636560448201526e103937b632b9903337b91039b2b63360891b60648201526084016105d6565b6109c182826114c0565b5050565b60006109d081611416565b6000600c83815481106109e5576109e5612365565b906000526020600020015490506109fc8482611420565b8281856001600160a01b03167f4c209b5fc8ad50758f13e2e1088ba56a560dff690a1c6fef26394f4c03821c4f60405160405180910390a4610a3f8160016123ac565b600c8481548110610a5257610a52612365565b60009182526020909120015550505050565b61067783838360405180602001604052806000815250610f1d565b6000818152600d602052604081205460ff1680610ab257506000828152600260205260409020546001600160a01b031615155b610afe5760405162461bcd60e51b815260206004820152601960248201527f436f6c6c656374696f6e3a20496e76616c696420746f6b656e0000000000000060448201526064016105d6565b600c5460005b81811015610b4957600c8181548110610b1f57610b1f612365565b90600052602060002001548411610b37579392505050565b80610b4181612391565b915050610b04565b50610b526123c4565b50919050565b6000818152600260205260408120546001600160a01b031615156104a2565b6000610b8260085490565b8210610be55760405162461bcd60e51b815260206004820152602c60248201527f455243373231456e756d657261626c653a20676c6f62616c20696e646578206f60448201526b7574206f6620626f756e647360a01b60648201526084016105d6565b60088281548110610bf857610bf8612365565b90600052602060002001549050919050565b6000610c1581611416565b8151610c2890600b906020850190611e79565b50600b604051610c3891906123da565b604051908190038120907f01e56a02aca7f26a28165a040851ba78f30282b55ca81c63a804cdc1e2dcea7290600090a25050565b6000818152600260205260408120546001600160a01b0316806104a25760405162461bcd60e51b8152602060048201526018602482015277115490cdcc8c4e881a5b9d985b1a59081d1bdad95b88125160421b60448201526064016105d6565b60006001600160a01b038216610d365760405162461bcd60e51b815260206004820152602960248201527f4552433732313a2061646472657373207a65726f206973206e6f7420612076616044820152683634b21037bbb732b960b91b60648201526084016105d6565b506001600160a01b031660009081526003602052604090205490565b600e546001600160a01b0316336001600160a01b031614610db55760405162461bcd60e51b815260206004820181905260248201527f436f6c6c656374696f6e3a206f6e6c7920726f757465722063616e2063616c6c60448201526064016105d6565b6000818152600d602052604090205460ff16610e1f5760405162461bcd60e51b8152602060048201526024808201527f436f6c6c656374696f6e3a20746f6b656e206973206e6f7420696e697469616c6044820152631a5e995960e21b60648201526084016105d6565b6109c18282611420565b6000610e3481611416565b6000600c8381548110610e4957610e49612365565b9060005260206000200154905060005b84811015610ec3576000828152600d60205260409020805460ff191660011790558382610e8581612391565b6040519094507f997896709b4e932ee42750e2e14ed1f7ab6c60bd911ff567aa2485cf0b20051b90600090a380610ebb81612391565b915050610e59565b5080600c8481548110610a5257610a52612365565b6000918252600a602090815260408084206001600160a01b0393909316845291905290205460ff1690565b6060600180546104b7906122e2565b6109c1338383611527565b610f2733836111f0565b610f435760405162461bcd60e51b81526004016105d690612317565b610f4f848484846115f6565b50505050565b6000610f6081611416565b50600e80546001600160a01b0319166001600160a01b0392909216919091179055565b6000818152600d602052604090205460609060ff1680610fb957506000828152600260205260409020546001600160a01b031615155b610ffc5760405162461bcd60e51b8152602060048201526014602482015273139bdb8b595e1a5cdd185b9d081d1bdad95b925960621b60448201526064016105d6565b611004611629565b61100d83611638565b60405160200161101e929190612476565b6040516020818303038152906040529050919050565b6000828152600a602052604090206001015461104f81611416565b61067783836114c0565b6060600061106683610ccc565b905060008167ffffffffffffffff811115611083576110836120aa565b6040519080825280602002602001820160405280156110ac578160200160208202803683370190505b50905060005b828110156110f3576110c485826108b1565b8282815181106110d6576110d6612365565b6020908102919091010152806110eb81612391565b9150506110b2565b509392505050565b60006001600160e01b03198216637965db0b60e01b14806104a257506104a282611736565b6000818152600260205260409020546001600160a01b031661117f5760405162461bcd60e51b8152602060048201526018602482015277115490cdcc8c4e881a5b9d985b1a59081d1bdad95b88125160421b60448201526064016105d6565b50565b600081815260046020526040902080546001600160a01b0319166001600160a01b03841690811790915581906111b782610c6c565b6001600160a01b03167f8c5be1e5ebec7d5bd14f71427d1e84f3dd0314c0f7b2291e5b200ac8c7c3b92560405160405180910390a45050565b6000806111fc83610c6c565b9050806001600160a01b0316846001600160a01b0316148061124357506001600160a01b0380821660009081526005602090815260408083209388168352929052205460ff165b806112675750836001600160a01b031661125c8461053a565b6001600160a01b0316145b949350505050565b826001600160a01b031661128282610c6c565b6001600160a01b0316146112e65760405162461bcd60e51b815260206004820152602560248201527f4552433732313a207472616e736665722066726f6d20696e636f72726563742060448201526437bbb732b960d91b60648201526084016105d6565b6001600160a01b0382166113485760405162461bcd60e51b8152602060048201526024808201527f4552433732313a207472616e7366657220746f20746865207a65726f206164646044820152637265737360e01b60648201526084016105d6565b61135383838361175b565b61135e600082611182565b6001600160a01b03831660009081526003602052604081208054600192906113879084906124a5565b90915550506001600160a01b03821660009081526003602052604081208054600192906113b59084906123ac565b909155505060008181526002602052604080822080546001600160a01b0319166001600160a01b0386811691821790925591518493918716917fddf252ad1be2c89b69c2b068fc378daa952ba7f163c4a11628f55a4df523b3ef91a4505050565b61117f8133611813565b6109c1828260405180602001604052806000815250611877565b6114448282610ed8565b6109c1576000828152600a602090815260408083206001600160a01b03851684529091529020805460ff1916600117905561147c3390565b6001600160a01b0316816001600160a01b0316837f2f8788117e7eff1d82e926ec794901d17c78024a50270940304540a733656f0d60405160405180910390a45050565b6114ca8282610ed8565b156109c1576000828152600a602090815260408083206001600160a01b0385168085529252808320805460ff1916905551339285917ff6391f5c32d9c69d2a47ea670b442974b53935d1edc7fd64eb21e047a839171b9190a45050565b816001600160a01b0316836001600160a01b031614156115895760405162461bcd60e51b815260206004820152601960248201527f4552433732313a20617070726f766520746f2063616c6c65720000000000000060448201526064016105d6565b6001600160a01b03838116600081815260056020908152604080832094871680845294825291829020805460ff191686151590811790915591519182527f17307eab39ab6107e8899845ad3d59bd9653f200f220920489ca2b5937696c31910160405180910390a3505050565b61160184848461126f565b61160d848484846118aa565b610f4f5760405162461bcd60e51b81526004016105d6906124bc565b6060600b80546104b7906122e2565b60608161165c5750506040805180820190915260018152600360fc1b602082015290565b8160005b8115611686578061167081612391565b915061167f9050600a83612524565b9150611660565b60008167ffffffffffffffff8111156116a1576116a16120aa565b6040519080825280601f01601f1916602001820160405280156116cb576020820181803683370190505b5090505b8415611267576116e06001836124a5565b91506116ed600a86612538565b6116f89060306123ac565b60f81b81838151811061170d5761170d612365565b60200101906001600160f81b031916908160001a90535061172f600a86612524565b94506116cf565b60006001600160e01b0319821663780e9d6360e01b14806104a257506104a2826119a8565b6001600160a01b0383166117b6576117b181600880546000838152600960205260408120829055600182018355919091527ff3f7a9fe364faab93b216da50a3214154f22a0a2b415b23a84c8169e8b636ee30155565b6117d9565b816001600160a01b0316836001600160a01b0316146117d9576117d983826119f8565b6001600160a01b0382166117f05761067781611a95565b826001600160a01b0316826001600160a01b031614610677576106778282611b44565b61181d8282610ed8565b6109c157611835816001600160a01b03166014611b88565b611840836020611b88565b60405160200161185192919061254c565b60408051601f198184030181529082905262461bcd60e51b82526105d691600401611f9d565b6118818383611d2b565b61188e60008484846118aa565b6106775760405162461bcd60e51b81526004016105d6906124bc565b60006001600160a01b0384163b1561199d57604051630a85bd0160e11b81526001600160a01b0385169063150b7a02906118ee9033908990889088906004016125c1565b6020604051808303816000875af1925050508015611929575060408051601f3d908101601f19168201909252611926918101906125fe565b60015b611983573d808015611957576040519150601f19603f3d011682016040523d82523d6000602084013e61195c565b606091505b50805161197b5760405162461bcd60e51b81526004016105d6906124bc565b805181602001fd5b6001600160e01b031916630a85bd0160e11b149050611267565b506001949350505050565b60006001600160e01b031982166380ac58cd60e01b14806119d957506001600160e01b03198216635b5e139f60e01b145b806104a257506301ffc9a760e01b6001600160e01b03198316146104a2565b60006001611a0584610ccc565b611a0f91906124a5565b600083815260076020526040902054909150808214611a62576001600160a01b03841660009081526006602090815260408083208584528252808320548484528184208190558352600790915290208190555b5060009182526007602090815260408084208490556001600160a01b039094168352600681528383209183525290812055565b600854600090611aa7906001906124a5565b60008381526009602052604081205460088054939450909284908110611acf57611acf612365565b906000526020600020015490508060088381548110611af057611af0612365565b6000918252602080832090910192909255828152600990915260408082208490558582528120556008805480611b2857611b2861261b565b6001900381819060005260206000200160009055905550505050565b6000611b4f83610ccc565b6001600160a01b039093166000908152600660209081526040808320868452825280832085905593825260079052919091209190915550565b60606000611b97836002612631565b611ba29060026123ac565b67ffffffffffffffff811115611bba57611bba6120aa565b6040519080825280601f01601f191660200182016040528015611be4576020820181803683370190505b509050600360fc1b81600081518110611bff57611bff612365565b60200101906001600160f81b031916908160001a905350600f60fb1b81600181518110611c2e57611c2e612365565b60200101906001600160f81b031916908160001a9053506000611c52846002612631565b611c5d9060016123ac565b90505b6001811115611cd5576f181899199a1a9b1b9c1cb0b131b232b360811b85600f1660108110611c9157611c91612365565b1a60f81b828281518110611ca757611ca7612365565b60200101906001600160f81b031916908160001a90535060049490941c93611cce81612650565b9050611c60565b508315611d245760405162461bcd60e51b815260206004820181905260248201527f537472696e67733a20686578206c656e67746820696e73756666696369656e7460448201526064016105d6565b9392505050565b6001600160a01b038216611d815760405162461bcd60e51b815260206004820181905260248201527f4552433732313a206d696e7420746f20746865207a65726f206164647265737360448201526064016105d6565b6000818152600260205260409020546001600160a01b031615611de65760405162461bcd60e51b815260206004820152601c60248201527f4552433732313a20746f6b656e20616c7265616479206d696e7465640000000060448201526064016105d6565b611df26000838361175b565b6001600160a01b0382166000908152600360205260408120805460019290611e1b9084906123ac565b909155505060008181526002602052604080822080546001600160a01b0319166001600160a01b03861690811790915590518392907fddf252ad1be2c89b69c2b068fc378daa952ba7f163c4a11628f55a4df523b3ef908290a45050565b828054611e85906122e2565b90600052602060002090601f016020900481019282611ea75760008555611eed565b82601f10611ec057805160ff1916838001178555611eed565b82800160010185558215611eed579182015b82811115611eed578251825591602001919060010190611ed2565b50611ef9929150611efd565b5090565b5b80821115611ef95760008155600101611efe565b6001600160e01b03198116811461117f57600080fd5b600060208284031215611f3a57600080fd5b8135611d2481611f12565b60005b83811015611f60578181015183820152602001611f48565b83811115610f4f5750506000910152565b60008151808452611f89816020860160208601611f45565b601f01601f19169290920160200192915050565b602081526000611d246020830184611f71565b600060208284031215611fc257600080fd5b5035919050565b80356001600160a01b0381168114611fe057600080fd5b919050565b60008060408385031215611ff857600080fd5b61200183611fc9565b946020939093013593505050565b60008060006060848603121561202457600080fd5b61202d84611fc9565b925061203b60208501611fc9565b9150604084013590509250925092565b60008060006060848603121561206057600080fd5b61206984611fc9565b95602085013595506040909401359392505050565b6000806040838503121561209157600080fd5b823591506120a160208401611fc9565b90509250929050565b634e487b7160e01b600052604160045260246000fd5b600067ffffffffffffffff808411156120db576120db6120aa565b604051601f8501601f19908116603f01168101908282118183101715612103576121036120aa565b8160405280935085815286868601111561211c57600080fd5b858560208301376000602087830101525050509392505050565b60006020828403121561214857600080fd5b813567ffffffffffffffff81111561215f57600080fd5b8201601f8101841361217057600080fd5b611267848235602084016120c0565b60006020828403121561219157600080fd5b611d2482611fc9565b600080604083850312156121ad57600080fd5b50508035926020909101359150565b600080604083850312156121cf57600080fd5b6121d883611fc9565b9150602083013580151581146121ed57600080fd5b809150509250929050565b6000806000806080858703121561220e57600080fd5b61221785611fc9565b935061222560208601611fc9565b925060408501359150606085013567ffffffffffffffff81111561224857600080fd5b8501601f8101871361225957600080fd5b612268878235602084016120c0565b91505092959194509250565b6020808252825182820181905260009190848201906040850190845b818110156122ac57835183529284019291840191600101612290565b50909695505050505050565b600080604083850312156122cb57600080fd5b6122d483611fc9565b91506120a160208401611fc9565b600181811c908216806122f657607f821691505b60208210811415610b5257634e487b7160e01b600052602260045260246000fd5b6020808252602e908201527f4552433732313a2063616c6c6572206973206e6f7420746f6b656e206f776e6560408201526d1c881b9bdc88185c1c1c9bdd995960921b606082015260800190565b634e487b7160e01b600052603260045260246000fd5b634e487b7160e01b600052601160045260246000fd5b60006000198214156123a5576123a561237b565b5060010190565b600082198211156123bf576123bf61237b565b500190565b634e487b7160e01b600052600160045260246000fd5b600080835481600182811c9150808316806123f657607f831692505b602080841082141561241657634e487b7160e01b86526022600452602486fd5b81801561242a576001811461243b57612468565b60ff19861689528489019650612468565b60008a81526020902060005b868110156124605781548b820152908501908301612447565b505084890196505b509498975050505050505050565b60008351612488818460208801611f45565b83519083019061249c818360208801611f45565b01949350505050565b6000828210156124b7576124b761237b565b500390565b60208082526032908201527f4552433732313a207472616e7366657220746f206e6f6e20455243373231526560408201527131b2b4bb32b91034b6b83632b6b2b73a32b960711b606082015260800190565b634e487b7160e01b600052601260045260246000fd5b6000826125335761253361250e565b500490565b6000826125475761254761250e565b500690565b7f416363657373436f6e74726f6c3a206163636f756e7420000000000000000000815260008351612584816017850160208801611f45565b7001034b99036b4b9b9b4b733903937b6329607d1b60179184019182015283516125b5816028840160208801611f45565b01602801949350505050565b6001600160a01b03858116825284166020820152604081018390526080606082018190526000906125f490830184611f71565b9695505050505050565b60006020828403121561261057600080fd5b8151611d2481611f12565b634e487b7160e01b600052603160045260246000fd5b600081600019048311821515161561264b5761264b61237b565b500290565b60008161265f5761265f61237b565b50600019019056fea2646970667358221220d69d7a689a9d05751d9ea6efee9e702e25b0dd73dca0048decf0ec72b94f5f3b64736f6c634300080a0033",
  "linkReferences": {},
  "deployedLinkReferences": {}
}