{
  "_format": "hh-sol-artifact-1",
  "contractName": "Router",
  "sourceName": "contracts/Router.sol",
  "abi": [
    {
      "inputs": [
        {
          "internalType": "uint16",
          "name": "_fee",
          "type": "uint16"
        },
        {
          "internalType": "address",
          "name": "_feeRecipient",
          "type": "address"
        },
        {
          "internalType": "address",
          "name": "_admin",
          "type": "address"
        }
      ],
      "stateMutability": "nonpayable",
      "type": "constructor"
    },
    {
      "anonymous": false,
      "inputs": [
        {
          "indexed": true,
          "internalType": "address",
          "name": "seller",
          "type": "address"
        },
        {
          "indexed": false,
          "internalType": "uint256",
          "name": "tokenId",
          "type": "uint256"
        }
      ],
      "name": "ItemCanceled",
      "type": "event"
    },
    {
      "anonymous": false,
      "inputs": [
        {
          "indexed": true,
          "internalType": "address",
          "name": "seller",
          "type": "address"
        },
        {
          "indexed": false,
          "internalType": "uint256",
          "name": "tokenId",
          "type": "uint256"
        },
        {
          "indexed": false,
          "internalType": "uint80",
          "name": "price",
          "type": "uint80"
        }
      ],
      "name": "ItemListed",
      "type": "event"
    },
    {
      "anonymous": false,
      "inputs": [
        {
          "indexed": true,
          "internalType": "address",
          "name": "seller",
          "type": "address"
        },
        {
          "indexed": true,
          "internalType": "address",
          "name": "buyer",
          "type": "address"
        },
        {
          "indexed": false,
          "internalType": "uint256",
          "name": "tokenId",
          "type": "uint256"
        },
        {
          "indexed": false,
          "internalType": "uint80",
          "name": "price",
          "type": "uint80"
        }
      ],
      "name": "ItemSold",
      "type": "event"
    },
    {
      "anonymous": false,
      "inputs": [
        {
          "indexed": true,
          "internalType": "address",
          "name": "seller",
          "type": "address"
        },
        {
          "indexed": false,
          "internalType": "uint256",
          "name": "tokenId",
          "type": "uint256"
        },
        {
          "indexed": false,
          "internalType": "uint80",
          "name": "newPrice",
          "type": "uint80"
        }
      ],
      "name": "ItemUpdated",
      "type": "event"
    },
    {
      "anonymous": false,
      "inputs": [
        {
          "indexed": true,
          "internalType": "bytes32",
          "name": "role",
          "type": "bytes32"
        },
        {
          "indexed": true,
          "internalType": "bytes32",
          "name": "previousAdminRole",
          "type": "bytes32"
        },
        {
          "indexed": true,
          "internalType": "bytes32",
          "name": "newAdminRole",
          "type": "bytes32"
        }
      ],
      "name": "RoleAdminChanged",
      "type": "event"
    },
    {
      "anonymous": false,
      "inputs": [
        {
          "indexed": true,
          "internalType": "bytes32",
          "name": "role",
          "type": "bytes32"
        },
        {
          "indexed": true,
          "internalType": "address",
          "name": "account",
          "type": "address"
        },
        {
          "indexed": true,
          "internalType": "address",
          "name": "sender",
          "type": "address"
        }
      ],
      "name": "RoleGranted",
      "type": "event"
    },
    {
      "anonymous": false,
      "inputs": [
        {
          "indexed": true,
          "internalType": "bytes32",
          "name": "role",
          "type": "bytes32"
        },
        {
          "indexed": true,
          "internalType": "address",
          "name": "account",
          "type": "address"
        },
        {
          "indexed": true,
          "internalType": "address",
          "name": "sender",
          "type": "address"
        }
      ],
      "name": "RoleRevoked",
      "type": "event"
    },
    {
      "anonymous": false,
      "inputs": [
        {
          "indexed": false,
          "internalType": "uint16",
          "name": "platformFee",
          "type": "uint16"
        }
      ],
      "name": "UpdatePlatformFee",
      "type": "event"
    },
    {
      "anonymous": false,
      "inputs": [
        {
          "indexed": false,
          "internalType": "address",
          "name": "platformFeeRecipient",
          "type": "address"
        }
      ],
      "name": "UpdatePlatformFeeRecipient",
      "type": "event"
    },
    {
      "inputs": [],
      "name": "COMMON_PRICE",
      "outputs": [
        {
          "internalType": "uint80",
          "name": "",
          "type": "uint80"
        }
      ],
      "stateMutability": "view",
      "type": "function"
    },
    {
      "inputs": [],
      "name": "DEFAULT_ADMIN_ROLE",
      "outputs": [
        {
          "internalType": "bytes32",
          "name": "",
          "type": "bytes32"
        }
      ],
      "stateMutability": "view",
      "type": "function"
    },
    {
      "inputs": [],
      "name": "EPIC_PRICE",
      "outputs": [
        {
          "internalType": "uint80",
          "name": "",
          "type": "uint80"
        }
      ],
      "stateMutability": "view",
      "type": "function"
    },
    {
      "inputs": [],
      "name": "LEGENDARY_PRICE",
      "outputs": [
        {
          "internalType": "uint80",
          "name": "",
          "type": "uint80"
        }
      ],
      "stateMutability": "view",
      "type": "function"
    },
    {
      "inputs": [],
      "name": "MODERATOR_ROLE",
      "outputs": [
        {
          "internalType": "bytes32",
          "name": "",
          "type": "bytes32"
        }
      ],
      "stateMutability": "view",
      "type": "function"
    },
    {
      "inputs": [],
      "name": "RARE_PRICE",
      "outputs": [
        {
          "internalType": "uint80",
          "name": "",
          "type": "uint80"
        }
      ],
      "stateMutability": "view",
      "type": "function"
    },
    {
      "inputs": [
        {
          "internalType": "address",
          "name": "",
          "type": "address"
        }
      ],
      "name": "addressToWhitelistDetails",
      "outputs": [
        {
          "internalType": "bool",
          "name": "notSpent",
          "type": "bool"
        },
        {
          "internalType": "uint248",
          "name": "rarity",
          "type": "uint248"
        }
      ],
      "stateMutability": "view",
      "type": "function"
    },
    {
      "inputs": [
        {
          "internalType": "address",
          "name": "",
          "type": "address"
        }
      ],
      "name": "balances",
      "outputs": [
        {
          "internalType": "uint256",
          "name": "",
          "type": "uint256"
        }
      ],
      "stateMutability": "view",
      "type": "function"
    },
    {
      "inputs": [
        {
          "internalType": "address",
          "name": "_nftAddress",
          "type": "address"
        },
        {
          "internalType": "uint256",
          "name": "_tokenId",
          "type": "uint256"
        }
      ],
      "name": "buyItem",
      "outputs": [],
      "stateMutability": "payable",
      "type": "function"
    },
    {
      "inputs": [
        {
          "internalType": "address",
          "name": "_nftAddress",
          "type": "address"
        },
        {
          "internalType": "uint256",
          "name": "_tokenId",
          "type": "uint256"
        }
      ],
      "name": "cancelListing",
      "outputs": [],
      "stateMutability": "nonpayable",
      "type": "function"
    },
    {
      "inputs": [],
      "name": "fee",
      "outputs": [
        {
          "internalType": "uint16",
          "name": "",
          "type": "uint16"
        }
      ],
      "stateMutability": "view",
      "type": "function"
    },
    {
      "inputs": [],
      "name": "feeRecipient",
      "outputs": [
        {
          "internalType": "address",
          "name": "",
          "type": "address"
        }
      ],
      "stateMutability": "view",
      "type": "function"
    },
    {
      "inputs": [
        {
          "internalType": "bytes32",
          "name": "role",
          "type": "bytes32"
        }
      ],
      "name": "getRoleAdmin",
      "outputs": [
        {
          "internalType": "bytes32",
          "name": "",
          "type": "bytes32"
        }
      ],
      "stateMutability": "view",
      "type": "function"
    },
    {
      "inputs": [
        {
          "internalType": "bytes32",
          "name": "role",
          "type": "bytes32"
        },
        {
          "internalType": "address",
          "name": "account",
          "type": "address"
        }
      ],
      "name": "grantRole",
      "outputs": [],
      "stateMutability": "nonpayable",
      "type": "function"
    },
    {
      "inputs": [
        {
          "internalType": "bytes32",
          "name": "role",
          "type": "bytes32"
        },
        {
          "internalType": "address",
          "name": "account",
          "type": "address"
        }
      ],
      "name": "hasRole",
      "outputs": [
        {
          "internalType": "bool",
          "name": "",
          "type": "bool"
        }
      ],
      "stateMutability": "view",
      "type": "function"
    },
    {
      "inputs": [
        {
          "internalType": "address",
          "name": "_nftAddress",
          "type": "address"
        },
        {
          "internalType": "uint256",
          "name": "_tokenId",
          "type": "uint256"
        },
        {
          "internalType": "uint80",
          "name": "_price",
          "type": "uint80"
        }
      ],
      "name": "listItem",
      "outputs": [],
      "stateMutability": "nonpayable",
      "type": "function"
    },
    {
      "inputs": [
        {
          "internalType": "address",
          "name": "_nftAddress",
          "type": "address"
        },
        {
          "internalType": "uint256[]",
          "name": "_tokenIds",
          "type": "uint256[]"
        },
        {
          "internalType": "uint256",
          "name": "_rarity",
          "type": "uint256"
        }
      ],
      "name": "listItemBatch",
      "outputs": [],
      "stateMutability": "nonpayable",
      "type": "function"
    },
    {
      "inputs": [
        {
          "internalType": "address",
          "name": "",
          "type": "address"
        },
        {
          "internalType": "uint256",
          "name": "",
          "type": "uint256"
        }
      ],
      "name": "listings",
      "outputs": [
        {
          "internalType": "address",
          "name": "seller",
          "type": "address"
        },
        {
          "internalType": "uint80",
          "name": "price",
          "type": "uint80"
        }
      ],
      "stateMutability": "view",
      "type": "function"
    },
    {
      "inputs": [
        {
          "internalType": "address",
          "name": "operator",
          "type": "address"
        },
        {
          "internalType": "address",
          "name": "from",
          "type": "address"
        },
        {
          "internalType": "uint256",
          "name": "tokenId",
          "type": "uint256"
        },
        {
          "internalType": "bytes",
          "name": "data",
          "type": "bytes"
        }
      ],
      "name": "onERC721Received",
      "outputs": [
        {
          "internalType": "bytes4",
          "name": "",
          "type": "bytes4"
        }
      ],
      "stateMutability": "pure",
      "type": "function"
    },
    {
      "inputs": [
        {
          "internalType": "bytes32",
          "name": "role",
          "type": "bytes32"
        },
        {
          "internalType": "address",
          "name": "account",
          "type": "address"
        }
      ],
      "name": "renounceRole",
      "outputs": [],
      "stateMutability": "nonpayable",
      "type": "function"
    },
    {
      "inputs": [
        {
          "internalType": "bytes32",
          "name": "role",
          "type": "bytes32"
        },
        {
          "internalType": "address",
          "name": "account",
          "type": "address"
        }
      ],
      "name": "revokeRole",
      "outputs": [],
      "stateMutability": "nonpayable",
      "type": "function"
    },
    {
      "inputs": [],
      "name": "saleStartingTime",
      "outputs": [
        {
          "internalType": "uint256",
          "name": "",
          "type": "uint256"
        }
      ],
      "stateMutability": "view",
      "type": "function"
    },
    {
      "inputs": [
        {
          "internalType": "address[]",
          "name": "_validNftAddresses",
          "type": "address[]"
        }
      ],
      "name": "setNftAddresses",
      "outputs": [],
      "stateMutability": "nonpayable",
      "type": "function"
    },
    {
      "inputs": [
        {
          "internalType": "uint80[4]",
          "name": "prices",
          "type": "uint80[4]"
        }
      ],
      "name": "setPrices",
      "outputs": [],
      "stateMutability": "nonpayable",
      "type": "function"
    },
    {
      "inputs": [
        {
          "internalType": "uint256",
          "name": "_saleStartingTime",
          "type": "uint256"
        }
      ],
      "name": "setSaleStartingTime",
      "outputs": [],
      "stateMutability": "nonpayable",
      "type": "function"
    },
    {
      "inputs": [
        {
          "components": [
            {
              "internalType": "bool",
              "name": "notSpent",
              "type": "bool"
            },
            {
              "internalType": "uint248",
              "name": "rarity",
              "type": "uint248"
            }
          ],
          "internalType": "struct Router.WhitelistDetails[]",
          "name": "details",
          "type": "tuple[]"
        },
        {
          "internalType": "address[]",
          "name": "addresses",
          "type": "address[]"
        }
      ],
      "name": "setWhitelist",
      "outputs": [],
      "stateMutability": "nonpayable",
      "type": "function"
    },
    {
      "inputs": [
        {
          "internalType": "bytes4",
          "name": "interfaceId",
          "type": "bytes4"
        }
      ],
      "name": "supportsInterface",
      "outputs": [
        {
          "internalType": "bool",
          "name": "",
          "type": "bool"
        }
      ],
      "stateMutability": "view",
      "type": "function"
    },
    {
      "inputs": [
        {
          "internalType": "address",
          "name": "_platformFeeRecipient",
          "type": "address"
        }
      ],
      "name": "updateFeeRecipient",
      "outputs": [],
      "stateMutability": "nonpayable",
      "type": "function"
    },
    {
      "inputs": [
        {
          "internalType": "address",
          "name": "_nftAddress",
          "type": "address"
        },
        {
          "internalType": "uint256",
          "name": "_tokenId",
          "type": "uint256"
        },
        {
          "internalType": "uint80",
          "name": "_newPrice",
          "type": "uint80"
        }
      ],
      "name": "updateListing",
      "outputs": [],
      "stateMutability": "nonpayable",
      "type": "function"
    },
    {
      "inputs": [
        {
          "internalType": "uint16",
          "name": "_fee",
          "type": "uint16"
        }
      ],
      "name": "updatePlatformFee",
      "outputs": [],
      "stateMutability": "nonpayable",
      "type": "function"
    },
    {
      "inputs": [
        {
          "internalType": "address",
          "name": "",
          "type": "address"
        }
      ],
      "name": "validNfts",
      "outputs": [
        {
          "internalType": "bool",
          "name": "",
          "type": "bool"
        }
      ],
      "stateMutability": "view",
      "type": "function"
    },
    {
      "inputs": [
        {
          "internalType": "address",
          "name": "_address",
          "type": "address"
        }
      ],
      "name": "withdraw",
      "outputs": [],
      "stateMutability": "nonpayable",
      "type": "function"
    }
  ],
  "bytecode": "0x608060405260028054600160a01b600160f01b03191664b1a2bc2ec560b11b179055600380546001600160f01b0319167c056bc75e2d63100000000022b1c8c1227a0000000006f05b59d3b200001790553480156200005d57600080fd5b506040516200276d3803806200276d8339810160408190526200008091620001f9565b600180556001600160a01b038116620000df5760405162461bcd60e51b815260206004820152601d60248201527f526f757465723a2041646d696e206973207a65726f2061646472657373000000604482015260640160405180910390fd5b600280546001600160a01b038084166001600160a01b0319909216919091179091556008805491841662010000026001600160b01b031990921661ffff861617919091179055620001326000826200013b565b5050506200024b565b6000828152602081815260408083206001600160a01b038516845290915290205460ff16620001d8576000828152602081815260408083206001600160a01b03851684529091529020805460ff19166001179055620001973390565b6001600160a01b0316816001600160a01b0316837f2f8788117e7eff1d82e926ec794901d17c78024a50270940304540a733656f0d60405160405180910390a45b5050565b80516001600160a01b0381168114620001f457600080fd5b919050565b6000806000606084860312156200020f57600080fd5b835161ffff811681146200022257600080fd5b92506200023260208501620001dc565b91506200024260408501620001dc565b90509250925092565b612512806200025b6000396000f3fe6080604052600436106101e25760003560e01c8063969a8ff311610102578063bdc71fb811610095578063d519989911610064578063d5199899146106ad578063d547741f146106d4578063ddca3f43146106f4578063f160d3691461072257600080fd5b8063bdc71fb81461061f578063c4fcfcb814610646578063ce2a1bfc14610666578063cedc0b341461068657600080fd5b8063a3fa2772116100d1578063a3fa27721461059f578063afb06952146105bf578063b2ddee06146105df578063b7563724146105ff57600080fd5b8063969a8ff31461052757806399df4e58146105575780639f37092a14610577578063a217fddf1461058a57600080fd5b806336568abe1161017a5780636602ea76116101495780636602ea761461049d578063797669c9146104b35780638b372d59146104e757806391d148541461050757600080fd5b806336568abe146103ff578063469048401461041f5780634b12e8831461045d57806351cff8d91461047d57600080fd5b806326661eb0116101b657806326661eb01461031957806327e235e3146103785780632e119c79146103a55780632f2ff15d146103dd57600080fd5b806207df30146101e757806301ffc9a714610266578063150b7a0214610296578063248a9ca3146102db575b600080fd5b3480156101f357600080fd5b5061023a610202366004611e19565b60046020908152600092835260408084209091529082529020546001600160a01b03811690600160a01b90046001600160501b031682565b604080516001600160a01b0390931683526001600160501b039091166020830152015b60405180910390f35b34801561027257600080fd5b50610286610281366004611e43565b610742565b604051901515815260200161025d565b3480156102a257600080fd5b506102c26102b1366004611e6d565b630a85bd0160e11b95945050505050565b6040516001600160e01b0319909116815260200161025d565b3480156102e757600080fd5b5061030b6102f6366004611f08565b60009081526020819052604090206001015490565b60405190815260200161025d565b34801561032557600080fd5b50610359610334366004611f21565b60066020526000908152604090205460ff81169061010090046001600160f81b031682565b6040805192151583526001600160f81b0390911660208301520161025d565b34801561038457600080fd5b5061030b610393366004611f21565b60096020526000908152604090205481565b3480156103b157600080fd5b506003546103c5906001600160501b031681565b6040516001600160501b03909116815260200161025d565b3480156103e957600080fd5b506103fd6103f8366004611f3c565b610779565b005b34801561040b57600080fd5b506103fd61041a366004611f3c565b6107a3565b34801561042b57600080fd5b50600854610445906201000090046001600160a01b031681565b6040516001600160a01b03909116815260200161025d565b34801561046957600080fd5b506103fd610478366004611fb4565b610826565b34801561048957600080fd5b506103fd610498366004611f21565b6108af565b3480156104a957600080fd5b5061030b60075481565b3480156104bf57600080fd5b5061030b7f71f3d55856e4058ed06ee057d79ada615f65cdf5f9ee88181b914225088f834f81565b3480156104f357600080fd5b506103fd610502366004611ff6565b6109f0565b34801561051357600080fd5b50610286610522366004611f3c565b610ad8565b34801561053357600080fd5b50610286610542366004611f21565b60056020526000908152604090205460ff1681565b34801561056357600080fd5b506103fd6105723660046120a7565b610b01565b6103fd610585366004611e19565b610ca1565b34801561059657600080fd5b5061030b600081565b3480156105ab57600080fd5b506103fd6105ba3660046120a7565b61127f565b3480156105cb57600080fd5b506103fd6105da3660046120e3565b6114d0565b3480156105eb57600080fd5b506103fd6105fa366004611e19565b611527565b34801561060b57600080fd5b506103fd61061a366004612107565b611783565b34801561062b57600080fd5b506003546103c590600160a01b90046001600160501b031681565b34801561065257600080fd5b506103fd610661366004611f08565b611874565b34801561067257600080fd5b506103fd61068136600461212f565b611885565b34801561069257600080fd5b506003546103c590600160501b90046001600160501b031681565b3480156106b957600080fd5b506002546103c590600160a01b90046001600160501b031681565b3480156106e057600080fd5b506103fd6106ef366004611f3c565b6119fe565b34801561070057600080fd5b5060085461070f9061ffff1681565b60405161ffff909116815260200161025d565b34801561072e57600080fd5b506103fd61073d366004611f21565b611a23565b60006001600160e01b03198216637965db0b60e01b148061077357506301ffc9a760e01b6001600160e01b03198316145b92915050565b60008281526020819052604090206001015461079481611a86565b61079e8383611a93565b505050565b6001600160a01b03811633146108185760405162461bcd60e51b815260206004820152602f60248201527f416363657373436f6e74726f6c3a2063616e206f6e6c792072656e6f756e636560448201526e103937b632b9903337b91039b2b63360891b60648201526084015b60405180910390fd5b6108228282611b17565b5050565b600061083181611a86565b60005b60ff81168311156108a95760016005600086868560ff1681811061085a5761085a612189565b905060200201602081019061086f9190611f21565b6001600160a01b031681526020810191909152604001600020805460ff1916911515919091179055806108a1816121b5565b915050610834565b50505050565b600260015414156108d25760405162461bcd60e51b815260040161080f906121d5565b60026001556001600160a01b0381166000908152600960205260409020546109335760405162461bcd60e51b8152602060048201526014602482015273526f757465723a205a65726f2062616c616e636560601b604482015260640161080f565b6001600160a01b038116600081815260096020526040808220805490839055905190929083908381818185875af1925050503d8060008114610991576040519150601f19603f3d011682016040523d82523d6000602084013e610996565b606091505b50509050806109e75760405162461bcd60e51b815260206004820152601760248201527f526f757465723a205472616e73666572206661696c6564000000000000000000604482015260640161080f565b50506001805550565b60006109fb81611a86565b838214610a4a5760405162461bcd60e51b815260206004820181905260248201527f526f757465723a20696e76616c696420617267756d656e7473206c656e677468604482015260640161080f565b60005b84811015610ad057858582818110610a6757610a67612189565b90506040020160066000868685818110610a8357610a83612189565b9050602002016020810190610a989190611f21565b6001600160a01b031681526020810191909152604001600020610abb828261220c565b50819050610ac881612258565b915050610a4d565b505050505050565b6000918252602082815260408084206001600160a01b0393909316845291905290205460ff1690565b6001600160a01b038381166000908152600460209081526040808320868452825291829020825180840190935254928316808352600160a01b9093046001600160501b0316908201528491849190610b6b5760405162461bcd60e51b815260040161080f90612273565b6001600160a01b03861660009081526004602090815260408083208884529091529020610bb87f71f3d55856e4058ed06ee057d79ada615f65cdf5f9ee88181b914225088f834f33610ad8565b610c1e5780546001600160a01b0316336001600160a01b031614610c1e5760405162461bcd60e51b815260206004820152601e60248201527f526f757465723a206f6e6c792073656c6c65722063616e207570646174650000604482015260640161080f565b805469ffffffffffffffffffff60a01b1916600160a01b6001600160501b03871602178155336001600160a01b03167fc95d2716b79a5cc3b6d5bd16e0f70d7ffb7a544e9ec270c2c0b96f04d2e3c35a8787604051610c909291909182526001600160501b0316602082015260400190565b60405180910390a250505050505050565b6001600160a01b038281166000908152600460209081526040808320858452825291829020825180840190935254928316808352600160a01b9093046001600160501b0316908201528391839190610d0b5760405162461bcd60e51b815260040161080f90612273565b6001600160a01b038516600090815260056020526040902054859060ff16610d455760405162461bcd60e51b815260040161080f906122aa565b6001600160a01b03808716600090815260046020908152604080832089845282528083205490931682526005905220548690869060ff1615610dd357600754421015610dd35760405162461bcd60e51b815260206004820152601c60248201527f526f757465723a2053616c65206e6f7420737461727465642079657400000000604482015260640161080f565b60026001541415610df65760405162461bcd60e51b815260040161080f906121d5565b60026001556001600160a01b0388811660009081526004602090815260408083208b845282528083208151808301835290549485168152600160a01b9094046001600160501b031684830152338352600690915281205460ff1615610f8357604051634875869760e01b8152600481018a90526000906001600160a01b038c1690634875869790602401602060405180830381865afa158015610e9d573d6000803e3d6000fd5b505050506040513d601f19601f82011682018060405250810190610ec191906122f6565b3360009081526006602052604090205490915061010090046001600160f81b0316811415610f7d5760028360200151610efa919061230f565b6001600160501b0316341015610f525760405162461bcd60e51b815260206004820152601c60248201527f526f757465723a20496e73756666696369656e742062616c616e636500000000604482015260640161080f565b60028360200151610f63919061230f565b336000908152600660205260409020805460ff1916905591505b50610fe7565b81602001516001600160501b0316341015610fe05760405162461bcd60e51b815260206004820152601c60248201527f526f757465723a20496e73756666696369656e742062616c616e636500000000604482015260640161080f565b5060208101515b6008546000906103e890610fff9061ffff1684612343565b611009919061230f565b6001600160a01b03808d1660009081526004602090815260408083208f8452825280832080546001600160f01b031916905560085462010000900490931682526009905290812080546001600160501b039390931693508392909190611070908490612372565b909155506000905061108b826001600160501b03851661238a565b84516001600160a01b031660009081526005602052604090205490915060ff16156110eb576008546201000090046001600160a01b0316600090815260096020526040812080548392906110e0908490612372565b9091555061111a9050565b83516001600160a01b031660009081526009602052604081208054839290611114908490612372565b90915550505b83516001600160a01b031660009081526005602052604090205460ff16156111b1576001600160a01b038c166374445a6f336040516001600160e01b031960e084901b1681526001600160a01b039091166004820152602481018e9052604401600060405180830381600087803b15801561119457600080fd5b505af11580156111a8573d6000803e3d6000fd5b5050505061121e565b60408051632142170760e11b8152306004820152336024820152604481018d905290516001600160a01b038e16916342842e0e91606480830192600092919082900301818387803b15801561120557600080fd5b505af1158015611219573d6000803e3d6000fd5b505050505b8351604080518d81526001600160501b038616602082015233926001600160a01b0316917f7202a24bf2b0e85a50bae88ee71f943deda668dd7cbac7c35a6d168236f655ff910160405180910390a350506001805550505050505050505050565b6001600160a01b038381166000908152600460209081526040808320868452825291829020825180840190935254928316808352600160a01b9093046001600160501b03169082015284918491901561131a5760405162461bcd60e51b815260206004820152601b60248201527f526f757465723a204974656d20616c7265616479206c69737465640000000000604482015260640161080f565b6001600160a01b038616600090815260056020526040902054869060ff166113545760405162461bcd60e51b815260040161080f906122aa565b600260015414156113775760405162461bcd60e51b815260040161080f906121d5565b6002600155866001600160a01b0381166342842e0e336040516001600160e01b031960e084901b1681526001600160a01b039091166004820152306024820152604481018a9052606401600060405180830381600087803b1580156113db57600080fd5b505af11580156113ef573d6000803e3d6000fd5b5050505060405180604001604052806114053390565b6001600160a01b0390811682526001600160501b03808a166020938401528b821660009081526004845260408082208d835285529020845181549590940151909116600160a01b026001600160f01b0319909416929091169190911791909117905561146e3390565b6001600160a01b03167f93d8c199705c4926143fca513aa87f39f74f73c2d11a0ec59ec0537bc98e1b4088886040516114ba9291909182526001600160501b0316602082015260400190565b60405180910390a2505060018055505050505050565b60006114db81611a86565b6008805461ffff191661ffff84169081179091556040519081527fcabead39256298cdf7d1228eee68b47bc54a2192283d8d93574da08d2d7ac303906020015b60405180910390a15050565b6001600160a01b038281166000908152600460209081526040808320858452825291829020825180840190935254928316808352600160a01b9093046001600160501b03169082015283918391906115915760405162461bcd60e51b815260040161080f90612273565b6001600160a01b038516600090815260056020526040902054859060ff166115cb5760405162461bcd60e51b815260040161080f906122aa565b600260015414156115ee5760405162461bcd60e51b815260040161080f906121d5565b60026001556001600160a01b038681166000908152600460209081526040808320898452909152902054163381148061164c575061164c7f71f3d55856e4058ed06ee057d79ada615f65cdf5f9ee88181b914225088f834f33610ad8565b6116a75760405162461bcd60e51b815260206004820152602660248201527f526f757465723a20596f75277265206e6f742073656c6c6572206f72206d6f6460448201526532b930ba37b960d11b606482015260840161080f565b604051632142170760e11b81523060048201526001600160a01b038281166024830152604482018890528816906342842e0e90606401600060405180830381600087803b1580156116f757600080fd5b505af115801561170b573d6000803e3d6000fd5b505050506001600160a01b0387811660009081526004602090815260408083208a845282529182902080546001600160f01b03191690559051888152918316917ff86e54241e209ee4b38db8e64af9614b083d18f23c32f3293c8a87c6b8bf8943910160405180910390a25050600180555050505050565b600061178e81611a86565b61179b60208301836123a1565b600280546001600160501b0392909216600160a01b0269ffffffffffffffffffff60a01b199092169190911790556117d960408301602084016123a1565b6003805469ffffffffffffffffffff19166001600160501b039290921691909117905561180c60608301604084016123a1565b600380546001600160501b0392909216600160501b0269ffffffffffffffffffff60501b1990921691909117905561184a60808301606084016123a1565b600360146101000a8154816001600160501b0302191690836001600160501b031602179055505050565b600061187f81611a86565b50600755565b6001600160a01b038416600090815260056020526040902054849060ff166118bf5760405162461bcd60e51b815260040161080f906122aa565b60006118ca81611a86565b60006118d584611b7c565b905060005b858110156119f4576040805180820182526001600160a01b038a168082526001600160501b038516602080840191909152600091825260049052918220909189898581811061192b5761192b612189565b60209081029290920135835250818101929092526040016000208251815493909201516001600160501b0316600160a01b026001600160f01b03199093166001600160a01b0390921691909117919091179055307f93d8c199705c4926143fca513aa87f39f74f73c2d11a0ec59ec0537bc98e1b408888848181106119b2576119b2612189565b90506020020135846040516119da9291909182526001600160501b0316602082015260400190565b60405180910390a2806119ec81612258565b9150506118da565b5050505050505050565b600082815260208190526040902060010154611a1981611a86565b61079e8383611b17565b6000611a2e81611a86565b6008805462010000600160b01b031916620100006001600160a01b038516908102919091179091556040519081527fe57e7c1f36cc83fade34e32351e6eee7eb9da532662b1b5da10c631e8222aca79060200161151b565b611a908133611bfb565b50565b611a9d8282610ad8565b610822576000828152602081815260408083206001600160a01b03851684529091529020805460ff19166001179055611ad33390565b6001600160a01b0316816001600160a01b0316837f2f8788117e7eff1d82e926ec794901d17c78024a50270940304540a733656f0d60405160405180910390a45050565b611b218282610ad8565b15610822576000828152602081815260408083206001600160a01b0385168085529252808320805460ff1916905551339285917ff6391f5c32d9c69d2a47ea670b442974b53935d1edc7fd64eb21e047a839171b9190a45050565b600081611b9c5750600254600160a01b90046001600160501b0316919050565b6001821415611bb65750506003546001600160501b031690565b6002821415611bd85750600354600160501b90046001600160501b0316919050565b6003821415611bf65750600354600160a01b90046001600160501b03165b919050565b611c058282610ad8565b61082257611c1d816001600160a01b03166014611c5f565b611c28836020611c5f565b604051602001611c399291906123e8565b60408051601f198184030181529082905262461bcd60e51b825261080f9160040161245d565b60606000611c6e836002612490565b611c79906002612372565b67ffffffffffffffff811115611c9157611c916124af565b6040519080825280601f01601f191660200182016040528015611cbb576020820181803683370190505b509050600360fc1b81600081518110611cd657611cd6612189565b60200101906001600160f81b031916908160001a905350600f60fb1b81600181518110611d0557611d05612189565b60200101906001600160f81b031916908160001a9053506000611d29846002612490565b611d34906001612372565b90505b6001811115611dac576f181899199a1a9b1b9c1cb0b131b232b360811b85600f1660108110611d6857611d68612189565b1a60f81b828281518110611d7e57611d7e612189565b60200101906001600160f81b031916908160001a90535060049490941c93611da5816124c5565b9050611d37565b508315611dfb5760405162461bcd60e51b815260206004820181905260248201527f537472696e67733a20686578206c656e67746820696e73756666696369656e74604482015260640161080f565b9392505050565b80356001600160a01b0381168114611bf657600080fd5b60008060408385031215611e2c57600080fd5b611e3583611e02565b946020939093013593505050565b600060208284031215611e5557600080fd5b81356001600160e01b031981168114611dfb57600080fd5b600080600080600060808688031215611e8557600080fd5b611e8e86611e02565b9450611e9c60208701611e02565b935060408601359250606086013567ffffffffffffffff80821115611ec057600080fd5b818801915088601f830112611ed457600080fd5b813581811115611ee357600080fd5b896020828501011115611ef557600080fd5b9699959850939650602001949392505050565b600060208284031215611f1a57600080fd5b5035919050565b600060208284031215611f3357600080fd5b611dfb82611e02565b60008060408385031215611f4f57600080fd5b82359150611f5f60208401611e02565b90509250929050565b60008083601f840112611f7a57600080fd5b50813567ffffffffffffffff811115611f9257600080fd5b6020830191508360208260051b8501011115611fad57600080fd5b9250929050565b60008060208385031215611fc757600080fd5b823567ffffffffffffffff811115611fde57600080fd5b611fea85828601611f68565b90969095509350505050565b6000806000806040858703121561200c57600080fd5b843567ffffffffffffffff8082111561202457600080fd5b818701915087601f83011261203857600080fd5b81358181111561204757600080fd5b8860208260061b850101111561205c57600080fd5b60209283019650945090860135908082111561207757600080fd5b5061208487828801611f68565b95989497509550505050565b80356001600160501b0381168114611bf657600080fd5b6000806000606084860312156120bc57600080fd5b6120c584611e02565b9250602084013591506120da60408501612090565b90509250925092565b6000602082840312156120f557600080fd5b813561ffff81168114611dfb57600080fd5b60006080828403121561211957600080fd5b8260808301111561212957600080fd5b50919050565b6000806000806060858703121561214557600080fd5b61214e85611e02565b9350602085013567ffffffffffffffff81111561216a57600080fd5b61217687828801611f68565b9598909750949560400135949350505050565b634e487b7160e01b600052603260045260246000fd5b634e487b7160e01b600052601160045260246000fd5b600060ff821660ff8114156121cc576121cc61219f565b60010192915050565b6020808252601f908201527f5265656e7472616e637947756172643a207265656e7472616e742063616c6c00604082015260600190565b813580151580821461221d57600080fd5b825460ff9190911660ff199182168117845590915060208401356001600160f81b038116811461224c57600080fd5b60081b90911617905550565b600060001982141561226c5761226c61219f565b5060010190565b60208082526017908201527f526f757465723a204974656d206e6f74206c6973746564000000000000000000604082015260600190565b6020808252602c908201527f526f757465723a204e667441646472657373206e6f7420696e636c756465642060408201526b696e2076616c69644e66747360a01b606082015260800190565b60006020828403121561230857600080fd5b5051919050565b60006001600160501b038084168061233757634e487b7160e01b600052601260045260246000fd5b92169190910492915050565b60006001600160501b03808316818516818304811182151516156123695761236961219f565b02949350505050565b600082198211156123855761238561219f565b500190565b60008282101561239c5761239c61219f565b500390565b6000602082840312156123b357600080fd5b611dfb82612090565b60005b838110156123d75781810151838201526020016123bf565b838111156108a95750506000910152565b7f416363657373436f6e74726f6c3a206163636f756e74200000000000000000008152600083516124208160178501602088016123bc565b7001034b99036b4b9b9b4b733903937b6329607d1b60179184019182015283516124518160288401602088016123bc565b01602801949350505050565b602081526000825180602084015261247c8160408501602087016123bc565b601f01601f19169190910160400192915050565b60008160001904831182151516156124aa576124aa61219f565b500290565b634e487b7160e01b600052604160045260246000fd5b6000816124d4576124d461219f565b50600019019056fea2646970667358221220825967e2103ceeeff45b7c618f45b1c2abcbf927999972438383ff0e7d8999a064736f6c634300080a0033",
  "linkReferences": {},
  "deployedLinkReferences": {}
}