{
  "_format": "hh-sol-artifact-1",
  "contractName": "Router",
  "sourceName": "contracts/Router.sol",
  "abi": [
    {
      "inputs": [
        {
          "internalType": "uint16",
          "name": "_fee",
          "type": "uint16"
        },
        {
          "internalType": "address",
          "name": "_feeRecipient",
          "type": "address"
        },
        {
          "internalType": "address",
          "name": "_admin",
          "type": "address"
        }
      ],
      "stateMutability": "nonpayable",
      "type": "constructor"
    },
    {
      "anonymous": false,
      "inputs": [
        {
          "indexed": true,
          "internalType": "address",
          "name": "seller",
          "type": "address"
        },
        {
          "indexed": false,
          "internalType": "uint256",
          "name": "tokenId",
          "type": "uint256"
        }
      ],
      "name": "ItemCanceled",
      "type": "event"
    },
    {
      "anonymous": false,
      "inputs": [
        {
          "indexed": true,
          "internalType": "address",
          "name": "seller",
          "type": "address"
        },
        {
          "indexed": false,
          "internalType": "uint256",
          "name": "tokenId",
          "type": "uint256"
        },
        {
          "indexed": false,
          "internalType": "uint256",
          "name": "price",
          "type": "uint256"
        },
        {
          "indexed": false,
          "internalType": "uint256",
          "name": "startingTime",
          "type": "uint256"
        }
      ],
      "name": "ItemListed",
      "type": "event"
    },
    {
      "anonymous": false,
      "inputs": [
        {
          "indexed": true,
          "internalType": "address",
          "name": "seller",
          "type": "address"
        },
        {
          "indexed": true,
          "internalType": "address",
          "name": "buyer",
          "type": "address"
        },
        {
          "indexed": false,
          "internalType": "uint256",
          "name": "tokenId",
          "type": "uint256"
        },
        {
          "indexed": false,
          "internalType": "uint256",
          "name": "price",
          "type": "uint256"
        }
      ],
      "name": "ItemSold",
      "type": "event"
    },
    {
      "anonymous": false,
      "inputs": [
        {
          "indexed": true,
          "internalType": "address",
          "name": "seller",
          "type": "address"
        },
        {
          "indexed": false,
          "internalType": "uint256",
          "name": "tokenId",
          "type": "uint256"
        },
        {
          "indexed": false,
          "internalType": "uint256",
          "name": "newPrice",
          "type": "uint256"
        },
        {
          "indexed": false,
          "internalType": "address",
          "name": "addressForPayment",
          "type": "address"
        }
      ],
      "name": "ItemUpdated",
      "type": "event"
    },
    {
      "anonymous": false,
      "inputs": [
        {
          "indexed": true,
          "internalType": "bytes32",
          "name": "role",
          "type": "bytes32"
        },
        {
          "indexed": true,
          "internalType": "bytes32",
          "name": "previousAdminRole",
          "type": "bytes32"
        },
        {
          "indexed": true,
          "internalType": "bytes32",
          "name": "newAdminRole",
          "type": "bytes32"
        }
      ],
      "name": "RoleAdminChanged",
      "type": "event"
    },
    {
      "anonymous": false,
      "inputs": [
        {
          "indexed": true,
          "internalType": "bytes32",
          "name": "role",
          "type": "bytes32"
        },
        {
          "indexed": true,
          "internalType": "address",
          "name": "account",
          "type": "address"
        },
        {
          "indexed": true,
          "internalType": "address",
          "name": "sender",
          "type": "address"
        }
      ],
      "name": "RoleGranted",
      "type": "event"
    },
    {
      "anonymous": false,
      "inputs": [
        {
          "indexed": true,
          "internalType": "bytes32",
          "name": "role",
          "type": "bytes32"
        },
        {
          "indexed": true,
          "internalType": "address",
          "name": "account",
          "type": "address"
        },
        {
          "indexed": true,
          "internalType": "address",
          "name": "sender",
          "type": "address"
        }
      ],
      "name": "RoleRevoked",
      "type": "event"
    },
    {
      "anonymous": false,
      "inputs": [
        {
          "indexed": false,
          "internalType": "uint16",
          "name": "platformFee",
          "type": "uint16"
        }
      ],
      "name": "UpdatePlatformFee",
      "type": "event"
    },
    {
      "anonymous": false,
      "inputs": [
        {
          "indexed": false,
          "internalType": "address",
          "name": "platformFeeRecipient",
          "type": "address"
        }
      ],
      "name": "UpdatePlatformFeeRecipient",
      "type": "event"
    },
    {
      "inputs": [],
      "name": "COMMON_PRICE",
      "outputs": [
        {
          "internalType": "uint256",
          "name": "",
          "type": "uint256"
        }
      ],
      "stateMutability": "view",
      "type": "function"
    },
    {
      "inputs": [],
      "name": "DEFAULT_ADMIN_ROLE",
      "outputs": [
        {
          "internalType": "bytes32",
          "name": "",
          "type": "bytes32"
        }
      ],
      "stateMutability": "view",
      "type": "function"
    },
    {
      "inputs": [],
      "name": "EPIC_PRICE",
      "outputs": [
        {
          "internalType": "uint256",
          "name": "",
          "type": "uint256"
        }
      ],
      "stateMutability": "view",
      "type": "function"
    },
    {
      "inputs": [],
      "name": "LEGENDARY_PRICE",
      "outputs": [
        {
          "internalType": "uint256",
          "name": "",
          "type": "uint256"
        }
      ],
      "stateMutability": "view",
      "type": "function"
    },
    {
      "inputs": [],
      "name": "MODERATOR_ROLE",
      "outputs": [
        {
          "internalType": "bytes32",
          "name": "",
          "type": "bytes32"
        }
      ],
      "stateMutability": "view",
      "type": "function"
    },
    {
      "inputs": [],
      "name": "RARE_PRICE",
      "outputs": [
        {
          "internalType": "uint256",
          "name": "",
          "type": "uint256"
        }
      ],
      "stateMutability": "view",
      "type": "function"
    },
    {
      "inputs": [
        {
          "internalType": "address",
          "name": "",
          "type": "address"
        }
      ],
      "name": "balances",
      "outputs": [
        {
          "internalType": "uint256",
          "name": "",
          "type": "uint256"
        }
      ],
      "stateMutability": "view",
      "type": "function"
    },
    {
      "inputs": [
        {
          "internalType": "address",
          "name": "_nftAddress",
          "type": "address"
        },
        {
          "internalType": "uint256",
          "name": "_tokenId",
          "type": "uint256"
        }
      ],
      "name": "buyItem",
      "outputs": [],
      "stateMutability": "payable",
      "type": "function"
    },
    {
      "inputs": [
        {
          "internalType": "address",
          "name": "_nftAddress",
          "type": "address"
        },
        {
          "internalType": "uint256",
          "name": "_tokenId",
          "type": "uint256"
        }
      ],
      "name": "cancelListing",
      "outputs": [],
      "stateMutability": "nonpayable",
      "type": "function"
    },
    {
      "inputs": [],
      "name": "fee",
      "outputs": [
        {
          "internalType": "uint16",
          "name": "",
          "type": "uint16"
        }
      ],
      "stateMutability": "view",
      "type": "function"
    },
    {
      "inputs": [],
      "name": "feeRecipient",
      "outputs": [
        {
          "internalType": "address",
          "name": "",
          "type": "address"
        }
      ],
      "stateMutability": "view",
      "type": "function"
    },
    {
      "inputs": [
        {
          "internalType": "bytes32",
          "name": "role",
          "type": "bytes32"
        }
      ],
      "name": "getRoleAdmin",
      "outputs": [
        {
          "internalType": "bytes32",
          "name": "",
          "type": "bytes32"
        }
      ],
      "stateMutability": "view",
      "type": "function"
    },
    {
      "inputs": [
        {
          "internalType": "bytes32",
          "name": "role",
          "type": "bytes32"
        },
        {
          "internalType": "address",
          "name": "account",
          "type": "address"
        }
      ],
      "name": "grantRole",
      "outputs": [],
      "stateMutability": "nonpayable",
      "type": "function"
    },
    {
      "inputs": [
        {
          "internalType": "bytes32",
          "name": "role",
          "type": "bytes32"
        },
        {
          "internalType": "address",
          "name": "account",
          "type": "address"
        }
      ],
      "name": "hasRole",
      "outputs": [
        {
          "internalType": "bool",
          "name": "",
          "type": "bool"
        }
      ],
      "stateMutability": "view",
      "type": "function"
    },
    {
      "inputs": [
        {
          "internalType": "address",
          "name": "_nftAddress",
          "type": "address"
        },
        {
          "internalType": "uint256",
          "name": "_tokenId",
          "type": "uint256"
        },
        {
          "internalType": "uint256",
          "name": "_price",
          "type": "uint256"
        },
        {
          "internalType": "uint256",
          "name": "_rarity",
          "type": "uint256"
        },
        {
          "internalType": "uint256",
          "name": "_startingTime",
          "type": "uint256"
        },
        {
          "internalType": "address",
          "name": "_paymentReceiver",
          "type": "address"
        }
      ],
      "name": "listItem",
      "outputs": [],
      "stateMutability": "nonpayable",
      "type": "function"
    },
    {
      "inputs": [
        {
          "internalType": "address",
          "name": "_nftAddress",
          "type": "address"
        },
        {
          "internalType": "uint256[]",
          "name": "_tokenIds",
          "type": "uint256[]"
        },
        {
          "internalType": "uint256",
          "name": "_price",
          "type": "uint256"
        },
        {
          "internalType": "uint256",
          "name": "_rarity",
          "type": "uint256"
        },
        {
          "internalType": "uint256",
          "name": "_startingTime",
          "type": "uint256"
        }
      ],
      "name": "listItemBundle",
      "outputs": [],
      "stateMutability": "nonpayable",
      "type": "function"
    },
    {
      "inputs": [
        {
          "internalType": "address",
          "name": "",
          "type": "address"
        },
        {
          "internalType": "uint256",
          "name": "",
          "type": "uint256"
        }
      ],
      "name": "listings",
      "outputs": [
        {
          "internalType": "address",
          "name": "seller",
          "type": "address"
        },
        {
          "internalType": "address",
          "name": "paymentReceiver",
          "type": "address"
        },
        {
          "internalType": "uint256",
          "name": "price",
          "type": "uint256"
        },
        {
          "internalType": "uint256",
          "name": "rarity",
          "type": "uint256"
        },
        {
          "internalType": "uint256",
          "name": "startingTime",
          "type": "uint256"
        }
      ],
      "stateMutability": "view",
      "type": "function"
    },
    {
      "inputs": [
        {
          "internalType": "address",
          "name": "operator",
          "type": "address"
        },
        {
          "internalType": "address",
          "name": "from",
          "type": "address"
        },
        {
          "internalType": "uint256",
          "name": "tokenId",
          "type": "uint256"
        },
        {
          "internalType": "bytes",
          "name": "data",
          "type": "bytes"
        }
      ],
      "name": "onERC721Received",
      "outputs": [
        {
          "internalType": "bytes4",
          "name": "",
          "type": "bytes4"
        }
      ],
      "stateMutability": "nonpayable",
      "type": "function"
    },
    {
      "inputs": [
        {
          "internalType": "bytes32",
          "name": "role",
          "type": "bytes32"
        },
        {
          "internalType": "address",
          "name": "account",
          "type": "address"
        }
      ],
      "name": "renounceRole",
      "outputs": [],
      "stateMutability": "nonpayable",
      "type": "function"
    },
    {
      "inputs": [
        {
          "internalType": "bytes32",
          "name": "role",
          "type": "bytes32"
        },
        {
          "internalType": "address",
          "name": "account",
          "type": "address"
        }
      ],
      "name": "revokeRole",
      "outputs": [],
      "stateMutability": "nonpayable",
      "type": "function"
    },
    {
      "inputs": [
        {
          "internalType": "address[]",
          "name": "_validNftAddresses",
          "type": "address[]"
        }
      ],
      "name": "setNftAddresses",
      "outputs": [],
      "stateMutability": "nonpayable",
      "type": "function"
    },
    {
      "inputs": [
        {
          "internalType": "bytes4",
          "name": "interfaceId",
          "type": "bytes4"
        }
      ],
      "name": "supportsInterface",
      "outputs": [
        {
          "internalType": "bool",
          "name": "",
          "type": "bool"
        }
      ],
      "stateMutability": "view",
      "type": "function"
    },
    {
      "inputs": [
        {
          "internalType": "address",
          "name": "_platformFeeRecipient",
          "type": "address"
        }
      ],
      "name": "updateFeeRecipient",
      "outputs": [],
      "stateMutability": "nonpayable",
      "type": "function"
    },
    {
      "inputs": [
        {
          "internalType": "address",
          "name": "_nftAddress",
          "type": "address"
        },
        {
          "internalType": "uint256",
          "name": "_tokenId",
          "type": "uint256"
        },
        {
          "internalType": "address",
          "name": "_newPaymentReceiver",
          "type": "address"
        },
        {
          "internalType": "uint256",
          "name": "_newPrice",
          "type": "uint256"
        }
      ],
      "name": "updateListing",
      "outputs": [],
      "stateMutability": "nonpayable",
      "type": "function"
    },
    {
      "inputs": [
        {
          "internalType": "uint16",
          "name": "_fee",
          "type": "uint16"
        }
      ],
      "name": "updatePlatformFee",
      "outputs": [],
      "stateMutability": "nonpayable",
      "type": "function"
    },
    {
      "inputs": [
        {
          "internalType": "address",
          "name": "",
          "type": "address"
        }
      ],
      "name": "validNfts",
      "outputs": [
        {
          "internalType": "bool",
          "name": "",
          "type": "bool"
        }
      ],
      "stateMutability": "view",
      "type": "function"
    },
    {
      "inputs": [
        {
          "internalType": "address",
          "name": "_address",
          "type": "address"
        }
      ],
      "name": "withdraw",
      "outputs": [],
      "stateMutability": "nonpayable",
      "type": "function"
    }
  ],
  "bytecode": "0x60806040523480156200001157600080fd5b5060405162002436380380620024368339810160408190526200003491620001ad565b600180556001600160a01b038116620000935760405162461bcd60e51b815260206004820152601d60248201527f526f757465723a2041646d696e206973207a65726f2061646472657373000000604482015260640160405180910390fd5b600280546001600160a01b038084166001600160a01b0319909216919091179091556005805491841662010000026001600160b01b031990921661ffff861617919091179055620000e6600082620000ef565b505050620001ff565b6000828152602081815260408083206001600160a01b038516845290915290205460ff166200018c576000828152602081815260408083206001600160a01b03851684529091529020805460ff191660011790556200014b3390565b6001600160a01b0316816001600160a01b0316837f2f8788117e7eff1d82e926ec794901d17c78024a50270940304540a733656f0d60405160405180910390a45b5050565b80516001600160a01b0381168114620001a857600080fd5b919050565b600080600060608486031215620001c357600080fd5b835161ffff81168114620001d657600080fd5b9250620001e66020850162000190565b9150620001f66040850162000190565b90509250925092565b612227806200020f6000396000f3fe60806040526004361061019b5760003560e01c8063969a8ff3116100ec578063cd8ebb221161008a578063d547741f11610064578063d547741f14610568578063ddca3f4314610588578063e984f2eb146105b6578063f160d369146105d657600080fd5b8063cd8ebb2214610510578063cedc0b3414610530578063d51998991461054c57600080fd5b8063a22bf636116100c6578063a22bf63614610493578063afb06952146104b3578063b2ddee06146104d3578063bdc71fb8146104f357600080fd5b8063969a8ff31461043b5780639f37092a1461046b578063a217fddf1461047e57600080fd5b80632f2ff15d116101595780634b12e883116101335780634b12e883146103a757806351cff8d9146103c7578063797669c9146103e757806391d148541461041b57600080fd5b80632f2ff15d1461032757806336568abe14610349578063469048401461036957600080fd5b806207df30146101a057806301ffc9a714610237578063150b7a0214610267578063248a9ca3146102a057806327e235e3146102de5780632e119c791461030b575b600080fd5b3480156101ac57600080fd5b506101ff6101bb366004611c20565b60036020818152600093845260408085209091529183529120805460018201546002830154938301546004909301546001600160a01b039283169492909116929085565b604080516001600160a01b039687168152959094166020860152928401919091526060830152608082015260a0015b60405180910390f35b34801561024357600080fd5b50610257610252366004611c4c565b6105f6565b604051901515815260200161022e565b34801561027357600080fd5b50610287610282366004611c76565b61062d565b6040516001600160e01b0319909116815260200161022e565b3480156102ac57600080fd5b506102d06102bb366004611d15565b60009081526020819052604090206001015490565b60405190815260200161022e565b3480156102ea57600080fd5b506102d06102f9366004611d2e565b60066020526000908152604090205481565b34801561031757600080fd5b506102d06706f05b59d3b2000081565b34801561033357600080fd5b50610347610342366004611d4b565b6107b9565b005b34801561035557600080fd5b50610347610364366004611d4b565b6107e3565b34801561037557600080fd5b5060055461038f906201000090046001600160a01b031681565b6040516001600160a01b03909116815260200161022e565b3480156103b357600080fd5b506103476103c2366004611dc7565b610861565b3480156103d357600080fd5b506103476103e2366004611d2e565b6108ea565b3480156103f357600080fd5b506102d07f71f3d55856e4058ed06ee057d79ada615f65cdf5f9ee88181b914225088f834f81565b34801561042757600080fd5b50610257610436366004611d4b565b610a2b565b34801561044757600080fd5b50610257610456366004611d2e565b60046020526000908152604090205460ff1681565b610347610479366004611c20565b610a54565b34801561048a57600080fd5b506102d0600081565b34801561049f57600080fd5b506103476104ae366004611e09565b610e86565b3480156104bf57600080fd5b506103476104ce366004611e78565b611108565b3480156104df57600080fd5b506103476104ee366004611c20565b61115f565b3480156104ff57600080fd5b506102d068056bc75e2d6310000081565b34801561051c57600080fd5b5061034761052b366004611e9c565b6113f6565b34801561053c57600080fd5b506102d06722b1c8c1227a000081565b34801561055857600080fd5b506102d067016345785d8a000081565b34801561057457600080fd5b50610347610583366004611d4b565b6116da565b34801561059457600080fd5b506005546105a39061ffff1681565b60405161ffff909116815260200161022e565b3480156105c257600080fd5b506103476105d1366004611efa565b6116ff565b3480156105e257600080fd5b506103476105f1366004611d2e565b6118ab565b60006001600160e01b03198216637965db0b60e01b148061062757506301ffc9a760e01b6001600160e01b03198316145b92915050565b60006001600160a01b03851630146106a95760405162461bcd60e51b815260206004820152603460248201527f526f757465723a20496e636f6d696e67204e4654206d757374206265206170706044820152731b1e5959081d1bc81d1a194818dbdb9d1c9858dd60621b60648201526084015b60405180910390fd5b60006106b783850185611d15565b90506000816106cf575067016345785d8a0000610714565b60018214156106e757506706f05b59d3b20000610714565b60028214156106ff57506722b1c8c1227a0000610714565b6003821415610714575068056bc75e2d631000005b6040805160a081018252600280546001600160a01b03908116808452602080850191825284860196875260608501978852426080860190815233600090815260038084528882209e82529d909252959020935184549083166001600160a01b031991821617855590516001850180549190931691161790559251928101929092559151958101959095555160049094019390935550630a85bd0160e11b949350505050565b6000828152602081905260409020600101546107d48161190e565b6107de838361191b565b505050565b6001600160a01b03811633146108535760405162461bcd60e51b815260206004820152602f60248201527f416363657373436f6e74726f6c3a2063616e206f6e6c792072656e6f756e636560448201526e103937b632b9903337b91039b2b63360891b60648201526084016106a0565b61085d828261199f565b5050565b600061086c8161190e565b60005b60ff81168311156108e45760016004600086868560ff1681811061089557610895611f42565b90506020020160208101906108aa9190611d2e565b6001600160a01b031681526020810191909152604001600020805460ff1916911515919091179055806108dc81611f6e565b91505061086f565b50505050565b6002600154141561090d5760405162461bcd60e51b81526004016106a090611f8e565b60026001556001600160a01b03811660009081526006602052604090205461096e5760405162461bcd60e51b8152602060048201526014602482015273526f757465723a205a65726f2062616c616e636560601b60448201526064016106a0565b6001600160a01b038116600081815260066020526040808220805490839055905190929083908381818185875af1925050503d80600081146109cc576040519150601f19603f3d011682016040523d82523d6000602084013e6109d1565b606091505b5050905080610a225760405162461bcd60e51b815260206004820152601760248201527f526f757465723a205472616e73666572206661696c656400000000000000000060448201526064016106a0565b50506001805550565b6000918252602082815260408084206001600160a01b0393909316845291905290205460ff1690565b6001600160a01b038083166000908152600360208181526040808420868552825292839020835160a0810185528154861680825260018301549096169281019290925260028101549382019390935290820154606082015260049091015460808201528391839190610ad85760405162461bcd60e51b81526004016106a090611fc5565b6001600160a01b038086166000908152600360208181526040808420898552825292839020835160a0810185528154861681526001820154909516918501919091526002810154928401929092528101546060830152600401546080820181905286918691421015610b8c5760405162461bcd60e51b815260206004820152601c60248201527f526f757465723a2053616c65206e6f742073746172746564207965740000000060448201526064016106a0565b60026001541415610baf5760405162461bcd60e51b81526004016106a090611f8e565b600260018181556001600160a01b03808b1660009081526003602081815260408084208e8552825292839020835160a08101855281548616815295810154909416908501529382015490830181905292810154606083015260040154608082015290341015610c605760405162461bcd60e51b815260206004820152601c60248201527f526f757465723a20496e73756666696369656e742062616c616e63650000000060448201526064016106a0565b60408101516005546000906103e890610c7d9061ffff1684611ffc565b610c87919061201b565b9050600360008c6001600160a01b03166001600160a01b0316815260200190815260200160002060008b8152602001908152602001600020600080820160006101000a8154906001600160a01b0302191690556001820160006101000a8154906001600160a01b03021916905560028201600090556003820160009055600482016000905550508060066000600560029054906101000a90046001600160a01b03166001600160a01b03166001600160a01b031681526020019081526020016000206000828254610d58919061203d565b90915550610d6890508183612055565b6020808501516001600160a01b031660009081526006909152604081208054909190610d9590849061203d565b909155505082516001600160a01b038c16906342842e0e90336040516001600160e01b031960e085901b1681526001600160a01b03928316600482015291166024820152604481018d9052606401600060405180830381600087803b158015610dfd57600080fd5b505af1158015610e11573d6000803e3d6000fd5b50505050610e1c3390565b6001600160a01b031683600001516001600160a01b03167fc36542c7a190a4c20a7f15a0ddc46871de452f269f15b0e621f11b48463b299f8c85604051610e6d929190918252602082015260400190565b60405180910390a3505060018055505050505050505050565b6001600160a01b038616600090815260046020526040902054869060ff16610ec05760405162461bcd60e51b81526004016106a09061206c565b6000610ecb8161190e565b60005b868110156110fd57306001600160a01b038a16636352211e8a8a85818110610ef857610ef8611f42565b905060200201356040518263ffffffff1660e01b8152600401610f1d91815260200190565b602060405180830381865afa158015610f3a573d6000803e3d6000fd5b505050506040513d601f19601f82011682018060405250810190610f5e91906120b8565b6001600160a01b031614610fc35760405162461bcd60e51b815260206004820152602660248201527f526f757465723a20526f75746572206d757374206265206f776e6572206f6620604482015265746f6b656e7360d01b60648201526084016106a0565b6040805160a0810182523081526005546201000090046001600160a01b039081166020808401919091528284018a90526060830189905260808301889052908c166000908152600390915291822090918a8a8581811061102557611025611f42565b60209081029290920135835250818101929092526040908101600020835181546001600160a01b03199081166001600160a01b0392831617835593850151600183018054909516911617909255820151600282015560608201516003820155608090910151600490910155307f58daee15640543ce9c441aaf5417a2860fd1fd6b7e8a9648d1bb4d2b0c17b62a8989848181106110c4576110c4611f42565b604080516020928302949094013584529083018b905282018890525060600160405180910390a2806110f5816120d5565b915050610ece565b505050505050505050565b60006111138161190e565b6005805461ffff191661ffff84169081179091556040519081527fcabead39256298cdf7d1228eee68b47bc54a2192283d8d93574da08d2d7ac303906020015b60405180910390a15050565b6001600160a01b038083166000908152600360208181526040808420868552825292839020835160a08101855281548616808252600183015490961692810192909252600281015493820193909352908201546060820152600490910154608082015283918391906111e35760405162461bcd60e51b81526004016106a090611fc5565b6001600160a01b038516600090815260046020526040902054859060ff1661121d5760405162461bcd60e51b81526004016106a09061206c565b600260015414156112405760405162461bcd60e51b81526004016106a090611f8e565b60026001556001600160a01b038681166000908152600360209081526040808320898452909152902054166112957f71f3d55856e4058ed06ee057d79ada615f65cdf5f9ee88181b914225088f834f33610a2b565b6112f157336001600160a01b038216146112f15760405162461bcd60e51b815260206004820152601e60248201527f526f757465723a206f6e6c792073656c6c65722063616e2063616e63656c000060448201526064016106a0565b6001600160a01b0387811660008181526003602081815260408084208c855290915280832080546001600160a01b031990811682556001820180549091169055600281018490559182018390556004918201929092559051632142170760e11b81523091810191909152918316602483015260448201889052906342842e0e90606401600060405180830381600087803b15801561138e57600080fd5b505af11580156113a2573d6000803e3d6000fd5b50505050806001600160a01b03167ff86e54241e209ee4b38db8e64af9614b083d18f23c32f3293c8a87c6b8bf8943876040516113e191815260200190565b60405180910390a25050600180555050505050565b6001600160a01b0380871660009081526003602081815260408084208a8552825292839020835160a0810185528154861680825260018301549096169281019290925260028101549382019390935290820154606082015260049091015460808201528791879190156114ab5760405162461bcd60e51b815260206004820152601b60248201527f526f757465723a204974656d20616c7265616479206c6973746564000000000060448201526064016106a0565b6001600160a01b038916600090815260046020526040902054899060ff166114e55760405162461bcd60e51b81526004016106a09061206c565b600260015414156115085760405162461bcd60e51b81526004016106a090611f8e565b6002600155896001600160a01b0381166342842e0e336040516001600160e01b031960e084901b1681526001600160a01b039091166004820152306024820152604481018d9052606401600060405180830381600087803b15801561156c57600080fd5b505af1158015611580573d6000803e3d6000fd5b505050506040518060a001604052806115963390565b6001600160a01b03168152602001876001600160a01b031681526020018a815260200189815260200188815250600360008d6001600160a01b03166001600160a01b0316815260200190815260200160002060008c815260200190815260200160002060008201518160000160006101000a8154816001600160a01b0302191690836001600160a01b0316021790555060208201518160010160006101000a8154816001600160a01b0302191690836001600160a01b0316021790555060408201518160020155606082015181600301556080820151816004015590505061167b3390565b604080518c8152602081018c90529081018990526001600160a01b0391909116907f58daee15640543ce9c441aaf5417a2860fd1fd6b7e8a9648d1bb4d2b0c17b62a9060600160405180910390a2505060018055505050505050505050565b6000828152602081905260409020600101546116f58161190e565b6107de838361199f565b6001600160a01b038085166000908152600360208181526040808420888552825292839020835160a08101855281548616808252600183015490961692810192909252600281015493820193909352908201546060820152600490910154608082015285918591906117835760405162461bcd60e51b81526004016106a090611fc5565b6001600160a01b038716600090815260036020908152604080832089845290915290206117d07f71f3d55856e4058ed06ee057d79ada615f65cdf5f9ee88181b914225088f834f33610a2b565b6118365780546001600160a01b0316336001600160a01b0316146118365760405162461bcd60e51b815260206004820152601e60248201527f526f757465723a206f6e6c792073656c6c65722063616e20757064617465000060448201526064016106a0565b600281018590556001810180546001600160a01b0388166001600160a01b031990911681179091556040805189815260208101889052808201929092525133917fa3cfe174a8dc2286d4de7d40356e3c94f4988335aa95182a34e1f64b786c359c919081900360600190a25050505050505050565b60006118b68161190e565b6005805462010000600160b01b031916620100006001600160a01b038516908102919091179091556040519081527fe57e7c1f36cc83fade34e32351e6eee7eb9da532662b1b5da10c631e8222aca790602001611153565b6119188133611a04565b50565b6119258282610a2b565b61085d576000828152602081815260408083206001600160a01b03851684529091529020805460ff1916600117905561195b3390565b6001600160a01b0316816001600160a01b0316837f2f8788117e7eff1d82e926ec794901d17c78024a50270940304540a733656f0d60405160405180910390a45050565b6119a98282610a2b565b1561085d576000828152602081815260408083206001600160a01b0385168085529252808320805460ff1916905551339285917ff6391f5c32d9c69d2a47ea670b442974b53935d1edc7fd64eb21e047a839171b9190a45050565b611a0e8282610a2b565b61085d57611a26816001600160a01b03166014611a68565b611a31836020611a68565b604051602001611a4292919061211c565b60408051601f198184030181529082905262461bcd60e51b82526106a091600401612191565b60606000611a77836002611ffc565b611a8290600261203d565b67ffffffffffffffff811115611a9a57611a9a6121c4565b6040519080825280601f01601f191660200182016040528015611ac4576020820181803683370190505b509050600360fc1b81600081518110611adf57611adf611f42565b60200101906001600160f81b031916908160001a905350600f60fb1b81600181518110611b0e57611b0e611f42565b60200101906001600160f81b031916908160001a9053506000611b32846002611ffc565b611b3d90600161203d565b90505b6001811115611bb5576f181899199a1a9b1b9c1cb0b131b232b360811b85600f1660108110611b7157611b71611f42565b1a60f81b828281518110611b8757611b87611f42565b60200101906001600160f81b031916908160001a90535060049490941c93611bae816121da565b9050611b40565b508315611c045760405162461bcd60e51b815260206004820181905260248201527f537472696e67733a20686578206c656e67746820696e73756666696369656e7460448201526064016106a0565b9392505050565b6001600160a01b038116811461191857600080fd5b60008060408385031215611c3357600080fd5b8235611c3e81611c0b565b946020939093013593505050565b600060208284031215611c5e57600080fd5b81356001600160e01b031981168114611c0457600080fd5b600080600080600060808688031215611c8e57600080fd5b8535611c9981611c0b565b94506020860135611ca981611c0b565b935060408601359250606086013567ffffffffffffffff80821115611ccd57600080fd5b818801915088601f830112611ce157600080fd5b813581811115611cf057600080fd5b896020828501011115611d0257600080fd5b9699959850939650602001949392505050565b600060208284031215611d2757600080fd5b5035919050565b600060208284031215611d4057600080fd5b8135611c0481611c0b565b60008060408385031215611d5e57600080fd5b823591506020830135611d7081611c0b565b809150509250929050565b60008083601f840112611d8d57600080fd5b50813567ffffffffffffffff811115611da557600080fd5b6020830191508360208260051b8501011115611dc057600080fd5b9250929050565b60008060208385031215611dda57600080fd5b823567ffffffffffffffff811115611df157600080fd5b611dfd85828601611d7b565b90969095509350505050565b60008060008060008060a08789031215611e2257600080fd5b8635611e2d81611c0b565b9550602087013567ffffffffffffffff811115611e4957600080fd5b611e5589828a01611d7b565b979a90995096976040810135976060820135975060809091013595509350505050565b600060208284031215611e8a57600080fd5b813561ffff81168114611c0457600080fd5b60008060008060008060c08789031215611eb557600080fd5b8635611ec081611c0b565b95506020870135945060408701359350606087013592506080870135915060a0870135611eec81611c0b565b809150509295509295509295565b60008060008060808587031215611f1057600080fd5b8435611f1b81611c0b565b9350602085013592506040850135611f3281611c0b565b9396929550929360600135925050565b634e487b7160e01b600052603260045260246000fd5b634e487b7160e01b600052601160045260246000fd5b600060ff821660ff811415611f8557611f85611f58565b60010192915050565b6020808252601f908201527f5265656e7472616e637947756172643a207265656e7472616e742063616c6c00604082015260600190565b60208082526017908201527f526f757465723a204974656d206e6f74206c6973746564000000000000000000604082015260600190565b600081600019048311821515161561201657612016611f58565b500290565b60008261203857634e487b7160e01b600052601260045260246000fd5b500490565b6000821982111561205057612050611f58565b500190565b60008282101561206757612067611f58565b500390565b6020808252602c908201527f526f757465723a204e667441646472657373206e6f7420696e636c756465642060408201526b696e2076616c69644e66747360a01b606082015260800190565b6000602082840312156120ca57600080fd5b8151611c0481611c0b565b60006000198214156120e9576120e9611f58565b5060010190565b60005b8381101561210b5781810151838201526020016120f3565b838111156108e45750506000910152565b7f416363657373436f6e74726f6c3a206163636f756e74200000000000000000008152600083516121548160178501602088016120f0565b7001034b99036b4b9b9b4b733903937b6329607d1b60179184019182015283516121858160288401602088016120f0565b01602801949350505050565b60208152600082518060208401526121b08160408501602087016120f0565b601f01601f19169190910160400192915050565b634e487b7160e01b600052604160045260246000fd5b6000816121e9576121e9611f58565b50600019019056fea2646970667358221220883ac13a6cc34632f633b0d491eb30470834b8a26c0e1afa90f35246d2724b4164736f6c634300080a0033",
  "linkReferences": {},
  "deployedLinkReferences": {}
}