{
  "_format": "hh-sol-artifact-1",
  "contractName": "Router",
  "sourceName": "contracts/Router.sol",
  "abi": [
    {
      "inputs": [
        {
          "internalType": "uint16",
          "name": "_fee",
          "type": "uint16"
        },
        {
          "internalType": "address",
          "name": "_feeRecipient",
          "type": "address"
        },
        {
          "internalType": "address",
          "name": "_admin",
          "type": "address"
        }
      ],
      "stateMutability": "nonpayable",
      "type": "constructor"
    },
    {
      "anonymous": false,
      "inputs": [
        {
          "indexed": true,
          "internalType": "address",
          "name": "seller",
          "type": "address"
        },
        {
          "indexed": true,
          "internalType": "address",
          "name": "buyer",
          "type": "address"
        },
        {
          "indexed": true,
          "internalType": "address",
          "name": "nft",
          "type": "address"
        },
        {
          "indexed": false,
          "internalType": "uint256",
          "name": "tokenId",
          "type": "uint256"
        },
        {
          "indexed": false,
          "internalType": "uint80",
          "name": "price",
          "type": "uint80"
        }
      ],
      "name": "BuyItem",
      "type": "event"
    },
    {
      "anonymous": false,
      "inputs": [
        {
          "indexed": true,
          "internalType": "address",
          "name": "seller",
          "type": "address"
        },
        {
          "indexed": true,
          "internalType": "address",
          "name": "nft",
          "type": "address"
        },
        {
          "indexed": false,
          "internalType": "uint256",
          "name": "tokenId",
          "type": "uint256"
        }
      ],
      "name": "CancelListing",
      "type": "event"
    },
    {
      "anonymous": false,
      "inputs": [
        {
          "indexed": true,
          "internalType": "address",
          "name": "seller",
          "type": "address"
        },
        {
          "indexed": true,
          "internalType": "address",
          "name": "nft",
          "type": "address"
        },
        {
          "indexed": false,
          "internalType": "uint256",
          "name": "tokenId",
          "type": "uint256"
        },
        {
          "indexed": false,
          "internalType": "uint80",
          "name": "price",
          "type": "uint80"
        }
      ],
      "name": "ListItem",
      "type": "event"
    },
    {
      "anonymous": false,
      "inputs": [
        {
          "indexed": true,
          "internalType": "bytes32",
          "name": "role",
          "type": "bytes32"
        },
        {
          "indexed": true,
          "internalType": "bytes32",
          "name": "previousAdminRole",
          "type": "bytes32"
        },
        {
          "indexed": true,
          "internalType": "bytes32",
          "name": "newAdminRole",
          "type": "bytes32"
        }
      ],
      "name": "RoleAdminChanged",
      "type": "event"
    },
    {
      "anonymous": false,
      "inputs": [
        {
          "indexed": true,
          "internalType": "bytes32",
          "name": "role",
          "type": "bytes32"
        },
        {
          "indexed": true,
          "internalType": "address",
          "name": "account",
          "type": "address"
        },
        {
          "indexed": true,
          "internalType": "address",
          "name": "sender",
          "type": "address"
        }
      ],
      "name": "RoleGranted",
      "type": "event"
    },
    {
      "anonymous": false,
      "inputs": [
        {
          "indexed": true,
          "internalType": "bytes32",
          "name": "role",
          "type": "bytes32"
        },
        {
          "indexed": true,
          "internalType": "address",
          "name": "account",
          "type": "address"
        },
        {
          "indexed": true,
          "internalType": "address",
          "name": "sender",
          "type": "address"
        }
      ],
      "name": "RoleRevoked",
      "type": "event"
    },
    {
      "anonymous": false,
      "inputs": [
        {
          "indexed": false,
          "internalType": "uint16",
          "name": "fee",
          "type": "uint16"
        }
      ],
      "name": "UpdateFee",
      "type": "event"
    },
    {
      "anonymous": false,
      "inputs": [
        {
          "indexed": false,
          "internalType": "address",
          "name": "feeRecipient",
          "type": "address"
        }
      ],
      "name": "UpdateFeeRecipient",
      "type": "event"
    },
    {
      "anonymous": false,
      "inputs": [
        {
          "indexed": true,
          "internalType": "address",
          "name": "seller",
          "type": "address"
        },
        {
          "indexed": true,
          "internalType": "address",
          "name": "nft",
          "type": "address"
        },
        {
          "indexed": false,
          "internalType": "uint256",
          "name": "tokenId",
          "type": "uint256"
        },
        {
          "indexed": false,
          "internalType": "uint80",
          "name": "newPrice",
          "type": "uint80"
        }
      ],
      "name": "UpdateListing",
      "type": "event"
    },
    {
      "inputs": [],
      "name": "COMMON_PRICE",
      "outputs": [
        {
          "internalType": "uint80",
          "name": "",
          "type": "uint80"
        }
      ],
      "stateMutability": "view",
      "type": "function"
    },
    {
      "inputs": [],
      "name": "DEFAULT_ADMIN_ROLE",
      "outputs": [
        {
          "internalType": "bytes32",
          "name": "",
          "type": "bytes32"
        }
      ],
      "stateMutability": "view",
      "type": "function"
    },
    {
      "inputs": [],
      "name": "EPIC_PRICE",
      "outputs": [
        {
          "internalType": "uint80",
          "name": "",
          "type": "uint80"
        }
      ],
      "stateMutability": "view",
      "type": "function"
    },
    {
      "inputs": [],
      "name": "LEGENDARY_PRICE",
      "outputs": [
        {
          "internalType": "uint80",
          "name": "",
          "type": "uint80"
        }
      ],
      "stateMutability": "view",
      "type": "function"
    },
    {
      "inputs": [],
      "name": "MODERATOR_ROLE",
      "outputs": [
        {
          "internalType": "bytes32",
          "name": "",
          "type": "bytes32"
        }
      ],
      "stateMutability": "view",
      "type": "function"
    },
    {
      "inputs": [],
      "name": "RARE_PRICE",
      "outputs": [
        {
          "internalType": "uint80",
          "name": "",
          "type": "uint80"
        }
      ],
      "stateMutability": "view",
      "type": "function"
    },
    {
      "inputs": [
        {
          "internalType": "address",
          "name": "",
          "type": "address"
        }
      ],
      "name": "addressToWhitelistDetails",
      "outputs": [
        {
          "internalType": "bool",
          "name": "notSpent",
          "type": "bool"
        },
        {
          "internalType": "uint248",
          "name": "rarity",
          "type": "uint248"
        }
      ],
      "stateMutability": "view",
      "type": "function"
    },
    {
      "inputs": [
        {
          "internalType": "address",
          "name": "",
          "type": "address"
        }
      ],
      "name": "balances",
      "outputs": [
        {
          "internalType": "uint256",
          "name": "",
          "type": "uint256"
        }
      ],
      "stateMutability": "view",
      "type": "function"
    },
    {
      "inputs": [
        {
          "internalType": "address",
          "name": "_nftAddress",
          "type": "address"
        },
        {
          "internalType": "uint256",
          "name": "_tokenId",
          "type": "uint256"
        }
      ],
      "name": "buyItem",
      "outputs": [],
      "stateMutability": "payable",
      "type": "function"
    },
    {
      "inputs": [
        {
          "internalType": "address",
          "name": "_nftAddress",
          "type": "address"
        },
        {
          "internalType": "uint256",
          "name": "_tokenId",
          "type": "uint256"
        }
      ],
      "name": "cancelListing",
      "outputs": [],
      "stateMutability": "nonpayable",
      "type": "function"
    },
    {
      "inputs": [],
      "name": "fee",
      "outputs": [
        {
          "internalType": "uint16",
          "name": "",
          "type": "uint16"
        }
      ],
      "stateMutability": "view",
      "type": "function"
    },
    {
      "inputs": [],
      "name": "feeRecipient",
      "outputs": [
        {
          "internalType": "address",
          "name": "",
          "type": "address"
        }
      ],
      "stateMutability": "view",
      "type": "function"
    },
    {
      "inputs": [
        {
          "internalType": "bytes32",
          "name": "role",
          "type": "bytes32"
        }
      ],
      "name": "getRoleAdmin",
      "outputs": [
        {
          "internalType": "bytes32",
          "name": "",
          "type": "bytes32"
        }
      ],
      "stateMutability": "view",
      "type": "function"
    },
    {
      "inputs": [
        {
          "internalType": "bytes32",
          "name": "role",
          "type": "bytes32"
        },
        {
          "internalType": "address",
          "name": "account",
          "type": "address"
        }
      ],
      "name": "grantRole",
      "outputs": [],
      "stateMutability": "nonpayable",
      "type": "function"
    },
    {
      "inputs": [
        {
          "internalType": "bytes32",
          "name": "role",
          "type": "bytes32"
        },
        {
          "internalType": "address",
          "name": "account",
          "type": "address"
        }
      ],
      "name": "hasRole",
      "outputs": [
        {
          "internalType": "bool",
          "name": "",
          "type": "bool"
        }
      ],
      "stateMutability": "view",
      "type": "function"
    },
    {
      "inputs": [
        {
          "internalType": "address",
          "name": "_nftAddress",
          "type": "address"
        },
        {
          "internalType": "uint256",
          "name": "_tokenId",
          "type": "uint256"
        },
        {
          "internalType": "uint80",
          "name": "_price",
          "type": "uint80"
        }
      ],
      "name": "listItem",
      "outputs": [],
      "stateMutability": "nonpayable",
      "type": "function"
    },
    {
      "inputs": [
        {
          "internalType": "address",
          "name": "_nftAddress",
          "type": "address"
        },
        {
          "internalType": "uint256[]",
          "name": "_tokenIds",
          "type": "uint256[]"
        },
        {
          "internalType": "uint256",
          "name": "_rarity",
          "type": "uint256"
        }
      ],
      "name": "listItemBatch",
      "outputs": [],
      "stateMutability": "nonpayable",
      "type": "function"
    },
    {
      "inputs": [
        {
          "internalType": "address",
          "name": "",
          "type": "address"
        },
        {
          "internalType": "uint256",
          "name": "",
          "type": "uint256"
        }
      ],
      "name": "listings",
      "outputs": [
        {
          "internalType": "address",
          "name": "seller",
          "type": "address"
        },
        {
          "internalType": "uint80",
          "name": "price",
          "type": "uint80"
        }
      ],
      "stateMutability": "view",
      "type": "function"
    },
    {
      "inputs": [
        {
          "internalType": "address",
          "name": "operator",
          "type": "address"
        },
        {
          "internalType": "address",
          "name": "from",
          "type": "address"
        },
        {
          "internalType": "uint256",
          "name": "tokenId",
          "type": "uint256"
        },
        {
          "internalType": "bytes",
          "name": "data",
          "type": "bytes"
        }
      ],
      "name": "onERC721Received",
      "outputs": [
        {
          "internalType": "bytes4",
          "name": "",
          "type": "bytes4"
        }
      ],
      "stateMutability": "pure",
      "type": "function"
    },
    {
      "inputs": [
        {
          "internalType": "bytes32",
          "name": "role",
          "type": "bytes32"
        },
        {
          "internalType": "address",
          "name": "account",
          "type": "address"
        }
      ],
      "name": "renounceRole",
      "outputs": [],
      "stateMutability": "nonpayable",
      "type": "function"
    },
    {
      "inputs": [
        {
          "internalType": "bytes32",
          "name": "role",
          "type": "bytes32"
        },
        {
          "internalType": "address",
          "name": "account",
          "type": "address"
        }
      ],
      "name": "revokeRole",
      "outputs": [],
      "stateMutability": "nonpayable",
      "type": "function"
    },
    {
      "inputs": [],
      "name": "saleStartingTime",
      "outputs": [
        {
          "internalType": "uint256",
          "name": "",
          "type": "uint256"
        }
      ],
      "stateMutability": "view",
      "type": "function"
    },
    {
      "inputs": [
        {
          "internalType": "address[]",
          "name": "_validNftAddresses",
          "type": "address[]"
        }
      ],
      "name": "setNftAddresses",
      "outputs": [],
      "stateMutability": "nonpayable",
      "type": "function"
    },
    {
      "inputs": [
        {
          "internalType": "uint80[4]",
          "name": "prices",
          "type": "uint80[4]"
        }
      ],
      "name": "setPrices",
      "outputs": [],
      "stateMutability": "nonpayable",
      "type": "function"
    },
    {
      "inputs": [
        {
          "internalType": "uint256",
          "name": "_saleStartingTime",
          "type": "uint256"
        }
      ],
      "name": "setSaleStartingTime",
      "outputs": [],
      "stateMutability": "nonpayable",
      "type": "function"
    },
    {
      "inputs": [
        {
          "components": [
            {
              "internalType": "bool",
              "name": "notSpent",
              "type": "bool"
            },
            {
              "internalType": "uint248",
              "name": "rarity",
              "type": "uint248"
            }
          ],
          "internalType": "struct Router.WhitelistDetails[]",
          "name": "details",
          "type": "tuple[]"
        },
        {
          "internalType": "address[]",
          "name": "addresses",
          "type": "address[]"
        }
      ],
      "name": "setWhitelist",
      "outputs": [],
      "stateMutability": "nonpayable",
      "type": "function"
    },
    {
      "inputs": [
        {
          "internalType": "bytes4",
          "name": "interfaceId",
          "type": "bytes4"
        }
      ],
      "name": "supportsInterface",
      "outputs": [
        {
          "internalType": "bool",
          "name": "",
          "type": "bool"
        }
      ],
      "stateMutability": "view",
      "type": "function"
    },
    {
      "inputs": [
        {
          "internalType": "uint16",
          "name": "_fee",
          "type": "uint16"
        }
      ],
      "name": "updateFee",
      "outputs": [],
      "stateMutability": "nonpayable",
      "type": "function"
    },
    {
      "inputs": [
        {
          "internalType": "address",
          "name": "_platformFeeRecipient",
          "type": "address"
        }
      ],
      "name": "updateFeeRecipient",
      "outputs": [],
      "stateMutability": "nonpayable",
      "type": "function"
    },
    {
      "inputs": [
        {
          "internalType": "address",
          "name": "_nftAddress",
          "type": "address"
        },
        {
          "internalType": "uint256",
          "name": "_tokenId",
          "type": "uint256"
        },
        {
          "internalType": "uint80",
          "name": "_newPrice",
          "type": "uint80"
        }
      ],
      "name": "updateListing",
      "outputs": [],
      "stateMutability": "nonpayable",
      "type": "function"
    },
    {
      "inputs": [
        {
          "internalType": "address",
          "name": "",
          "type": "address"
        }
      ],
      "name": "validNfts",
      "outputs": [
        {
          "internalType": "bool",
          "name": "",
          "type": "bool"
        }
      ],
      "stateMutability": "view",
      "type": "function"
    },
    {
      "inputs": [
        {
          "internalType": "address",
          "name": "_address",
          "type": "address"
        }
      ],
      "name": "withdraw",
      "outputs": [],
      "stateMutability": "nonpayable",
      "type": "function"
    }
  ],
  "bytecode": "0x608060405260028054600160a01b600160f01b0319166601b1ae4d6e2ef560b51b179055600380546001600160f01b0319167c3635c9adc5dea00000003635c9adc5dea00000003635c9adc5dea000001790553480156200005f57600080fd5b506040516200277f3803806200277f8339810160408190526200008291620001fb565b600180556001600160a01b038116620000e15760405162461bcd60e51b815260206004820152601d60248201527f526f757465723a2041646d696e206973207a65726f2061646472657373000000604482015260640160405180910390fd5b600280546001600160a01b038084166001600160a01b0319909216919091179091556008805491841662010000026001600160b01b031990921661ffff861617919091179055620001346000826200013d565b5050506200024d565b6000828152602081815260408083206001600160a01b038516845290915290205460ff16620001da576000828152602081815260408083206001600160a01b03851684529091529020805460ff19166001179055620001993390565b6001600160a01b0316816001600160a01b0316837f2f8788117e7eff1d82e926ec794901d17c78024a50270940304540a733656f0d60405160405180910390a45b5050565b80516001600160a01b0381168114620001f657600080fd5b919050565b6000806000606084860312156200021157600080fd5b835161ffff811681146200022457600080fd5b92506200023460208501620001de565b91506200024460408501620001de565b90509250925092565b612522806200025d6000396000f3fe6080604052600436106101e25760003560e01c806391d1485411610102578063bdc71fb811610095578063d519989911610064578063d5199899146106ad578063d547741f146106d4578063ddca3f43146106f4578063f160d3691461072257600080fd5b8063bdc71fb81461061f578063c4fcfcb814610646578063ce2a1bfc14610666578063cedc0b341461068657600080fd5b8063a217fddf116100d1578063a217fddf146105aa578063a3fa2772146105bf578063b2ddee06146105df578063b7563724146105ff57600080fd5b806391d1485414610527578063969a8ff31461054757806399df4e58146105775780639f37092a1461059757600080fd5b80632f2ff15d1161017a57806351cff8d91161014957806351cff8d91461049d5780636602ea76146104bd578063797669c9146104d35780638b372d591461050757600080fd5b80632f2ff15d146103ff57806336568abe1461041f578063469048401461043f5780634b12e8831461047d57600080fd5b806326661eb0116101b657806326661eb01461031957806327e235e3146103785780632c6cda93146103a55780632e119c79146103c757600080fd5b806207df30146101e757806301ffc9a714610266578063150b7a0214610296578063248a9ca3146102db575b600080fd5b3480156101f357600080fd5b5061023a610202366004611e29565b60046020908152600092835260408084209091529082529020546001600160a01b03811690600160a01b90046001600160501b031682565b604080516001600160a01b0390931683526001600160501b039091166020830152015b60405180910390f35b34801561027257600080fd5b50610286610281366004611e53565b610742565b604051901515815260200161025d565b3480156102a257600080fd5b506102c26102b1366004611e7d565b630a85bd0160e11b95945050505050565b6040516001600160e01b0319909116815260200161025d565b3480156102e757600080fd5b5061030b6102f6366004611f18565b60009081526020819052604090206001015490565b60405190815260200161025d565b34801561032557600080fd5b50610359610334366004611f31565b60066020526000908152604090205460ff81169061010090046001600160f81b031682565b6040805192151583526001600160f81b0390911660208301520161025d565b34801561038457600080fd5b5061030b610393366004611f31565b60096020526000908152604090205481565b3480156103b157600080fd5b506103c56103c0366004611f4c565b610779565b005b3480156103d357600080fd5b506003546103e7906001600160501b031681565b6040516001600160501b03909116815260200161025d565b34801561040b57600080fd5b506103c561041a366004611f70565b6107d0565b34801561042b57600080fd5b506103c561043a366004611f70565b6107fa565b34801561044b57600080fd5b50600854610465906201000090046001600160a01b031681565b6040516001600160a01b03909116815260200161025d565b34801561048957600080fd5b506103c5610498366004611fe8565b61087d565b3480156104a957600080fd5b506103c56104b8366004611f31565b610906565b3480156104c957600080fd5b5061030b60075481565b3480156104df57600080fd5b5061030b7f71f3d55856e4058ed06ee057d79ada615f65cdf5f9ee88181b914225088f834f81565b34801561051357600080fd5b506103c561052236600461202a565b610a47565b34801561053357600080fd5b50610286610542366004611f70565b610b2f565b34801561055357600080fd5b50610286610562366004611f31565b60056020526000908152604090205460ff1681565b34801561058357600080fd5b506103c56105923660046120db565b610b58565b6103c56105a5366004611e29565b610d02565b3480156105b657600080fd5b5061030b600081565b3480156105cb57600080fd5b506103c56105da3660046120db565b6112e5565b3480156105eb57600080fd5b506103c56105fa366004611e29565b611536565b34801561060b57600080fd5b506103c561061a366004612117565b611793565b34801561062b57600080fd5b506003546103e790600160a01b90046001600160501b031681565b34801561065257600080fd5b506103c5610661366004611f18565b611884565b34801561067257600080fd5b506103c561068136600461213f565b611895565b34801561069257600080fd5b506003546103e790600160501b90046001600160501b031681565b3480156106b957600080fd5b506002546103e790600160a01b90046001600160501b031681565b3480156106e057600080fd5b506103c56106ef366004611f70565b611a0e565b34801561070057600080fd5b5060085461070f9061ffff1681565b60405161ffff909116815260200161025d565b34801561072e57600080fd5b506103c561073d366004611f31565b611a33565b60006001600160e01b03198216637965db0b60e01b148061077357506301ffc9a760e01b6001600160e01b03198316145b92915050565b600061078481611a96565b6008805461ffff191661ffff84169081179091556040519081527f6b21e0b71c12e6cd9a3b2bc9bca648afabce42f96ab1f4b2a085107b8a125ca2906020015b60405180910390a15050565b6000828152602081905260409020600101546107eb81611a96565b6107f58383611aa3565b505050565b6001600160a01b038116331461086f5760405162461bcd60e51b815260206004820152602f60248201527f416363657373436f6e74726f6c3a2063616e206f6e6c792072656e6f756e636560448201526e103937b632b9903337b91039b2b63360891b60648201526084015b60405180910390fd5b6108798282611b27565b5050565b600061088881611a96565b60005b60ff81168311156109005760016005600086868560ff168181106108b1576108b1612199565b90506020020160208101906108c69190611f31565b6001600160a01b031681526020810191909152604001600020805460ff1916911515919091179055806108f8816121c5565b91505061088b565b50505050565b600260015414156109295760405162461bcd60e51b8152600401610866906121e5565b60026001556001600160a01b03811660009081526009602052604090205461098a5760405162461bcd60e51b8152602060048201526014602482015273526f757465723a205a65726f2062616c616e636560601b6044820152606401610866565b6001600160a01b038116600081815260096020526040808220805490839055905190929083908381818185875af1925050503d80600081146109e8576040519150601f19603f3d011682016040523d82523d6000602084013e6109ed565b606091505b5050905080610a3e5760405162461bcd60e51b815260206004820152601760248201527f526f757465723a205472616e73666572206661696c65640000000000000000006044820152606401610866565b50506001805550565b6000610a5281611a96565b838214610aa15760405162461bcd60e51b815260206004820181905260248201527f526f757465723a20696e76616c696420617267756d656e7473206c656e6774686044820152606401610866565b60005b84811015610b2757858582818110610abe57610abe612199565b90506040020160066000868685818110610ada57610ada612199565b9050602002016020810190610aef9190611f31565b6001600160a01b031681526020810191909152604001600020610b12828261221c565b50819050610b1f81612268565b915050610aa4565b505050505050565b6000918252602082815260408084206001600160a01b0393909316845291905290205460ff1690565b6001600160a01b038381166000908152600460209081526040808320868452825291829020825180840190935254928316808352600160a01b9093046001600160501b0316908201528491849190610bc25760405162461bcd60e51b815260040161086690612283565b6001600160a01b03861660009081526004602090815260408083208884529091529020610c0f7f71f3d55856e4058ed06ee057d79ada615f65cdf5f9ee88181b914225088f834f33610b2f565b610c755780546001600160a01b0316336001600160a01b031614610c755760405162461bcd60e51b815260206004820152601e60248201527f526f757465723a206f6e6c792073656c6c65722063616e2075706461746500006044820152606401610866565b805469ffffffffffffffffffff60a01b1916600160a01b6001600160501b038716021781556001600160a01b038716336001600160a01b03167f61f27fb3b2b027d98e0b845637ee88fbbb54f614ad07dac63e99506a570f71258888604051610cf19291909182526001600160501b0316602082015260400190565b60405180910390a350505050505050565b6001600160a01b038281166000908152600460209081526040808320858452825291829020825180840190935254928316808352600160a01b9093046001600160501b0316908201528391839190610d6c5760405162461bcd60e51b815260040161086690612283565b6001600160a01b038516600090815260056020526040902054859060ff16610da65760405162461bcd60e51b8152600401610866906122ba565b6001600160a01b03808716600090815260046020908152604080832089845282528083205490931682526005905220548690869060ff1615610e3457600754421015610e345760405162461bcd60e51b815260206004820152601c60248201527f526f757465723a2053616c65206e6f74207374617274656420796574000000006044820152606401610866565b60026001541415610e575760405162461bcd60e51b8152600401610866906121e5565b60026001556001600160a01b0388811660009081526004602090815260408083208b845282528083208151808301835290549485168152600160a01b9094046001600160501b031684830152338352600690915281205460ff1615610fe457604051634875869760e01b8152600481018a90526000906001600160a01b038c1690634875869790602401602060405180830381865afa158015610efe573d6000803e3d6000fd5b505050506040513d601f19601f82011682018060405250810190610f229190612306565b3360009081526006602052604090205490915061010090046001600160f81b0316811415610fde5760028360200151610f5b919061231f565b6001600160501b0316341015610fb35760405162461bcd60e51b815260206004820152601c60248201527f526f757465723a20496e73756666696369656e742062616c616e6365000000006044820152606401610866565b60028360200151610fc4919061231f565b336000908152600660205260409020805460ff1916905591505b50611048565b81602001516001600160501b03163410156110415760405162461bcd60e51b815260206004820152601c60248201527f526f757465723a20496e73756666696369656e742062616c616e6365000000006044820152606401610866565b5060208101515b6008546000906103e8906110609061ffff1684612353565b61106a919061231f565b6001600160a01b03808d1660009081526004602090815260408083208f8452825280832080546001600160f01b031916905560085462010000900490931682526009905290812080546001600160501b0393909316935083929091906110d1908490612382565b90915550600090506110ec826001600160501b03851661239a565b84516001600160a01b031660009081526005602052604090205490915060ff161561114c576008546201000090046001600160a01b031660009081526009602052604081208054839290611141908490612382565b9091555061117b9050565b83516001600160a01b031660009081526009602052604081208054839290611175908490612382565b90915550505b83516001600160a01b031660009081526005602052604090205460ff1615611212576001600160a01b038c166374445a6f336040516001600160e01b031960e084901b1681526001600160a01b039091166004820152602481018e9052604401600060405180830381600087803b1580156111f557600080fd5b505af1158015611209573d6000803e3d6000fd5b5050505061127f565b60408051632142170760e11b8152306004820152336024820152604481018d905290516001600160a01b038e16916342842e0e91606480830192600092919082900301818387803b15801561126657600080fd5b505af115801561127a573d6000803e3d6000fd5b505050505b8351604080518d81526001600160501b03861660208201526001600160a01b038f81169333939116917f54a182db355ab2154f44fc4187bbfd6cc0b38ea4a2e80f7f9361568caaef1a6c910160405180910390a450506001805550505050505050505050565b6001600160a01b038381166000908152600460209081526040808320868452825291829020825180840190935254928316808352600160a01b9093046001600160501b0316908201528491849190156113805760405162461bcd60e51b815260206004820152601b60248201527f526f757465723a204974656d20616c7265616479206c697374656400000000006044820152606401610866565b6001600160a01b038616600090815260056020526040902054869060ff166113ba5760405162461bcd60e51b8152600401610866906122ba565b600260015414156113dd5760405162461bcd60e51b8152600401610866906121e5565b6002600155866001600160a01b0381166342842e0e336040516001600160e01b031960e084901b1681526001600160a01b039091166004820152306024820152604481018a9052606401600060405180830381600087803b15801561144157600080fd5b505af1158015611455573d6000803e3d6000fd5b50505050604051806040016040528061146b3390565b6001600160a01b0390811682526001600160501b03808a166020938401528b821660008181526004855260408082208e835286529020855181549690950151909216600160a01b026001600160f01b031990951693909216929092179290921790556114d43390565b6001600160a01b03167fea91e8bf923072efdcd9bb4a27de8fad9ea7823d883c8de681fa2c9c4342a60189896040516115209291909182526001600160501b0316602082015260400190565b60405180910390a3505060018055505050505050565b6001600160a01b038281166000908152600460209081526040808320858452825291829020825180840190935254928316808352600160a01b9093046001600160501b03169082015283918391906115a05760405162461bcd60e51b815260040161086690612283565b6001600160a01b038516600090815260056020526040902054859060ff166115da5760405162461bcd60e51b8152600401610866906122ba565b600260015414156115fd5760405162461bcd60e51b8152600401610866906121e5565b60026001556001600160a01b038681166000908152600460209081526040808320898452909152902054163381148061165b575061165b7f71f3d55856e4058ed06ee057d79ada615f65cdf5f9ee88181b914225088f834f33610b2f565b6116b65760405162461bcd60e51b815260206004820152602660248201527f526f757465723a20596f75277265206e6f742073656c6c6572206f72206d6f6460448201526532b930ba37b960d11b6064820152608401610866565b604051632142170760e11b81523060048201526001600160a01b038281166024830152604482018890528816906342842e0e90606401600060405180830381600087803b15801561170657600080fd5b505af115801561171a573d6000803e3d6000fd5b505050506001600160a01b0387811660008181526004602090815260408083208b845282529182902080546001600160f01b0319169055905189815291928416917f061e64e10e5e57615a6fe38b48c81926f6999a2f5304d3e5e6b0d3cfac4865a5910160405180910390a35050600180555050505050565b600061179e81611a96565b6117ab60208301836123b1565b600280546001600160501b0392909216600160a01b0269ffffffffffffffffffff60a01b199092169190911790556117e960408301602084016123b1565b6003805469ffffffffffffffffffff19166001600160501b039290921691909117905561181c60608301604084016123b1565b600380546001600160501b0392909216600160501b0269ffffffffffffffffffff60501b1990921691909117905561185a60808301606084016123b1565b600360146101000a8154816001600160501b0302191690836001600160501b031602179055505050565b600061188f81611a96565b50600755565b6001600160a01b038416600090815260056020526040902054849060ff166118cf5760405162461bcd60e51b8152600401610866906122ba565b60006118da81611a96565b60006118e584611b8c565b905060005b85811015611a04576040805180820182526001600160a01b038a168082526001600160501b038516602080840191909152600091825260049052918220909189898581811061193b5761193b612199565b60209081029290920135835250818101929092526040016000208251815493909201516001600160501b0316600160a01b026001600160f01b03199093166001600160a01b0392831617929092179091558816307fea91e8bf923072efdcd9bb4a27de8fad9ea7823d883c8de681fa2c9c4342a6018989858181106119c2576119c2612199565b90506020020135856040516119ea9291909182526001600160501b0316602082015260400190565b60405180910390a3806119fc81612268565b9150506118ea565b5050505050505050565b600082815260208190526040902060010154611a2981611a96565b6107f58383611b27565b6000611a3e81611a96565b6008805462010000600160b01b031916620100006001600160a01b038516908102919091179091556040519081527f6632de8ab33c46549f7bb29f647ea0d751157b25fe6a14b1bcc7527cdfbeb79c906020016107c4565b611aa08133611c0b565b50565b611aad8282610b2f565b610879576000828152602081815260408083206001600160a01b03851684529091529020805460ff19166001179055611ae33390565b6001600160a01b0316816001600160a01b0316837f2f8788117e7eff1d82e926ec794901d17c78024a50270940304540a733656f0d60405160405180910390a45050565b611b318282610b2f565b15610879576000828152602081815260408083206001600160a01b0385168085529252808320805460ff1916905551339285917ff6391f5c32d9c69d2a47ea670b442974b53935d1edc7fd64eb21e047a839171b9190a45050565b600081611bac5750600254600160a01b90046001600160501b0316919050565b6001821415611bc65750506003546001600160501b031690565b6002821415611be85750600354600160501b90046001600160501b0316919050565b6003821415611c065750600354600160a01b90046001600160501b03165b919050565b611c158282610b2f565b61087957611c2d816001600160a01b03166014611c6f565b611c38836020611c6f565b604051602001611c499291906123f8565b60408051601f198184030181529082905262461bcd60e51b82526108669160040161246d565b60606000611c7e8360026124a0565b611c89906002612382565b67ffffffffffffffff811115611ca157611ca16124bf565b6040519080825280601f01601f191660200182016040528015611ccb576020820181803683370190505b509050600360fc1b81600081518110611ce657611ce6612199565b60200101906001600160f81b031916908160001a905350600f60fb1b81600181518110611d1557611d15612199565b60200101906001600160f81b031916908160001a9053506000611d398460026124a0565b611d44906001612382565b90505b6001811115611dbc576f181899199a1a9b1b9c1cb0b131b232b360811b85600f1660108110611d7857611d78612199565b1a60f81b828281518110611d8e57611d8e612199565b60200101906001600160f81b031916908160001a90535060049490941c93611db5816124d5565b9050611d47565b508315611e0b5760405162461bcd60e51b815260206004820181905260248201527f537472696e67733a20686578206c656e67746820696e73756666696369656e746044820152606401610866565b9392505050565b80356001600160a01b0381168114611c0657600080fd5b60008060408385031215611e3c57600080fd5b611e4583611e12565b946020939093013593505050565b600060208284031215611e6557600080fd5b81356001600160e01b031981168114611e0b57600080fd5b600080600080600060808688031215611e9557600080fd5b611e9e86611e12565b9450611eac60208701611e12565b935060408601359250606086013567ffffffffffffffff80821115611ed057600080fd5b818801915088601f830112611ee457600080fd5b813581811115611ef357600080fd5b896020828501011115611f0557600080fd5b9699959850939650602001949392505050565b600060208284031215611f2a57600080fd5b5035919050565b600060208284031215611f4357600080fd5b611e0b82611e12565b600060208284031215611f5e57600080fd5b813561ffff81168114611e0b57600080fd5b60008060408385031215611f8357600080fd5b82359150611f9360208401611e12565b90509250929050565b60008083601f840112611fae57600080fd5b50813567ffffffffffffffff811115611fc657600080fd5b6020830191508360208260051b8501011115611fe157600080fd5b9250929050565b60008060208385031215611ffb57600080fd5b823567ffffffffffffffff81111561201257600080fd5b61201e85828601611f9c565b90969095509350505050565b6000806000806040858703121561204057600080fd5b843567ffffffffffffffff8082111561205857600080fd5b818701915087601f83011261206c57600080fd5b81358181111561207b57600080fd5b8860208260061b850101111561209057600080fd5b6020928301965094509086013590808211156120ab57600080fd5b506120b887828801611f9c565b95989497509550505050565b80356001600160501b0381168114611c0657600080fd5b6000806000606084860312156120f057600080fd5b6120f984611e12565b92506020840135915061210e604085016120c4565b90509250925092565b60006080828403121561212957600080fd5b8260808301111561213957600080fd5b50919050565b6000806000806060858703121561215557600080fd5b61215e85611e12565b9350602085013567ffffffffffffffff81111561217a57600080fd5b61218687828801611f9c565b9598909750949560400135949350505050565b634e487b7160e01b600052603260045260246000fd5b634e487b7160e01b600052601160045260246000fd5b600060ff821660ff8114156121dc576121dc6121af565b60010192915050565b6020808252601f908201527f5265656e7472616e637947756172643a207265656e7472616e742063616c6c00604082015260600190565b813580151580821461222d57600080fd5b825460ff9190911660ff199182168117845590915060208401356001600160f81b038116811461225c57600080fd5b60081b90911617905550565b600060001982141561227c5761227c6121af565b5060010190565b60208082526017908201527f526f757465723a204974656d206e6f74206c6973746564000000000000000000604082015260600190565b6020808252602c908201527f526f757465723a204e667441646472657373206e6f7420696e636c756465642060408201526b696e2076616c69644e66747360a01b606082015260800190565b60006020828403121561231857600080fd5b5051919050565b60006001600160501b038084168061234757634e487b7160e01b600052601260045260246000fd5b92169190910492915050565b60006001600160501b0380831681851681830481118215151615612379576123796121af565b02949350505050565b60008219821115612395576123956121af565b500190565b6000828210156123ac576123ac6121af565b500390565b6000602082840312156123c357600080fd5b611e0b826120c4565b60005b838110156123e75781810151838201526020016123cf565b838111156109005750506000910152565b7f416363657373436f6e74726f6c3a206163636f756e74200000000000000000008152600083516124308160178501602088016123cc565b7001034b99036b4b9b9b4b733903937b6329607d1b60179184019182015283516124618160288401602088016123cc565b01602801949350505050565b602081526000825180602084015261248c8160408501602087016123cc565b601f01601f19169190910160400192915050565b60008160001904831182151516156124ba576124ba6121af565b500290565b634e487b7160e01b600052604160045260246000fd5b6000816124e4576124e46121af565b50600019019056fea26469706673582212209cb2fe3efdf5aae4032cb3dbb44d0df1f86de185d008ceb71a6f64551e28ebce64736f6c634300080a0033",
  "linkReferences": {},
  "deployedLinkReferences": {}
}