{
  "_format": "hh-sol-artifact-1",
  "contractName": "Router",
  "sourceName": "contracts/Router.sol",
  "abi": [
    {
      "inputs": [
        {
          "internalType": "uint16",
          "name": "_fee",
          "type": "uint16"
        },
        {
          "internalType": "address",
          "name": "_feeRecipient",
          "type": "address"
        },
        {
          "internalType": "address",
          "name": "_admin",
          "type": "address"
        }
      ],
      "stateMutability": "nonpayable",
      "type": "constructor"
    },
    {
      "anonymous": false,
      "inputs": [
        {
          "indexed": true,
          "internalType": "address",
          "name": "seller",
          "type": "address"
        },
        {
          "indexed": false,
          "internalType": "uint256",
          "name": "tokenId",
          "type": "uint256"
        }
      ],
      "name": "ItemCanceled",
      "type": "event"
    },
    {
      "anonymous": false,
      "inputs": [
        {
          "indexed": true,
          "internalType": "address",
          "name": "seller",
          "type": "address"
        },
        {
          "indexed": false,
          "internalType": "uint256",
          "name": "tokenId",
          "type": "uint256"
        },
        {
          "indexed": false,
          "internalType": "uint256",
          "name": "price",
          "type": "uint256"
        },
        {
          "indexed": false,
          "internalType": "uint256",
          "name": "startingTime",
          "type": "uint256"
        }
      ],
      "name": "ItemListed",
      "type": "event"
    },
    {
      "anonymous": false,
      "inputs": [
        {
          "indexed": true,
          "internalType": "address",
          "name": "seller",
          "type": "address"
        },
        {
          "indexed": true,
          "internalType": "address",
          "name": "buyer",
          "type": "address"
        },
        {
          "indexed": false,
          "internalType": "uint256",
          "name": "tokenId",
          "type": "uint256"
        },
        {
          "indexed": false,
          "internalType": "uint256",
          "name": "price",
          "type": "uint256"
        }
      ],
      "name": "ItemSold",
      "type": "event"
    },
    {
      "anonymous": false,
      "inputs": [
        {
          "indexed": true,
          "internalType": "address",
          "name": "seller",
          "type": "address"
        },
        {
          "indexed": false,
          "internalType": "uint256",
          "name": "tokenId",
          "type": "uint256"
        },
        {
          "indexed": false,
          "internalType": "uint256",
          "name": "newPrice",
          "type": "uint256"
        },
        {
          "indexed": false,
          "internalType": "address",
          "name": "addressForPayment",
          "type": "address"
        }
      ],
      "name": "ItemUpdated",
      "type": "event"
    },
    {
      "anonymous": false,
      "inputs": [
        {
          "indexed": true,
          "internalType": "bytes32",
          "name": "role",
          "type": "bytes32"
        },
        {
          "indexed": true,
          "internalType": "bytes32",
          "name": "previousAdminRole",
          "type": "bytes32"
        },
        {
          "indexed": true,
          "internalType": "bytes32",
          "name": "newAdminRole",
          "type": "bytes32"
        }
      ],
      "name": "RoleAdminChanged",
      "type": "event"
    },
    {
      "anonymous": false,
      "inputs": [
        {
          "indexed": true,
          "internalType": "bytes32",
          "name": "role",
          "type": "bytes32"
        },
        {
          "indexed": true,
          "internalType": "address",
          "name": "account",
          "type": "address"
        },
        {
          "indexed": true,
          "internalType": "address",
          "name": "sender",
          "type": "address"
        }
      ],
      "name": "RoleGranted",
      "type": "event"
    },
    {
      "anonymous": false,
      "inputs": [
        {
          "indexed": true,
          "internalType": "bytes32",
          "name": "role",
          "type": "bytes32"
        },
        {
          "indexed": true,
          "internalType": "address",
          "name": "account",
          "type": "address"
        },
        {
          "indexed": true,
          "internalType": "address",
          "name": "sender",
          "type": "address"
        }
      ],
      "name": "RoleRevoked",
      "type": "event"
    },
    {
      "anonymous": false,
      "inputs": [
        {
          "indexed": false,
          "internalType": "uint16",
          "name": "platformFee",
          "type": "uint16"
        }
      ],
      "name": "UpdatePlatformFee",
      "type": "event"
    },
    {
      "anonymous": false,
      "inputs": [
        {
          "indexed": false,
          "internalType": "address",
          "name": "platformFeeRecipient",
          "type": "address"
        }
      ],
      "name": "UpdatePlatformFeeRecipient",
      "type": "event"
    },
    {
      "inputs": [],
      "name": "DEFAULT_ADMIN_ROLE",
      "outputs": [
        {
          "internalType": "bytes32",
          "name": "",
          "type": "bytes32"
        }
      ],
      "stateMutability": "view",
      "type": "function"
    },
    {
      "inputs": [],
      "name": "MODERATOR_ROLE",
      "outputs": [
        {
          "internalType": "bytes32",
          "name": "",
          "type": "bytes32"
        }
      ],
      "stateMutability": "view",
      "type": "function"
    },
    {
      "inputs": [
        {
          "internalType": "address",
          "name": "",
          "type": "address"
        }
      ],
      "name": "balances",
      "outputs": [
        {
          "internalType": "uint256",
          "name": "",
          "type": "uint256"
        }
      ],
      "stateMutability": "view",
      "type": "function"
    },
    {
      "inputs": [
        {
          "internalType": "address",
          "name": "_nftAddress",
          "type": "address"
        },
        {
          "internalType": "uint256",
          "name": "_tokenId",
          "type": "uint256"
        }
      ],
      "name": "buyItem",
      "outputs": [],
      "stateMutability": "payable",
      "type": "function"
    },
    {
      "inputs": [
        {
          "internalType": "address",
          "name": "_nftAddress",
          "type": "address"
        },
        {
          "internalType": "uint256",
          "name": "_tokenId",
          "type": "uint256"
        }
      ],
      "name": "cancelListing",
      "outputs": [],
      "stateMutability": "nonpayable",
      "type": "function"
    },
    {
      "inputs": [],
      "name": "fee",
      "outputs": [
        {
          "internalType": "uint16",
          "name": "",
          "type": "uint16"
        }
      ],
      "stateMutability": "view",
      "type": "function"
    },
    {
      "inputs": [],
      "name": "feeRecipient",
      "outputs": [
        {
          "internalType": "address",
          "name": "",
          "type": "address"
        }
      ],
      "stateMutability": "view",
      "type": "function"
    },
    {
      "inputs": [
        {
          "internalType": "bytes32",
          "name": "role",
          "type": "bytes32"
        }
      ],
      "name": "getRoleAdmin",
      "outputs": [
        {
          "internalType": "bytes32",
          "name": "",
          "type": "bytes32"
        }
      ],
      "stateMutability": "view",
      "type": "function"
    },
    {
      "inputs": [
        {
          "internalType": "bytes32",
          "name": "role",
          "type": "bytes32"
        },
        {
          "internalType": "address",
          "name": "account",
          "type": "address"
        }
      ],
      "name": "grantRole",
      "outputs": [],
      "stateMutability": "nonpayable",
      "type": "function"
    },
    {
      "inputs": [
        {
          "internalType": "bytes32",
          "name": "role",
          "type": "bytes32"
        },
        {
          "internalType": "address",
          "name": "account",
          "type": "address"
        }
      ],
      "name": "hasRole",
      "outputs": [
        {
          "internalType": "bool",
          "name": "",
          "type": "bool"
        }
      ],
      "stateMutability": "view",
      "type": "function"
    },
    {
      "inputs": [
        {
          "internalType": "address",
          "name": "_nftAddress",
          "type": "address"
        },
        {
          "internalType": "uint256",
          "name": "_tokenId",
          "type": "uint256"
        },
        {
          "internalType": "uint256",
          "name": "_price",
          "type": "uint256"
        },
        {
          "internalType": "uint256",
          "name": "_startingTime",
          "type": "uint256"
        },
        {
          "internalType": "address",
          "name": "_paymentReceiver",
          "type": "address"
        }
      ],
      "name": "listItem",
      "outputs": [],
      "stateMutability": "nonpayable",
      "type": "function"
    },
    {
      "inputs": [
        {
          "internalType": "address",
          "name": "_nftAddress",
          "type": "address"
        },
        {
          "internalType": "uint256[]",
          "name": "_tokenIds",
          "type": "uint256[]"
        },
        {
          "internalType": "uint256",
          "name": "_price",
          "type": "uint256"
        },
        {
          "internalType": "uint256",
          "name": "_startingTime",
          "type": "uint256"
        }
      ],
      "name": "listItemBundle",
      "outputs": [],
      "stateMutability": "nonpayable",
      "type": "function"
    },
    {
      "inputs": [
        {
          "internalType": "address",
          "name": "",
          "type": "address"
        },
        {
          "internalType": "uint256",
          "name": "",
          "type": "uint256"
        }
      ],
      "name": "listings",
      "outputs": [
        {
          "internalType": "address",
          "name": "seller",
          "type": "address"
        },
        {
          "internalType": "address",
          "name": "paymentReceiver",
          "type": "address"
        },
        {
          "internalType": "uint256",
          "name": "price",
          "type": "uint256"
        },
        {
          "internalType": "uint256",
          "name": "startingTime",
          "type": "uint256"
        }
      ],
      "stateMutability": "view",
      "type": "function"
    },
    {
      "inputs": [
        {
          "internalType": "address",
          "name": "",
          "type": "address"
        },
        {
          "internalType": "address",
          "name": "",
          "type": "address"
        },
        {
          "internalType": "uint256",
          "name": "",
          "type": "uint256"
        },
        {
          "internalType": "bytes",
          "name": "",
          "type": "bytes"
        }
      ],
      "name": "onERC721Received",
      "outputs": [
        {
          "internalType": "bytes4",
          "name": "",
          "type": "bytes4"
        }
      ],
      "stateMutability": "pure",
      "type": "function"
    },
    {
      "inputs": [
        {
          "internalType": "bytes32",
          "name": "role",
          "type": "bytes32"
        },
        {
          "internalType": "address",
          "name": "account",
          "type": "address"
        }
      ],
      "name": "renounceRole",
      "outputs": [],
      "stateMutability": "nonpayable",
      "type": "function"
    },
    {
      "inputs": [
        {
          "internalType": "bytes32",
          "name": "role",
          "type": "bytes32"
        },
        {
          "internalType": "address",
          "name": "account",
          "type": "address"
        }
      ],
      "name": "revokeRole",
      "outputs": [],
      "stateMutability": "nonpayable",
      "type": "function"
    },
    {
      "inputs": [
        {
          "internalType": "address[]",
          "name": "_validNftAddresses",
          "type": "address[]"
        }
      ],
      "name": "setNftAddresses",
      "outputs": [],
      "stateMutability": "nonpayable",
      "type": "function"
    },
    {
      "inputs": [
        {
          "internalType": "bytes4",
          "name": "interfaceId",
          "type": "bytes4"
        }
      ],
      "name": "supportsInterface",
      "outputs": [
        {
          "internalType": "bool",
          "name": "",
          "type": "bool"
        }
      ],
      "stateMutability": "view",
      "type": "function"
    },
    {
      "inputs": [
        {
          "internalType": "address",
          "name": "_platformFeeRecipient",
          "type": "address"
        }
      ],
      "name": "updateFeeRecipient",
      "outputs": [],
      "stateMutability": "nonpayable",
      "type": "function"
    },
    {
      "inputs": [
        {
          "internalType": "address",
          "name": "_nftAddress",
          "type": "address"
        },
        {
          "internalType": "uint256",
          "name": "_tokenId",
          "type": "uint256"
        },
        {
          "internalType": "address",
          "name": "_newPaymentReceiver",
          "type": "address"
        },
        {
          "internalType": "uint256",
          "name": "_newPrice",
          "type": "uint256"
        }
      ],
      "name": "updateListing",
      "outputs": [],
      "stateMutability": "nonpayable",
      "type": "function"
    },
    {
      "inputs": [
        {
          "internalType": "uint16",
          "name": "_fee",
          "type": "uint16"
        }
      ],
      "name": "updatePlatformFee",
      "outputs": [],
      "stateMutability": "nonpayable",
      "type": "function"
    },
    {
      "inputs": [
        {
          "internalType": "address",
          "name": "",
          "type": "address"
        }
      ],
      "name": "validNfts",
      "outputs": [
        {
          "internalType": "bool",
          "name": "",
          "type": "bool"
        }
      ],
      "stateMutability": "view",
      "type": "function"
    },
    {
      "inputs": [
        {
          "internalType": "address",
          "name": "_address",
          "type": "address"
        }
      ],
      "name": "withdraw",
      "outputs": [],
      "stateMutability": "nonpayable",
      "type": "function"
    }
  ],
  "bytecode": "0x60806040523480156200001157600080fd5b506040516200213b3803806200213b83398101604081905262000034916200018f565b600180556001600160a01b038116620000935760405162461bcd60e51b815260206004820152601d60248201527f526f757465723a2041646d696e206973207a65726f2061646472657373000000604482015260640160405180910390fd5b600480546001600160a01b03841662010000026001600160b01b031990911661ffff861617179055620000c8600082620000d1565b505050620001e1565b6000828152602081815260408083206001600160a01b038516845290915290205460ff166200016e576000828152602081815260408083206001600160a01b03851684529091529020805460ff191660011790556200012d3390565b6001600160a01b0316816001600160a01b0316837f2f8788117e7eff1d82e926ec794901d17c78024a50270940304540a733656f0d60405160405180910390a45b5050565b80516001600160a01b03811681146200018a57600080fd5b919050565b600080600060608486031215620001a557600080fd5b835161ffff81168114620001b857600080fd5b9250620001c86020850162000172565b9150620001d86040850162000172565b90509250925092565b611f4a80620001f16000396000f3fe60806040526004361061013f5760003560e01c806391d14854116100b6578063b2ddee061161006f578063b2ddee0614610459578063d547741f14610479578063ddca3f4314610499578063e984f2eb146104c7578063f160d369146104e7578063f3fee54a1461050757600080fd5b806391d14854146103a1578063969a8ff3146103c15780639f37092a146103f1578063a217fddf14610404578063aa4a81dd14610419578063afb069521461043957600080fd5b80632f2ff15d116101085780632f2ff15d146102ad57806336568abe146102cf57806346904840146102ef5780634b12e8831461032d57806351cff8d91461034d578063797669c91461036d57600080fd5b806207df301461014457806301ffc9a7146101cd578063150b7a02146101fd578063248a9ca31461024257806327e235e314610280575b600080fd5b34801561015057600080fd5b5061019d61015f366004611953565b6002602081815260009384526040808520909152918352912080546001820154928201546003909201546001600160a01b0391821693909116919084565b604080516001600160a01b0395861681529490931660208501529183015260608201526080015b60405180910390f35b3480156101d957600080fd5b506101ed6101e836600461197f565b610527565b60405190151581526020016101c4565b34801561020957600080fd5b506102296102183660046119a9565b630a85bd0160e11b95945050505050565b6040516001600160e01b031990911681526020016101c4565b34801561024e57600080fd5b5061027261025d366004611a48565b60009081526020819052604090206001015490565b6040519081526020016101c4565b34801561028c57600080fd5b5061027261029b366004611a61565b60056020526000908152604090205481565b3480156102b957600080fd5b506102cd6102c8366004611a7e565b61055e565b005b3480156102db57600080fd5b506102cd6102ea366004611a7e565b610588565b3480156102fb57600080fd5b50600454610315906201000090046001600160a01b031681565b6040516001600160a01b0390911681526020016101c4565b34801561033957600080fd5b506102cd610348366004611afa565b61060b565b34801561035957600080fd5b506102cd610368366004611a61565b610694565b34801561037957600080fd5b506102727f71f3d55856e4058ed06ee057d79ada615f65cdf5f9ee88181b914225088f834f81565b3480156103ad57600080fd5b506101ed6103bc366004611a7e565b6107d5565b3480156103cd57600080fd5b506101ed6103dc366004611a61565b60036020526000908152604090205460ff1681565b6102cd6103ff366004611953565b6107fe565b34801561041057600080fd5b50610272600081565b34801561042557600080fd5b506102cd610434366004611b3c565b610c08565b34801561044557600080fd5b506102cd610454366004611ba3565b610e78565b34801561046557600080fd5b506102cd610474366004611953565b610ecf565b34801561048557600080fd5b506102cd610494366004611a7e565b611152565b3480156104a557600080fd5b506004546104b49061ffff1681565b60405161ffff90911681526020016101c4565b3480156104d357600080fd5b506102cd6104e2366004611bc7565b611177565b3480156104f357600080fd5b506102cd610502366004611a61565b611317565b34801561051357600080fd5b506102cd610522366004611c0f565b61137a565b60006001600160e01b03198216637965db0b60e01b148061055857506301ffc9a760e01b6001600160e01b03198316145b92915050565b60008281526020819052604090206001015461057981611641565b610583838361164e565b505050565b6001600160a01b03811633146105fd5760405162461bcd60e51b815260206004820152602f60248201527f416363657373436f6e74726f6c3a2063616e206f6e6c792072656e6f756e636560448201526e103937b632b9903337b91039b2b63360891b60648201526084015b60405180910390fd5b61060782826116d2565b5050565b600061061681611641565b60005b60ff811683111561068e5760016003600086868560ff1681811061063f5761063f611c65565b90506020020160208101906106549190611a61565b6001600160a01b031681526020810191909152604001600020805460ff19169115159190911790558061068681611c91565b915050610619565b50505050565b600260015414156106b75760405162461bcd60e51b81526004016105f490611cb1565b60026001556001600160a01b0381166000908152600560205260409020546107185760405162461bcd60e51b8152602060048201526014602482015273526f757465723a205a65726f2062616c616e636560601b60448201526064016105f4565b6001600160a01b038116600081815260056020526040808220805490839055905190929083908381818185875af1925050503d8060008114610776576040519150601f19603f3d011682016040523d82523d6000602084013e61077b565b606091505b50509050806107cc5760405162461bcd60e51b815260206004820152601760248201527f526f757465723a205472616e73666572206661696c656400000000000000000060448201526064016105f4565b50506001805550565b6000918252602082815260408084206001600160a01b0393909316845291905290205460ff1690565b6001600160a01b038083166000908152600260208181526040808420868552825292839020835160808101855281548616808252600183015490961692810192909252918201549281019290925260030154606082015283918391906108765760405162461bcd60e51b81526004016105f490611ce8565b6001600160a01b038086166000908152600260208181526040808420898552825292839020835160808101855281548616815260018201549095169185019190915290810154918301919091526003015460608201819052869186914210156109215760405162461bcd60e51b815260206004820152601c60248201527f526f757465723a2053616c65206e6f742073746172746564207965740000000060448201526064016105f4565b600260015414156109445760405162461bcd60e51b81526004016105f490611cb1565b600260018181556001600160a01b03808b166000908152602084815260408083208d84528252918290208251608081018452815485168152948101549093169084015292810154928201839052600301546060820152903410156109ea5760405162461bcd60e51b815260206004820152601c60248201527f526f757465723a20496e73756666696369656e742062616c616e63650000000060448201526064016105f4565b60408101516004546000906103e890610a079061ffff1684611d1f565b610a119190611d3e565b9050600260008c6001600160a01b03166001600160a01b0316815260200190815260200160002060008b8152602001908152602001600020600080820160006101000a8154906001600160a01b0302191690556001820160006101000a8154906001600160a01b0302191690556002820160009055600382016000905550508060056000600460029054906101000a90046001600160a01b03166001600160a01b03166001600160a01b031681526020019081526020016000206000828254610ada9190611d60565b90915550610aea90508183611d78565b6020808501516001600160a01b031660009081526005909152604081208054909190610b17908490611d60565b909155505082516001600160a01b038c16906342842e0e90336040516001600160e01b031960e085901b1681526001600160a01b03928316600482015291166024820152604481018d9052606401600060405180830381600087803b158015610b7f57600080fd5b505af1158015610b93573d6000803e3d6000fd5b50505050610b9e3390565b6001600160a01b031683600001516001600160a01b03167fc36542c7a190a4c20a7f15a0ddc46871de452f269f15b0e621f11b48463b299f8c85604051610bef929190918252602082015260400190565b60405180910390a3505060018055505050505050505050565b6001600160a01b038516600090815260036020526040902054859060ff16610c425760405162461bcd60e51b81526004016105f490611d8f565b6000610c4d81611641565b60005b85811015610e6e57306001600160a01b038916636352211e898985818110610c7a57610c7a611c65565b905060200201356040518263ffffffff1660e01b8152600401610c9f91815260200190565b602060405180830381865afa158015610cbc573d6000803e3d6000fd5b505050506040513d601f19601f82011682018060405250810190610ce09190611ddb565b6001600160a01b031614610d455760405162461bcd60e51b815260206004820152602660248201527f526f757465723a20526f75746572206d757374206265206f776e6572206f6620604482015265746f6b656e7360d01b60648201526084016105f4565b604080516080810182523081526004546201000090046001600160a01b0390811660208084019190915282840189905260608301889052908b16600090815260029091529182209091898985818110610da057610da0611c65565b60209081029290920135835250818101929092526040908101600020835181546001600160a01b03199081166001600160a01b03928316178355938501516001830180549095169116179092558201516002820155606090910151600390910155307f58daee15640543ce9c441aaf5417a2860fd1fd6b7e8a9648d1bb4d2b0c17b62a888884818110610e3557610e35611c65565b604080516020928302949094013584529083018a905282018890525060600160405180910390a280610e6681611df8565b915050610c50565b5050505050505050565b6000610e8381611641565b6004805461ffff191661ffff84169081179091556040519081527fcabead39256298cdf7d1228eee68b47bc54a2192283d8d93574da08d2d7ac303906020015b60405180910390a15050565b6001600160a01b03808316600090815260026020818152604080842086855282529283902083516080810185528154861680825260018301549096169281019290925291820154928101929092526003015460608201528391839190610f475760405162461bcd60e51b81526004016105f490611ce8565b6001600160a01b038516600090815260036020526040902054859060ff16610f815760405162461bcd60e51b81526004016105f490611d8f565b60026001541415610fa45760405162461bcd60e51b81526004016105f490611cb1565b600260018190556001600160a01b03878116600090815260209283526040808220898352909352919091205416610ffb7f71f3d55856e4058ed06ee057d79ada615f65cdf5f9ee88181b914225088f834f336107d5565b61105757336001600160a01b038216146110575760405162461bcd60e51b815260206004820152601e60248201527f526f757465723a206f6e6c792073656c6c65722063616e2063616e63656c000060448201526064016105f4565b6001600160a01b0387811660008181526002602081815260408084208c855290915280832080546001600160a01b03199081168255600182018054909116905591820183905560039091019190915551632142170760e11b8152306004820152918316602483015260448201889052906342842e0e90606401600060405180830381600087803b1580156110ea57600080fd5b505af11580156110fe573d6000803e3d6000fd5b50505050806001600160a01b03167ff86e54241e209ee4b38db8e64af9614b083d18f23c32f3293c8a87c6b8bf89438760405161113d91815260200190565b60405180910390a25050600180555050505050565b60008281526020819052604090206001015461116d81611641565b61058383836116d2565b6001600160a01b038085166000908152600260208181526040808420888552825292839020835160808101855281548616808252600183015490961692810192909252918201549281019290925260030154606082015285918591906111ef5760405162461bcd60e51b81526004016105f490611ce8565b6001600160a01b0387166000908152600260209081526040808320898452909152902061123c7f71f3d55856e4058ed06ee057d79ada615f65cdf5f9ee88181b914225088f834f336107d5565b6112a25780546001600160a01b0316336001600160a01b0316146112a25760405162461bcd60e51b815260206004820152601e60248201527f526f757465723a206f6e6c792073656c6c65722063616e20757064617465000060448201526064016105f4565b600281018590556001810180546001600160a01b0388166001600160a01b031990911681179091556040805189815260208101889052808201929092525133917fa3cfe174a8dc2286d4de7d40356e3c94f4988335aa95182a34e1f64b786c359c919081900360600190a25050505050505050565b600061132281611641565b6004805462010000600160b01b031916620100006001600160a01b038516908102919091179091556040519081527fe57e7c1f36cc83fade34e32351e6eee7eb9da532662b1b5da10c631e8222aca790602001610ec3565b6001600160a01b03808616600090815260026020818152604080842089855282529283902083516080810185528154861680825260018301549096169281019290925291820154928101929092526003015460608201528691869190156114235760405162461bcd60e51b815260206004820152601b60248201527f526f757465723a204974656d20616c7265616479206c6973746564000000000060448201526064016105f4565b6001600160a01b038816600090815260036020526040902054889060ff1661145d5760405162461bcd60e51b81526004016105f490611d8f565b600260015414156114805760405162461bcd60e51b81526004016105f490611cb1565b6002600155886001600160a01b0381166342842e0e336040516001600160e01b031960e084901b1681526001600160a01b039091166004820152306024820152604481018c9052606401600060405180830381600087803b1580156114e457600080fd5b505af11580156114f8573d6000803e3d6000fd5b50505050604051806080016040528061150e3390565b6001600160a01b03168152602001876001600160a01b0316815260200189815260200188815250600260008c6001600160a01b03166001600160a01b0316815260200190815260200160002060008b815260200190815260200160002060008201518160000160006101000a8154816001600160a01b0302191690836001600160a01b0316021790555060208201518160010160006101000a8154816001600160a01b0302191690836001600160a01b0316021790555060408201518160020155606082015181600301559050506115e33390565b604080518b8152602081018b90529081018990526001600160a01b0391909116907f58daee15640543ce9c441aaf5417a2860fd1fd6b7e8a9648d1bb4d2b0c17b62a9060600160405180910390a25050600180555050505050505050565b61164b8133611737565b50565b61165882826107d5565b610607576000828152602081815260408083206001600160a01b03851684529091529020805460ff1916600117905561168e3390565b6001600160a01b0316816001600160a01b0316837f2f8788117e7eff1d82e926ec794901d17c78024a50270940304540a733656f0d60405160405180910390a45050565b6116dc82826107d5565b15610607576000828152602081815260408083206001600160a01b0385168085529252808320805460ff1916905551339285917ff6391f5c32d9c69d2a47ea670b442974b53935d1edc7fd64eb21e047a839171b9190a45050565b61174182826107d5565b61060757611759816001600160a01b0316601461179b565b61176483602061179b565b604051602001611775929190611e3f565b60408051601f198184030181529082905262461bcd60e51b82526105f491600401611eb4565b606060006117aa836002611d1f565b6117b5906002611d60565b67ffffffffffffffff8111156117cd576117cd611ee7565b6040519080825280601f01601f1916602001820160405280156117f7576020820181803683370190505b509050600360fc1b8160008151811061181257611812611c65565b60200101906001600160f81b031916908160001a905350600f60fb1b8160018151811061184157611841611c65565b60200101906001600160f81b031916908160001a9053506000611865846002611d1f565b611870906001611d60565b90505b60018111156118e8576f181899199a1a9b1b9c1cb0b131b232b360811b85600f16601081106118a4576118a4611c65565b1a60f81b8282815181106118ba576118ba611c65565b60200101906001600160f81b031916908160001a90535060049490941c936118e181611efd565b9050611873565b5083156119375760405162461bcd60e51b815260206004820181905260248201527f537472696e67733a20686578206c656e67746820696e73756666696369656e7460448201526064016105f4565b9392505050565b6001600160a01b038116811461164b57600080fd5b6000806040838503121561196657600080fd5b82356119718161193e565b946020939093013593505050565b60006020828403121561199157600080fd5b81356001600160e01b03198116811461193757600080fd5b6000806000806000608086880312156119c157600080fd5b85356119cc8161193e565b945060208601356119dc8161193e565b935060408601359250606086013567ffffffffffffffff80821115611a0057600080fd5b818801915088601f830112611a1457600080fd5b813581811115611a2357600080fd5b896020828501011115611a3557600080fd5b9699959850939650602001949392505050565b600060208284031215611a5a57600080fd5b5035919050565b600060208284031215611a7357600080fd5b81356119378161193e565b60008060408385031215611a9157600080fd5b823591506020830135611aa38161193e565b809150509250929050565b60008083601f840112611ac057600080fd5b50813567ffffffffffffffff811115611ad857600080fd5b6020830191508360208260051b8501011115611af357600080fd5b9250929050565b60008060208385031215611b0d57600080fd5b823567ffffffffffffffff811115611b2457600080fd5b611b3085828601611aae565b90969095509350505050565b600080600080600060808688031215611b5457600080fd5b8535611b5f8161193e565b9450602086013567ffffffffffffffff811115611b7b57600080fd5b611b8788828901611aae565b9699909850959660408101359660609091013595509350505050565b600060208284031215611bb557600080fd5b813561ffff8116811461193757600080fd5b60008060008060808587031215611bdd57600080fd5b8435611be88161193e565b9350602085013592506040850135611bff8161193e565b9396929550929360600135925050565b600080600080600060a08688031215611c2757600080fd5b8535611c328161193e565b94506020860135935060408601359250606086013591506080860135611c578161193e565b809150509295509295909350565b634e487b7160e01b600052603260045260246000fd5b634e487b7160e01b600052601160045260246000fd5b600060ff821660ff811415611ca857611ca8611c7b565b60010192915050565b6020808252601f908201527f5265656e7472616e637947756172643a207265656e7472616e742063616c6c00604082015260600190565b60208082526017908201527f526f757465723a204974656d206e6f74206c6973746564000000000000000000604082015260600190565b6000816000190483118215151615611d3957611d39611c7b565b500290565b600082611d5b57634e487b7160e01b600052601260045260246000fd5b500490565b60008219821115611d7357611d73611c7b565b500190565b600082821015611d8a57611d8a611c7b565b500390565b6020808252602c908201527f526f757465723a204e667441646472657373206e6f7420696e636c756465642060408201526b696e2076616c69644e66747360a01b606082015260800190565b600060208284031215611ded57600080fd5b81516119378161193e565b6000600019821415611e0c57611e0c611c7b565b5060010190565b60005b83811015611e2e578181015183820152602001611e16565b8381111561068e5750506000910152565b7f416363657373436f6e74726f6c3a206163636f756e7420000000000000000000815260008351611e77816017850160208801611e13565b7001034b99036b4b9b9b4b733903937b6329607d1b6017918401918201528351611ea8816028840160208801611e13565b01602801949350505050565b6020815260008251806020840152611ed3816040850160208701611e13565b601f01601f19169190910160400192915050565b634e487b7160e01b600052604160045260246000fd5b600081611f0c57611f0c611c7b565b50600019019056fea2646970667358221220b82d4ac533ff8e6016b90f3bbfc39822b040079fc54bba21bbda59722dc702b364736f6c634300080a0033",
  "linkReferences": {},
  "deployedLinkReferences": {}
}